:1000000038EF00F00000000000EF00F000000000FA
:0A0010000000000000000000F3D71C
:0C001C003A0E0D6E0D2EFED700001200F3
:10002800C26A070EC012C08E17C000F000360090DA
:10003800003600900050C212C280ECDFC282C2A219
:1000480002D00000FCD7C4CF01F0006A00C018F04D
:1000580001C019F0C3501812000E1912C29018C02E
:0800680000F019C001F01200C4
:10007000020E0F01386F3A6B3B6B020E926E946A60
:10008000956A010E176ED0DF00C015F001C016F0A2
:1000900000C08CFF01C002F0036A02C08BFFF1D7E1
:0200A000FFD788
:020000040030CA
:0D000100331F3CFFBD81FF0FC00FE00F401B
:00000001FF
