:100000001BEF00F00000000000EF00F00000000017
:0A0010000000000000000000F3D71C
:10001C00050E0B6E0F0E0C6EF10E0D6E0D2EFED727
:0A002C000C2EFCD70B2EFAD71200A1
:10003600926A936A946A956A966A896A8A6A8B6AE8
:100046008C6A8D6A156A15C001F0010E006E0150AA
:1000560004E000360090FF0FFBD7005089120050D5
:100066008A1200508B1200508C1200508D12D3DF72
:100076001550070A02E0152AE6D7156A080E155C20
:1000860018E215C001F0010E006E015004E00036C2
:100096000090FF0FFBD7001E0050891600508A16ED
:1000A60000508B1600508C1600508D16B4DF152AA2
:0600B600E5D7C8D7FFD713
:020000040030CA
:0D000100331F3CFFBD81FF0FC00FE00F401B
:00000001FF
