:10000000E9EF04F00000000000EF00F00000000045
:0A0010000000000000000000F3D71C
:0C001C001A0E0D6E0D2EFED70000120013
:0C0028003A0E0D6E0D2EFED700001200E7
:0C003400020E0D6E0D2EFED70000120013
:10004000C30EC216CAC000F0003600900036009001
:100050000050C212E9DFC282C2A202D00000FCD767
:10006000C4CF01F0006A00C0CBF001C0CCF0C35097
:100070000001CB13000ECC13CBC000F0CCC001F0BC
:0200800012006C
:0A008200CCDF8A88CADF8A981200DA
:0E008C008A988A848A96C7C083FFF5DF120027
:10009A00800E006E000E016E830E00240001C86FF0
:1000AA000F0E0120C96FC8C0E1FFC9C0E2FFFF0EF1
:1000BA00E66EBBDFBADF8A848A988A86120E006EE1
:1000CA00000E016E830E0024C86F0F0E0120C96F47
:1000DA00C8C0E1FFC9C0E2FFFF0EE66E8A8899DF59
:1000EA0083CFC7F08A988A96120E006E000E016EB0
:1000FA00830E0024C86F0F0E0120C96FC8C0E1FF2C
:0C010A00C9C0E2FFE66AC7C000F01200A6
:100116007F0E0001C715006E00C0C7F08A948A964C
:10012600BF0E001600C0C7F0008C00C0C7F000C0AC
:0601360083FFA4DF1200AC
:10013C000B6A0A6A096A00500402F4CF09F0F3CF83
:10014C0008F001500502F4CF0BF0F3CF0AF0005089
:10015C000502F3500926F4500A22E86A0B220150DA
:10016C000402F3500926F4500A22E86A0B2208C054
:10017C0000F009C001F00AC002F00BC003F012003D
:10018C007F0E0001C715016E01C0C7F001AC03D092
:0C019C008A808A9202D08A908A82120027
:1001A8008A948A96B80E0001C711836E66DF120022
:1001B800F250026EF29E0500FF6A0150FE6E00507A
:0801C800FD6E02BEF28E120072
:1001D0000B0E0C6E620E0D6E0D2EFED70C2EFCD784
:0401E0000000120009
:1001E400340E0C6EF10E0D6E0D2EFED70C2EFCD7B8
:0601F400000000001200F3
:1001FA000001BE51070801E285D06951BC5D006E5D
:10020A006AC001F0000E015688C004F0000E056EA7
:10021A0090DF00C0C4F001C0C5F0BDC0C7F076DFF2
:10022A00BEC0C7F0BCDFC06B8805C66FC051C65DD3
:10023A004BE3BD517F0801E265D0BDC0C7F0A1DF25
:10024A00BEC0C7F0ACDFBDC0C7F060DF21DF00C0B1
:10025A00C1F01EDF00C0C1F0BDC0C7F092DFBEC052
:10026A00C7F09DDFBDC0C7F051DFC4516B25F66EE4
:10027A00C5516C21F76E000EC5BFFF0E6D21F86ED9
:10028A000900F5CF00F000C0C2F0C44BC52B001C1A
:10029A00C36FBF51000A03E1C3C0C1F00CD0BF5104
:1002AA00010A03E1C2C0C1F006D0BF51020A03E14C
:1002BA00C251C11B00D0C1C0C7F0E3DEBD2BC05183
:1002CA00C61902E0C02BB0D7BDC0C7F05ADFBEC006
:1002DA00C7F065DFBDC0C7F019DFFF0EC26FC36B81
:1002EA00BF51000A06E1C2C0C1F0C2C0C7F0C9DEF0
:1002FA0009D0BF51010A06E1C3C0C1F0C3C0C7F0AB
:06030A00C0DE00D012006D
:100310008B908B9267DF1DC0E1FF1EC0E2FF53C0D0
:10032000E6FF1BC000F01CC001F046DF0150575C27
:1003300002E10050565CFF0ED8B0000E0001BC6F09
:1003400047DF46DF1DC0E1FF1EC0E2FF53C0E6FFEE
:100350001BC000F01CC001F02FDF0150575C02E110
:100360000050565CFF0ED8B0000E026E0250000125
:08037000BC17BCC000F0120034
:100378008B808B9233DF1DC0E1FF1EC0E2FF5AC0A5
:10038800E6FF1BC000F01CC001F012DF00C0BCF08B
:0E03980001C0BDF0BCC000F0BDC001F01200FD
:1003A6008B908B821CDF1DC0E1FF1EC0E2FF53C095
:1003B600E6FF1BC000F01CC001F0FBDE00C0BCF075
:0E03C60001C0BDF0BCC000F0BDC001F01200CF
:0A03D400B6C056F0B7C057F0120093
:0C03DE00DE5003E0E66EEFEF01F01200CD
:1003EA00000E0001B65DFF0ED8B0000E016EB651C8
:1003FA007F08FF0ED8B0000E006E00500112000EEA
:10040A00B75DFF0ED8B0000E006E00500112B75152
:10041A003F08FF0ED8B0000E006E0150001201E036
:10042A004BD0B6C0C7F0ADDEB7C0C7F0C733C79F61
:10043A00C733C79FC733C79FB2DEB6C0C7F066DEF1
:10044A0027DE00C0BAF024DE00C0BAF0B7C0C7F099
:10045A00C733C79FC733C79FC733C79FA0DEB6C07E
:10046A00C7F054DE070EB715006E00C0B9F000C021
:10047A0001F0010E006E015004E000360090FF0FFB
:10048A00FBD700C0B9F0001CBB6FB851000A03E1EA
:10049A00BB51BA170ED0B851010A03E1B951BA13C8
:1004AA0008D0B851020A03E1B951BA1B02D0B951B6
:0A04BA00BA13BAC0C7F0E5DD120066
:1004C4008A908A820001B86BB8C0C7F06BDEB76B44
:1004D400B6C0C7F0D9DDB7513F0A02E0B72BF8D751
:1004E400B851070A02E0B82BEFD78A928A80B86B1A
:1004F400B8C0C7F057DEB76BB6C0C7F0C5DDB7519B
:100504003F0A02E0B72BF8D7B851070A02E0B82B2C
:04051400EFD712000B
:100518000001896B5F6A6E6B6F6B939A93989394E3
:100528009396939093928A9A120E006E000E016E23
:10053800830E0024E16E0F0E0120E26EE66A8A94B3
:100548008A968A908A828A8A3F0E836E96DDC00ECA
:10055800836E93DD8A808A923F0E836E8EDDC00E95
:06056800836E8BDD120022
:10056E0094909492840E566E030E576EB6C05DF044
:10057E00B7C05EF0B8C063F0B9C064F0BAC05AF04C
:10058E00BBC053F0586A596A0001706B716B120050
:10059E00400E1B6E000E1C6ECA0E1D6E000E1E6EE1
:0C05AE00C26A070EC012C08EC28012008C
:1005BA0000C002F001C003F0046AB6C0F6FFB7C07B
:1005CA00F7FFB8C0F8FF0900F5CF01F00150000AA3
:1005DA001DE002C000F003C001F004500024E16EE7
:1005EA00000E0120E26EB6C0F6FFB7C0F7FFB8C032
:1005FA00F8FF0900F5CF00F000C0E6FF010E000188
:10060A00B627000EB723B823042AD7D702C000F0B2
:10061A0003C001F004500024E16E000E0120E26ED6
:04062A00E66A12006A
:10062E00086A096A100E0C6E013408360936045039
:10063E00085E0550D8A0053C095ED8B007D004501E
:10064E0008260550D8B0053C0926D890003601364C
:06065E000C2EEAD7120089
:1006640055DE0050000AFCE0000E5E1802E1800E28
:100674005D18FF0ED8A4000E016E000E641902E18D
:10068400400E6319FF0ED8A4000E006E0150001630
:1006940011E070DE050E00240001676F000E0120DA
:1006A400686F7FDE050E00240001656F000E0120D7
:1006B400666F10D05FDE030E00240001676F000E2A
:1006C4000120686F6EDE030E00240001656F000ECA
:0606D4000120666F120018
:1006DA001ADE0050000AFCE0000E5E1802E1800EED
:1006EA005D18FF0ED8A4000E016E000E641902E117
:1006FA00400E6319FF0ED8A4000E006E01500016BA
:10070A000FE035DE0A0E005C5B6E000E01585C6E6F
:10071A0045DE0A0E005C546E000E0158556E0ED06E
:10072A0026DE030E005C5B6E000E01585C6E36DE40
:0E073A00030E005C546E000E0158556E120046
:1007480000018951000A0EE1050E886F070E606FDF
:10075800FE0E6B6F0B0E6C6F000E6D6F200E696FC7
:10076800000E6A6FBB6BBB51B625E96E000EB72150
:10077800EA6EEE50000A14E0BB51B625E96E000E91
:10078800B721EA6EEECFBCF0B8C0BDF0B9C0BEF07C
:10079800BAC0BFF02EDD8851B827B82BBB2BE3D7E2
:0207A80012003D
:1007AA00030E0F01386F396B3A6B3B6B030E926E77
:1007BA00AEDEB66B82DEEEDE800EB66F000EB76F6F
:1007CA00400EB86F000EB96FBA6B010EBB6FCADE6E
:0C07DA00840EB66F030EB76FF8DD12003E
:1007E600A0C0E1FFA1C0E2FF5BC0E6FF5CC0E6FF80
:1007F600A2C0E1FFA3C0E2FF67C0E6FF68C0E6FF54
:10080600A4C0E1FFA5C0E2FF54C0E6FF55C0E6FF65
:10081600A6C0E1FFA7C0E2FF65C0E6FF66C0E6FF2F
:020826001200BE
:100828000001B66B3F0EB76F010EB86FDADD060E2A
:10083800B66F0E0EB76F000EB86FA00E006E000EEA
:10084800016EB7DE720EE16E000EE26EA00ED96E7A
:10085800000EDA6EC0DDE66A720E0001B66F000E99
:10086800B76F0C0EB86F030EB96F010EBA6F68DF61
:1008780030DF290E0B6E960E0C6E7F0E0D6E0D2E50
:10088800FED70C2EFCD70B2EFAD70001B66B3F0E05
:10089800B76FB86BA6DD7F0EB66FB76B010EB86F7A
:1008A800A0DD180EB66F0E0EB76F000EB86FA00E53
:1008B800006E000E016E7DDE720EE16E000EE26EBD
:1008C800A00ED96E000EDA6E86DDE66A720E0001A1
:1008D800B66F000EB76F0C0EB86F030EB96F010E2E
:1008E800BA6F2EDFF40EB66F0D0EB76F000EB86F2D
:1008F800A00E006E000E016E5CDE720EE16E000E40
:10090800E26EA00ED96E000EDA6E65DDE66A720E32
:100918000001B66F000EB76F0C0EB86F040EB96FFA
:10092800010EBA6F0DDF9ADE290E0B6E960E0C6E55
:100938007F0E0D6E0D2EFED70C2EFCD70B2EFAD780
:0209480012009B
:10094A00A2C0E1FFA3C0E2FF200EE66E200EE66E13
:10095A00200EE66E200EE66E300EE66EE66A040E95
:10096A000001A225A46F000EA321A56F000EA119F4
:10097A0002E1000EA01927E00A0E046E000E056EB1
:10098A00A0C000F0A1C001F04DDE08C000F009C00F
:10099A0001F0300E0026A4C0E1FFA5C0E2FF00C0AE
:1009AA00E6FF0A0E046E000E056EA0C000F0A1C09C
:1009BA0001F038DE00C0A0F001C0A1F0010EA45F72
:0809CA00000EA55BD3D712005B
:1009D200EBDE580E3F6E200E406E6D0E416E690EBC
:1009E200426E6E0E436E3A0E446E456A590E466E64
:1009F200200E476E6D0E486E690E496E6E0E4A6E7F
:100A02003A0E4B6E4C6A580E386E200E396E6D0ED1
:100A12003A6E610E3B6E780E3C6E3A0E3D6E3E6A49
:100A2200590E316E200E326E6D0E336E610E346EC3
:100A3200780E356E3A0E366E376A2A0EB66F0E0E85
:100A4200B76F000EB86F8A0E006E000E016EB4DD35
:100A5200720EE16E000EE26E8A0ED96E000EDA6E32
:100A6200BDDCE66A720E0001B66F000EB76F200E93
:100A7200B86F030EB96F010EBA6F65DE290E0B6EE9
:100A8200960E0C6E7F0E0D6E0D2EFED70C2EFCD721
:100A92000B2EFAD7B66B15DDC6DE4D0EA06F000E1B
:100AA200A16F4F0EA26F000EA36F610EA46F000E16
:100AB200A56F510EA66F000EA76F94DE4DC0A0F079
:100AC2004EC0A1F0250EA26F000EA36F3DDF4FC0F6
:100AD200A0F050C0A1F02B0EA26F000EA36F34DF66
:100AE20061C0A0F062C0A1F01F0EA26F000EA36F42
:100AF2002BDF51C0A0F052C0A1F0150EA26F000E64
:100B0200A36F22DFB66BDDDCDE0EB66F0D0EB76FA4
:100B1200000EB86F8A0E006E000E016E4DDD720E71
:100B2200E16E000EE26E8A0ED96E000EDA6E56DCAF
:100B3200E66A720E0001B66F000EB76F010EB86F53
:100B4200010EB96F010EBA6FFEDD3F0EB66F000ED9
:100B5200B76F010EB86F030EB96F010EBA6FF3DDF6
:100B6200380EB66F000EB76F010EB86F040EB96F74
:100B7200010EBA6FE8DD460EB66F000EB76F010EBA
:100B8200B86F050EB96F010EBA6FDDDD310EB66FAB
:100B9200000EB76F010EB86F060EB96F010EBA6F75
:100BA200D2DD250EB66F000EB76F320EB86F030E90
:100BB200B96F010EBA6FC7DD2B0EB66F000EB76F9D
:100BC200320EB86F040EB96F010EBA6FBCDD1F0E84
:100BD200B66F000EB76F320EB86F050EB96F010E09
:100BE200BA6FB1DD150EB66F000EB76F320EB86F69
:0C0BF200060EB96F010EBA6FA6DDFFD72A
:100BFE00000000000000005F000000070007001466
:100C0E007F147F14242A7F2A122313086462364924
:100C1E005522500005030000001C22410000412215
:100C2E001C00082A1C2A0808083E0808005030003C
:100C3E0000080808080800303000002010080402E0
:100C4E003E5149453E00427F400042615149462196
:100C5E0041454B311814127F1027454545393C4A02
:100C6E004949300171090503364949493606494952
:100C7E00291E0036360000005636000000081422E9
:100C8E0041141414141441221408000201510906CF
:100C9E00324979413E7E1111117E7F494949363ED6
:100CAE00414141227F4141221C7F494949417F09EF
:100CBE000901013E414151327F0808087F00417F02
:100CCE0041002040413F017F081422417F404040B7
:100CDE00407F0204027F7F0408107F3E4141413E67
:100CEE007F090909063E4151215E7F0919294646B1
:100CFE004949493101017F01013F4040403F1F20DA
:100D0E0040201F7F2018207F63140814630304788B
:100D1E000403615149454300007F4141020408101C
:100D2E002041417F00000402010204404040404047
:100D3E00000102040020545454787F48444438384B
:100D4E0044444420384444487F3854545418087E50
:100D5E00090102081454543C7F0804047800447DB1
:100D6E0040002040443D00007F10284400417F4059
:100D7E00007C041804787C08040478384444443811
:100D8E007C14141408081414187C7C0804040848F5
:100D9E0054545420043F4440203C4040207C1C20AE
:100DAE0040201C3C4030403C44281028440C5050FD
:100DBE00503C4464544C44000836410000007F000F
:100DCE0000004136080008082A1C08081C2A0808DA
:100DDE0043616C6962726174696F6E20636F6E73CA
:060DEE0074616E747300D5
:100DF400544F554348205550504552205249474876
:020E0400540098
:100E0600544F55434820424F54544F4D204C45466D
:020E1600540086
:100E180020202020202020202020202020202020CA
:020E28002000A8
:0C0E2A0043414C4942524154494F4E0094
:020000040030CA
:0D000100331F3CFFBD81FF0FC00FE00F401B
:00000001FF
