:10000000BAEF08F00000000000EF00F00000000070
:0A0010000000000000000000F3D71C
:0C001C001A0E0D6E0D2EFED70000120013
:0C0028003A0E0D6E0D2EFED700001200E7
:10003400C30EC21686C000F0003600900036009051
:100044000050C212EFDFC282C2A202D00000FCD76D
:10005400C4CF01F0006A00C087F001C088F0C3502B
:1000640000018713000E881387C000F088C001F0D8
:02007400120078
:0A007600D2DF8A88D0DF8A981200DA
:0C008000020E0D6E0D2EFED700001200C7
:10008C000B6A0A6A096A00500402F4CF09F0F3CF34
:10009C0008F001500502F4CF0BF0F3CF0AF000503A
:1000AC000502F3500926F4500A22E86A0B2201508B
:1000BC000402F3500926F4500A22E86A0B2208C005
:1000CC0000F009C001F00AC002F00BC003F01200EE
:1000DC008A948A96B80E00018311836EC6DF1200D3
:1000EC00F250026EF29E0500FF6A0150FE6E005047
:0800FC00FD6E02BEF28E12003F
:10010400340E0C6EF10E0D6E0D2EFED70C2EFCD798
:06011400000000001200D3
:10011A007F0E00018315006E00C083F08A948A96D0
:10012A00BF0E001600C083F0008C00C083F000C030
:06013A0083FF9CDF1200B0
:100140000B0E0C6E620E0D6E0D2EFED70C2EFCD714
:040150000000120099
:10015400800E006E000E016E830E00240001846F79
:100164000F0E0120856F84C0E1FF85C0E2FFFF0E02
:10017400E66E84DF83DF8A848A988A86120E006E94
:10018400000E016E830E0024846F0F0E0120856F14
:1001940084C0E1FF85C0E2FFFF0EE66E8A883CDF83
:1001A40083CF83F08A988A96120E006E000E016E39
:1001B400830E0024846F0F0E0120856F84C0E1FF3D
:0C01C40085C0E2FFE66A83C000F0120074
:1001D0007F0E00018315016E01C083F001AC03D0D6
:0C01E0008A808A9202D08A908A821200E3
:0E01EC008A988A848A9683C083FF3FDF1200C0
:1001FA008B908B9282DF1AC0E1FF1BC0E2FF4BC0DB
:10020A00E6FF18C000F019C001F06BDF01504D5C29
:10021A0002E100504C5CFF0ED8B0000E0001786F6E
:10022A008ADF89DF1AC0E1FF1BC0E2FF4BC0E6FF8D
:10023A0018C000F019C001F054DF01504D5C02E112
:10024A0000504C5CFF0ED8B0000E026E0250000146
:08025A00781778C000F01200D3
:100262000450085E0550D8A0053C095E0650D8A08F
:10027200063C0A5E0750D8A0073C0B5E0336070E09
:100282000C6E0334083609360A360B36045003A0C6
:100292000ED0085E0550D8A0053C095E0650D8A0D5
:1002A200063C0A5E0750D8A0073C0B5E0DD008261C
:1002B2000550D8B0053C09260650D8B0063C0A269F
:1002C2000750D8B0073C0B2603360C2EDAD702347F
:1002D200083609360A360B36045003A00ED0085EE3
:1002E2000550D8A0053C095E0650D8A0063C0A5E1F
:1002F2000750D8A0073C0B5E0DD008260550D8B099
:10030200053C09260650D8B0063C0A260750D8B04C
:10031200073C0B260236070E0C6E023408360936ED
:100322000A360B36045002A00ED0085E0550D8A043
:10033200053C095E0650D8A0063C0A5E0750D8A0CC
:10034200073C0B5E0DD008260550D8B0053C0926A7
:100352000650D8B0063C0A260750D8B0073C0B26F8
:1003620002360C2EDAD70134083609360A360B3635
:10037200045002A00ED0085E0550D8A0053C095ECC
:100382000650D8A0063C0A5E0750D8A0073C0B5E78
:100392000DD008260550D8B0053C09260650D8B025
:1003A200063C0A260750D8B0073C0B260136070E3A
:1003B2000C6E0134083609360A360B36045001A099
:1003C2000ED0085E0550D8A0053C095E0650D8A0A4
:1003D200063C0A5E0750D8A0073C0B5E0DD00826EB
:1003E2000550D8B0053C09260650D8B0063C0A266E
:1003F2000750D8B0073C0B2601360C2EDAD7003452
:10040200083609360A360B36045001A00ED0085EB3
:100412000550D8A0053C095E0650D8A0063C0A5EED
:100422000750D8A0073C0B5E0DD008260550D8B067
:10043200053C09260650D8B0063C0A260750D8B01B
:10044200073C0B260036070E0C6E003408360936C0
:100452000A360B36045000A00ED0085E0550D8A014
:10046200053C095E0650D8A0063C0A5E0750D8A09B
:10047200073C0B5E0DD008260550D8B0053C092676
:100482000650D8B0063C0A260750D8B0073C0B26C7
:1004920000360C2EDAD700B00ED0045008260550D4
:1004A200D8B0053C09260650D8B0063C0A260750AB
:0804B200D8B0073C0B26120034
:1004BA008B808B9222DE1AC0E1FF1BC0E2FF35C09F
:1004CA00E6FF18C000F019C001F00BDE00C078F09A
:0E04DA0001C079F078C000F079C001F0120086
:1004E8008B908B820BDE1AC0E1FF1BC0E2FF4BC072
:1004F800E6FF18C000F019C001F0F4DD00C078F084
:0E05080001C079F078C000F079C001F0120057
:10051600060E0C6E2B0E0D6E0D2EFED70C2EFCD776
:020526001200C1
:10052800000E0001785DFF0ED8B0000E016E785104
:100538007F08FF0ED8B0000E006E00500112000EAA
:10054800795DFF0ED8B0000E006E0050011279518F
:100558003F08FF0ED8B0000E006E0150001201E0F7
:100568004BD078C083F030DE79C083F08333839F2B
:100578008333839F8333839FADDD78C083F0C9DDE8
:10058800E5DD00C07CF0E2DD00C07CF079C083F0DE
:100598008333839F8333839F8333839F9BDD78C01B
:1005A80083F0B7DD070E7915006E00C07BF000C040
:1005B80001F0010E006E015004E000360090FF0FBC
:1005C800FBD700C07BF0001C7D6F7A51000A03E165
:1005D8007D517C170ED07A51010A03E17B517C13BF
:1005E80008D07A51020A03E17B517C1B02D07B516F
:0A05F8007C137CC083F0F6DD1200D6
:1006020000017A51070801E285D01550785D006E2D
:1006120016C001F0000E01563AC004F0000E056E3D
:1006220034DD00C080F001C081F079C083F074DD58
:100632007AC083F052DD7C6B3A04826F7C51825D1A
:100642004BE379517F0801E265D079C083F0BFDDC9
:100652007AC083F042DD79C083F05EDD7ADD00C0CE
:100662007DF077DD00C07DF079C083F0B0DD7AC027
:1006720083F033DD79C083F04FDD80513B24F66E89
:1006820081513C20F76E000E81BFFF0E3D20F86EB7
:100692000900F5CF00F000C07EF0804B812B001CDA
:1006A2007F6F7B51000A03E17FC07DF00CD07B514C
:1006B200010A03E17EC07DF006D07B51020A03E10C
:1006C2007E517D1B00D07DC083F08FDD792B7C5164
:1006D200821902E07C2BB0D779C083F078DD7AC032
:1006E20083F0FBDC79C083F017DDFF0E7E6F7F6B3A
:1006F2007B51000A06E17EC07DF07EC083F075DD8D
:1007020009D07B51010A06E17FC07DF07FC083F0F2
:060712006CDD00D01200B6
:100718000B1E0A1E091E081E082AD8B4092AD8B4B6
:080728000A2AD8B40B2A1200C2
:100730008A908A820001746B74C083F0CFDC736B83
:1007400072C083F053DD73513F0A02E0732BF8D778
:100750007451070A02E0742BEFD78A928A80746B77
:1007600074C083F0BBDC736B72C083F03FDD7351E8
:100770003F0A02E0732BF8D77451070A02E0742B8A
:04078000EFD712009D
:10078400396A366A4E6A4F6A939A93989394939609
:10079400939093928A9A120E006E000E016E830E4D
:1007A4000024E16E0F0E0120E26EE66A8A948A96B6
:1007B4008A908A828A8A3F0E836E5BDCC00E836EC7
:1007C40058DC8A808A923F0E836E53DCC00E836E9F
:0407D40050DC1200E3
:1007D800340E186E000E196E860E1A6E000E1B6E01
:0C07E800C26A070EC012C08EC280120050
:1007F4003950000A0EE1050E3A6E070E4A6EAC0E31
:100804003B6E170E3C6E000E3D6E200E156E000EF4
:10081400166E0001776B77517225E96E000E732115
:10082400EA6EEE50000A14E077517225E96E000E6C
:100834007321EA6EEECF78F074C079F075C07AF067
:1008440076C07BF0DCDE3A507427742B772BE3D729
:02085400120090
:0A08560072C04CF073C04DF01200A8
:1008600094909492840E4C6E030E4D6E72C048F0BC
:1008700073C049F074C01CF075C01DF076C035F02F
:0E08800077C04BF0406A416A3E6A3F6A120040
:10088E00000E0001745DFF0ED8B0000E016E7451A3
:10089E003F08FF0ED8B0000E006E0150001201E0AE
:1008AE0027D0000E725DD8A0726B72517F0802E2E3
:1008BE007F0E726F000E735DD8A0736B73517F083D
:1008CE0002E27F0E736F7251735D06E272C076F0B4
:1008DE0073C072F076C073F07251735D09E372C02B
:1008EE0078F074C079F075C07AF017DE722BF4D7F9
:0208FE001200E6
:100900008B908B82000E491802E1800E4818FF0E72
:10091000D8A4000E016E000E1D1802E1400E1C1836
:10092000FF0ED8A4000E006E0150001602E0F3DDA9
:1009300002D082EC00F01AC0E1FF1BC0E2FF4BC006
:10094000E6FF18C000F019C001F076EC00F000C01E
:1009500072F001C073F072C000F073C001F01200B9
:100960008B808B92D8DD000E491802E1800E48186A
:10097000FF0ED8A4000E016E000E1D1802E1400EFD
:100980001C18FF0ED8A4000E006E0150001602E0E5
:10099000C2DD02D082EC00F01AC0E1FF1BC0E2FF12
:1009A00035C0E6FF18C000F019C001F076EC00F089
:1009B00000C072F001C073F072C000F073C001F0AB
:0209C000120023
:1009C200000E0001745DFF0ED8B0000E016E74516E
:1009D2007F08FF0ED8B0000E006E0150001201E039
:1009E20027D0000E725DD8A0726B72513F0802E2EE
:1009F2003F0E726F000E735DD8A0736B73513F0888
:100A020002E23F0E736F7251735D06E272C076F0BE
:100A120073C072F076C073F07251735D09E374C0F3
:100A220078F072C079F075C07AF07DDD722BF4D760
:020A32001200B0
:100A3400FDEC00F00050000AFBE0000E491802E152
:100A4400800E4818FF0ED8A4000E016E000E1D186B
:100A540002E1400E1C18FF0ED8A4000E006E0150D7
:100A640000160FE028DD050E0024446E000E012060
:100A7400456E38DD050E0024376E000E0120386EF9
:100A84000ED019DD030E0024446E000E0120456EC5
:100A940029DD030E0024376E000E0120386E12008B
:100AA4000450000A12E10550000A0FE10650000A42
:100AB4000CE10750000A09E1FF0E006EFF0E016E03
:100AC400FF0E026E7F0E036E98D00C6A07BE0C2ACE
:100AD4000D6A0B6A0A6A096A086A03500210011057
:100AE4000010D8B485D0035007180E6E0EBE0D1E2C
:100AF40007AE0BD0041E051E061E071E042AD8B41A
:100B0400052AD8B4062AD8B4072A03AE0BD0001E8F
:100B1400011E021E031E002AD8B4012AD8B4022AD8
:100B2400D8B4032A035007100E6E0EBE1DD031EC4C
:100B340001F00CBE36D00DAE5BD0001E011E021EAD
:100B4400031E002AD8B4012AD8B4022AD8B4032A2E
:100B5400081E091E0A1E0B1E082AD8B4092AD8B476
:100B64000A2AD8B40B2A44D007AE15D003BE0DD040
:100B740003500B6E02500A6E0150096E0050086E4D
:100B8400036A026A016A006AD6D7036A026A016AC2
:100B9400006A002A000C031E021E011E001E0C8E99
:100BA400C6D7082AD8B4092AD8B40A2AD8B40B2A32
:100BB4000450085CD8A4BFD70550095CD8A4BBD79F
:100BC40006500A5CD8A4B7D707500B5CD8A4B3D797
:100BD4000B6A0A6A096A086A002AD8B4012AD8B4D6
:100BE400022AD8B4032A03AEA6D70E6A0E88FF0CD5
:0C0BF4000E6A0CA001D08EDD000F120074
:100C0000FDEC00F00050000AFBE0000E491802E184
:100C1000800E4818FF0ED8A4000E016E000E1D189D
:100C200002E1400E1C18FF0ED8A4000E006E015009
:100C300000160FE042DC0A0E005C426E000E015806
:100C4000436E52DC0A0E005C466E000E0158476E81
:100C50000ED033DC030E005C426E000E0158436E72
:100C600043DC030E005C466E000E0158476E120016
:100C7000220E0C6E086A096A0A6A0B6A0C06D8B45E
:100C80001FD0D8900B320A320932083203320232B6
:100C900001320032D8A0F2D70C06D8B409D00450E3
:100CA00008260550092206500A2207500B22EAD7CF
:100CB000045008260550092206500A2207500B222C
:020CC000120020
:100CC2004EDE4250005C0001656F43500158666F72
:100CD20016DE4650005C0001676F47500158686F8E
:100CE20065C000F066C001F0000E66BFFF0E026E26
:100CF200036E48C004F049C005F0000E066E076E90
:100D0200B6DF44C004F045C005F0000E066E076E63
:100D12004250045E4350055A000E065A075AC1DE7D
:100D220000C065F001C066F067C000F068C001F065
:100D3200000E000168BFFF0E026E036E1CC004F0BD
:100D42001DC005F0000E066E076E91DF37C004F07D
:100D520038C005F0000E066E076E4650045E47501E
:100D6200055A000E065A075A9CDE1CC004F01DC02C
:100D720005F0000E066E076E0050045E0150055A23
:100D82000250065A0350075A04C067F005C068F0C3
:100D9200800E00016619016E800E015C02E1000EF8
:100DA200655DFF0ED8B0000E016E800E6619006EF2
:100DB200800E4918005C02E14850655D000ED8B013
:100DC200FF0E006E0150001203E0010E646F7ED030
:100DD200800E6819016E800E015C02E1000E675DF3
:100DE200FF0ED8B0000E016E800E6819006E800EE4
:100DF2001D18005C02E11C50675D000ED8B0FF0EAA
:100E0200006E0150001203E0010E646F5FD040508B
:100E1200655D046E41506659056E3E50675D026E17
:100E22003F506859036E65C040F066C041F067C02C
:100E32003EF068C03FF0800E016E800E0518015C26
:100E420002E104500508FF0ED8B0000E016E800EBC
:100E5200006E800E0318005C02E102500508FF0ECE
:100E6200D8B0000E006E00500112800E0518006E00
:100E72007F0E005C02E1FB0E045CFF0ED8B0000E98
:100E8200006E00500112800E0318006E7F0E005C8F
:100E920002E1FB0E025CFF0ED8B0000E006E0150A4
:100EA200001203E0010E646F11D060C0E1FF61C067
:100EB200E2FF65C0E6FF66C0E6FF62C0E1FF63C015
:100EC200E2FF67C0E6FF68C0E6FF646B64C000F043
:020ED20012000C
:100ED400030E0F01386F396B3A6B3B6B030E926E46
:100EE4004FDC0001726B22DC75DC800E726F000E29
:100EF400736F400E746F000E756F766B010E776F13
:0E0F0400ADDC840E726F030E736FA3DC12005F
:100F12008B908B928BEC02F01AC0E1FF1BC0E2FFB8
:100F22004BC0E6FF18C000F019C001F076EC00F0EB
:100F320001504D5C02E100504C5CFF0ED8B0000E37
:100F42000001606F8BEC02F01AC0E1FF1BC0E2FFF0
:100F52004BC0E6FF18C000F019C001F076EC00F0BB
:100F620001504D5C02E100504C5CFF0ED8B0000E07
:0E0F7200026E02500001601760C000F0120015
:100F800061C065F000016551635D0EE360C072F001
:100F900062C073F065C074F064C075F078DC6551B0
:0A0FA000631902E0652BEED7120082
:100FAA000001786B3F0E796F010E7A6F94EC02F0B4
:100FBA00540E606F4F0E616F550E626F430E636F72
:100FCA00480E646F200E656F420E666F4F0E676F94
:100FDA00540E686F540E696F4F0E6A6F4D0E6B6F29
:100FEA00200E6C6F4C0E6D6F450E6E6F460E6F6F56
:100FFA00540E706F716B600E726F000E736F0C0E71
:10100A00746F030E756F010E766FFAEC03F0F3DD61
:10101A00290E0B6E960E0C6E7F0E0D6E0D2EFED7E0
:10102A000C2EFCD70B2EFAD70001786B3F0E796F86
:10103A007A6B94EC02F07F0E786F796B010E7A6FFF
:10104A0094EC02F0200E606F200E616F200E626F2A
:10105A00200E636F200E646F200E656F200E666F80
:10106A00200E676F200E686F200E696F200E6A6F60
:10107A00200E6B6F200E6C6F200E6D6F200E6E6F40
:10108A00200E6F6F200E706F716B600E726F000E04
:10109A00736F0C0E746F030E756F010E766FFAEC98
:1010AA0003F0540E606F4F0E616F550E626F430E60
:1010BA00636F480E646F200E656F550E666F500E93
:1010CA00676F500E686F450E696F520E6A6F200E79
:1010DA006B6F520E6C6F490E6D6F470E6E6F480E36
:1010EA006F6F540E706F716B600E726F000E736FBC
:1010FA000C0E746F040E756F010E766FFAEC03F026
:10110A0094DC290E0B6E960E0C6E7F0E0D6E0D2E54
:0C111A00FED70C2EFCD70B2EFAD71200CB
:1011260060C072F062C073F061C074F064C075F0A4
:1011360047EC04F060C072F062C073F063C074F0F4
:1011460064C075F047EC04F061C072F063C073F0E0
:1011560060C074F064C075F031DC61C072F063C0C9
:0E11660073F062C074F064C075F028DC1200F3
:10117400570E1E6E520E1F6E490E206E540E216EB7
:10118400450E226E236A430E256E4C0E266E450EC6
:10119400276E410E286E520E296E2A6A450E2B6E5A
:1011A400520E2C6E410E2D6E530E2E6E450E2F6E6A
:1011B400306A8EDE726B98EC03F0430E506E410E73
:1011C400516E4C0E526E490E536E420E546E520EB8
:1011D400556E410E566E540E576E490E586E4F0E94
:1011E400596E4E0E5A6E5B6A500E726F000E736F1C
:1011F400200E746F030E756F010E766FFAEC03F018
:10120400290E0B6E960E0C6E7F0E0D6E0D2EFED7F4
:101214000C2EFCD70B2EFAD7726B98EC03F0C3DEBE
:101224000001726B98EC03F0570E506E520E516E23
:10123400490E526E540E536E450E546E200E556E6A
:101244004F0E566E4E0E576E200E586E530E596E3C
:10125400430E5A6E520E5B6E450E5C6E450E5D6E0D
:101264004E0E5E6E5F6A500E726F000E736F140E38
:10127400746F050E756F010E766FFAEC03F0290E8C
:101284000B6E960E0C6E7F0E0D6E0D2EFED70C2E71
:10129400FCD70B2EFAD7726B98EC03F0726B070E27
:1012A400736F746B010E756FE1EC04F0250E726FB1
:1012B400000E736F010E746F756B766BFAEC03F0AE
:1012C400726B070E736F610E746F010E756FE1EC34
:1012D40004F02B0E726F000E736F620E746F756BD9
:1012E400766BFAEC03F0290E606F616B340E626F5B
:1012F400090E636F010E646F14DF2D0E606F030E11
:10130400616F300E626F060E636F010E646F36DE1E
:101314003F0E606F616B460E626F070E636F010EC6
:10132400646FFFDE420E606F030E616F430E626FE7
:10133400040E636F010E646F21DE500E606F616BEB
:10134400560E626F060E636F010E646FEADE530E73
:10135400786F030E796F010E7A6F94EC02F024809B
:10136400010E176ED4DD0050000AD8B41BD2310E22
:10137400606F000E616F330E626F000E636F9FDC4F
:101384000050000AD8A40ED2000E325C02E11F0EF7
:10139400315CFF0ED8B0000E016E000E345C02E129
:1013A400080E335CFF0ED8B0000E006E015000161C
:1013B40071E0726B98EC03F0290E606F616B340E70
:1013C400626F090E636F010E646FABDE2D0E606FEA
:1013D400030E616F300E626F060E636F010E646F51
:1013E400CDDD3F0E606F616B460E626F070E636F5B
:1013F400010E646F96DE420E606F030E616F430E42
:10140400626F040E636F010E646FB8DD500E606F7F
:10141400616B560E626F060E636F010E646F81DEA0
:10142400530E786F030E796F010E7A6F94EC02F00D
:10143400726B070E736F746B010E756FE1EC04F041
:10144400250E726F000E736F010E746F756B766BE1
:10145400FAEC03F0726B070E736F610E746F010E7A
:10146400756FE1EC04F024A00BD02B0E726F000E0C
:10147400736F620E746F756B766BFAEC03F00AD0BF
:101484001E0E726F000E736F620E746F756B766B47
:10149400FAEC03F0000E016E3250015C02E13150AF
:1014A4006008FF0ED8B0000E016E000E345C02E13D
:1014B400080E335CFF0ED8B0000E006E015000160B
:1014C40033E024A019D024901E0E726F000E736FA7
:1014D400620E746F756B766BFAEC03F0150E0B6E7F
:1014E4004B0E0C6EBE0E0D6E0D2EFED70C2EFCD7C1
:1014F4000B2EFAD7000018D024802B0E726F000E2A
:10150400736F620E746F756B766BFAEC03F0150EE5
:101514000B6E4B0E0C6EBE0E0D6E0D2EFED70C2EEA
:10152400FCD70B2EFAD70000000E325C02E1290E24
:10153400315C000ED8B0FF0E016E000E006E32500A
:10154400005C02E131503408000ED8B0FF0E006E8A
:1015540000500116000E006E3450005C02E133505E
:101564000908000ED8B0FF0E006E0150001602E00C
:10157400030E176E000E325C02E13F0E315C000E6A
:10158400D8B0FF0E016E000E006E3250005C02E116
:1015940031504608000ED8B0FF0E006E0050011600
:1015A400000E006E3450005C02E133500708000E58
:1015B400D8B0FF0E006E0150001602E0020E176E46
:1015C400000E325C02E1500E315C000ED8B0FF0E0A
:1015D400016E000E006E3250005C02E1315056087C
:1015E400000ED8B0FF0E006E00500116000E006E03
:1015F4003450005C02E133500608000ED8B0FF0EF0
:10160400006E0150001602E0010E176E000E345CED
:1016140002E10B0E335C01E2A5D61750010A3BE14F
:10162400000E325C02E1000E315C000ED8B0FF0EF9
:10163400016E000E345C02E1000E335C000ED8B083
:10164400FF0E006E00500116000E006E3250005C5A
:1016540002E131507F08000ED8B0FF0E006E00503A
:101664000116000E006E3450005C02E133503F0856
:10167400000ED8B0FF0E006E015000160BE0000102
:1016840031C078F033C079F0000E24B0010E7A6FC7
:1016940094EC02F087D01750020A40E1000E325C4D
:1016A40002E1000E315C000ED8B0FF0E016E000E98
:1016B400345C02E1000E335C000ED8B0FF0E006E05
:1016C40000500116000E006E3250005C02E13150F1
:1016D4007E08000ED8B0FF0E006E00500116000EFA
:1016E400006E3450005C02E133503E08000ED8B066
:1016F400FF0E006E0150001610E0000131C060F0D2
:1017040033C061F03150010F626F3350010F636FCA
:10171400000E24B0010E646F31DC44D01750030A6C
:1017240041E1000E325C02E1010E315C000ED8B0E2
:10173400FF0E016E000E345C02E1010E335C000EFC
:10174400D8B0FF0E006E00500116000E006E32502D
:10175400005C02E131507D08000ED8B0FF0E006E2F
:1017640000500116000E006E3450005C02E133504C
:101774003D08000ED8B0FF0E006E0150001611E0B7
:1017840000013104606F3304616F020E3124626F13
:10179400020E3324636F000E24B0010E646FC0EC9C
:0817A40007F000D0DFD5FFD7EC
:1017AC00000000000000005F0000000700070014AC
:1017BC007F147F14242A7F2A12231308646236496B
:1017CC005522500005030000001C2241000041225C
:1017DC001C00082A1C2A0808083E08080050300083
:1017EC000008080808080030300000201008040227
:1017FC003E5149453E00427F4000426151494621DD
:10180C0041454B311814127F1027454545393C4A48
:10181C004949300171090503364949493606494998
:10182C00291E00363600000056360000000814222F
:10183C004114141414144122140800020151090615
:10184C00324979413E7E1111117E7F494949363E1C
:10185C00414141227F4141221C7F494949417F0935
:10186C000901013E414151327F0808087F00417F48
:10187C0041002040413F017F081422417F404040FD
:10188C00407F0204027F7F0408107F3E4141413EAD
:10189C007F090909063E4151215E7F0919294646F7
:1018AC004949493101017F01013F4040403F1F2020
:1018BC0040201F7F2018207F6314081463030478D2
:1018CC000403615149454300007F41410204081063
:1018DC002041417F0000040201020440404040408E
:1018EC00000102040020545454787F484444383892
:1018FC0044444420384444487F3854545418087E97
:10190C00090102081454543C7F0804047800447DF7
:10191C0040002040443D00007F10284400417F409F
:10192C00007C041804787C08040478384444443857
:10193C007C14141408081414187C7C08040408483B
:10194C0054545420043F4440203C4040207C1C20F4
:10195C0040201C3C4030403C44281028440C505043
:10196C00503C4464544C44000836410000007F0055
:10197C0000004136080008082A1C08081C2A080820
:020000040030CA
:0D000100331F3CFFBD81FF0FC00FE00F401B
:00000001FF
