:0400000016EF0BF0FC
:1000080000C01AF001C019F002C018F003C017F0C0
:1000180004C016F005C015F0E1CF21F0E2CF22F0C0
:10002800E9CF1FF0EACF20F0F5CF1EF0F8CF1BF094
:10003800F7CF1CF0F6CF1DF07DEC0AF01EC0F5FFDF
:100048001BC0F8FF1CC0F7FF1DC0F6FF1AC000F068
:1000580019C001F018C002F017C003F016C004F070
:1000680015C005F01FC0E9FF20C0EAFF21C0E1FF6D
:0600780022C0E2FF1100AE
:10007E00000E056E040E066E88C003F0000E046EB0
:10008E0003360436039003360436039089C000F01D
:10009E00000E016E0036013600900050032601500E
:1000AE00042203C001F004C002F0013601900236B2
:1000BE0001360190023601C003F002C004F0043292
:1000CE000332049E04BC048E04320332049E04BC2C
:1000DE00048E03C000F004C001F00036009001361B
:1000EE00003600900136055000260650012200C051
:1000FE0005F001C006F000C0E1FF01C0E2FFE69E80
:10010E0000018951000A12E188C000F0000E016E54
:10011E000036009001362E0E0024E16E000E0120F6
:10012E00E26E05C0E6FF06C0E6FF11D088C000F003
:10013E00000E016E003600900136480E0024E16E6E
:10014E00000E0120E26E05C0E6FF06C0E6FF05C008
:10015E00E1FF06C0E2FFE69C040E0524E16E000EF0
:08016E000620E26EE68C12008F
:0E017600800E00018811006E00C058F01200CB
:1001840088C055F089C056F08AC059F08BC05AF027
:10019400800E00018C11006E008000C058F0120027
:1001A40088C055F089C056F08AC057F08BC059F00A
:1001B4008CC05AF0800E00018D11006E00C058F002
:0201C400120027
:1001C60020C401F01F0E01160150010A01E08BD078
:1001D60004012451000A01E086D02151060A38E1C3
:1001E6002DD04450010A13E1CA0E0001886F160E85
:1001F600896F000E8A6F120E8827000E89238A23C4
:10020600090E8B6F000E8C6F400E8D6FC8DF20D0ED
:100216004450010A0EE10001F30E886F160E896F35
:10022600000E8A6F210E8B6F000E8C6F400E8D6F45
:10023600B6DF0ED00001886B9BDF0AD00401235184
:10024600210ACFE02351220AE3E02351230AF2E0F8
:1002560020C401F0600E0116050E006E005004E089
:100266000132019EFF0FFBD70150010A01E03BD08E
:1002760027D039D038D0600E0001886F000E896F04
:10028600010E8A6F000E8B6F400E8C6F78DF2BD0BD
:100296000001886B6DDF23C460F025D00001690E74
:1002A600886F000E896F010E8A6F000E8B6F8C6B44
:1002B60066DF19D00001886B5BDF22C469F013D0BA
:1002C60004012151010AD5E02151090AD3E0215147
:1002D600020AD1E021510A0ADBE02151030ADEE0DD
:0802E60021510B0AE7E01200B0
:1002EE00700EE16E0F0EE26E00018351E126D8B062
:1002FE00E22A84C0E6FF84A504D083C088F0896B0F
:10030E00B7DE84A305D083C088F0010E896FB0DEFE
:02031E001200CB
:1003200000018451000A12E083C000F0000E016E4B
:10033000003600900136480E0024E96E000E0120C0
:10034000EA6EEECF04F0EECF05F011D083C000F0DE
:10035000000E016E0036009001362E0E0024E96E6C
:10036000000E0120EA6EEECF04F0EECF05F0020E93
:100370000424E16E000E0520E26E85C0E6FF86C013
:10038000E6FF010E0424E16E000E0520E26E87C038
:10039000E6FF04C0E9FF05C0EAFFEECF00F004C0AD
:1003A000E1FF05C0E2FF400E0014E66E04C0E9FF65
:1003B00005C0EAFFEECF00F004C0E1FF05C0E2FF98
:1003C000880E0010E66E8451000A1BE083C000F026
:1003D000000E016E003600900136480E0024026EB9
:1003E000000E0120036E02C0E9FF03C0EAFF040E05
:1003F000EE18006E02C0E1FF03C0E2FF00C0E6FF9E
:100400001AD083C000F0000E016E00360090013655
:100410002E0E0024026E000E0120036E02C0E9FFC2
:1004200003C0EAFF040EEE18006E02C0E1FF03C035
:10043000E2FF00C0E6FF04C000F005C001F01200BA
:10044000235215E0010E0001836F1E0E846F4FDFF3
:10045000010E836F846B29C085F02AC086F0400EA0
:10046000876F5EDF00C046F001C047F014D0000186
:10047000010E836F1E0E846F3ADF010E836F846B53
:1004800029C085F02AC086F0400E876F49DF00C082
:0804900046F001C047F0120024
:08049800235201E094DE120082
:1004A0007DC002F07EC003F080C000F081C001F08A
:1004B000010E0001805F000E815B0050011009E019
:1004C00002C0E1FF03C0E2FF7FC0E6FF024A032A49
:0404D000EBD7120054
:1004D4000CD0B4DF3CD03BD0DDDF39D038D037D0BE
:1004E40036D035D0000033D032D0000E00017E1952
:1004F40002E1010E7D19EDE0000E7E1902E1020E0B
:100504007D19E9E0000E7E1902E1030E7D19E4E095
:100514007E51000A02E1730E7D19E0E07E51000A6B
:1005240002E1750E7D19DBE07E51000A02E1740ED2
:100534007D19D6E07E513F0A02E1FF0E7D19D1E01C
:100544007E51000A02E1720E7D19CCE0CDD7010E76
:04055400006E120023
:100558000B6A0A6A096A00500402F4CF09F0F3CF63
:1005680008F001500502F4CF0BF0F3CF0AF0005069
:100578000502F3500926F4500A22E86A0B220150BA
:100588000402F3500926F4500A22E86A0B2208C034
:1005980000F009C001F00AC002F00BC003F012001D
:1005A800F250026EF29E0500FF6A0150FE6E005086
:0805B800FD6E02BEF28E12007E
:1005C00004012051800AD8A471D0C00E586E64D0A6
:1005D000370E006E170E016E000E026E00C055F051
:1005E00001C056F002C057F0120E596E000E5A6E3E
:1005F0005DD0030E006E000E016E22C404F0000EEA
:10060000056EAADF3E0E0024E96E000E0120EA6EA0
:10061000EECF55F0EECF56F0EECF57F0020E552448
:10062000F66E000E5620F76E000E5720F86E090089
:10063000F5CF00F00900F5CF01F000C059F001C07E
:100640005AF034D0030E225D23E2030E006E000E3A
:10065000016E22C404F0000E056E7EDF320E00240F
:10066000E96E000E0120EA6EEECF55F0EECF56F0A7
:10067000EECF57F055C0F6FF56C0F7FF57C0F8FF52
:100680000900F5CF00F000C059F0000E5A6E01D0FD
:10069000586A0CD0586A0AD02351010A99E02351B4
:0E06A000020AA7E02351030ACDE0F4D71200AE
:1006AE00588E710E00017D6F0F0E7E6F7F6B010EE7
:1006BE00806F000E816FEDDE5D0E7D6F000E7E6F22
:1006CE007F6B010E806F000E816FE3DE22C444F05B
:1006DE004450000A03E1100E456E0FD0200E456EF9
:1006EE00010E7D6F000E7E6F440E7F6F000E806FC9
:0C06FE00010E816F000E826FE6DE12001C
:10070A00000E5A5C02E1080E595C10E259C003F06F
:10071A005AC004F02450000A03E1010E246E05D0E9
:10072A002450010A02E1020E246E04D0080E036E60
:10073A00000E046E48C0E1FF49C0E2FFE69248C0DD
:10074A00E1FF49C0E2FFE69048C0E9FF49C0EAFF7D
:10075A00EECF00F048C0E1FF49C0E2FF04500010AC
:10076A00E66E010E4824E16E000E4920E26E03C0D7
:10077A00E6FF0350595C006E04505A58016E00C0DF
:10078A0059F001C05AF0280E2C6E040E2D6E58B086
:10079A002FD0035004102BE055C0F6FF56C0F7FFC8
:1007AA0057C0F8FF0900F5CF00F02CC0E1FF2DC0BB
:1007BA00E2FF00C0E6FF2C4A2D2A010E5524006EE6
:1007CA00000E5620016E000E5720026E00C055F032
:1007DA0001C056F002C057F0010E035C006E000E15
:1007EA000458016E00C003F001C004F0D2D724D02F
:1007FA000350041021E055C0E9FF56C0EAFF2CC09F
:10080A00E1FF2DC0E2FFEECFE6FF2C4A2D2A010EB2
:10081A005524006E000E5620016E00C055F001C02E
:10082A0056F0010E035C006E000E0458016E00C003
:0A083A0003F001C004F0DCD7120047
:1008440004012251010A0FE120C401F01F0E011618
:100854000150000A08E1588E2151030A03E1010EF8
:100864002B6E01D02B6A2251000AD8A489D020C44F
:1008740001F01F0E01160150020AD8A481D024C42D
:1008840001F00F0E01160150000AD8B479D0588E29
:1008940024BF16D024C403F00F0E031603C000F0C7
:1008A400000E016E0036009001362E0E0024E96E13
:1008B400000E0120EA6EEECF04F0EECF05F015D065
:1008C40024C403F00F0E031603C000F0000E016EE3
:1008D400003600900136480E0024E96E000E012017
:1008E400EA6EEECF04F0EECF05F02151030A07E1E2
:1008F40004C0E1FF05C0E2FF840EE66E41D024C4CB
:1009040000F00F0E0016700E026E0F0E036E0050F4
:100914000226D8B0032A02C0E9FF03C0EAFFEECFE3
:1009240000F0EECF01F0009002C0E1FF03C0E2FF4F
:1009340000C0E6FF01C0E6FF24AF11D004C0E1FF10
:1009440005C0E2FFE66A040E0418006E00C004F05D
:1009540004C0E1FF05C0E2FF400EE66E11D004C002
:10096400E1FF05C0E2FF880EE66E040E0418006E77
:1009740000C004F004C0E1FF05C0E2FFC80EE66E4B
:0209840012005F
:100986000401286B296B42D0588E28812B50010A0E
:10099600D8B4288350D0588E4ED0588E24BF16D047
:1009A60024C403F00F0E031603C000F0000E016E00
:1009B6000036009001362E0E0024E96E000E01204E
:1009C600EA6EEECF04F0EECF05F015D024C403F0A6
:1009D6000F0E031603C000F0000E016E00360090E5
:1009E6000136480E0024E96E000E0120EA6EEECFB5
:1009F60004F0EECF05F004C0E9FF05C0EAFFEECF34
:100A060001F001A402D0010E286F15D020C401F018
:100A16001F0E01160150000AB7E020C401F01F0E98
:100A260001160150010AB7E020C401F01F0E01169D
:100A36000150020AB2E058AE07D0280E556E040ED9
:0A0A4600566E5880020E596E120021
:100A50005E6A48C0E1FF49C0E2FFE66A040E48183A
:100A6000E16E49C0E2FF000EE21AE66A4EAE13D014
:100A7000000E006E541808E10050531805E10050B4
:100A8000521802E15150000A05E051C000F052C076
:080A900001F08ADD4E9E120008
:100A9800010E00016325E96E000E6421EA6EEECFB7
:100AA80000F000C07BF0000E505C02E17B514F5C0F
:100AB80003E24FC07BF00AD07B514F5C006E000E02
:100AC8005058016E00C04FF001C050F07C6B7B5154
:100AD8007C5D1CE2280EE96E040EEA6E7C51E92664
:100AE800D8B0EA2AEECF00F04CC0E1FF4DC0E2FFDB
:100AF80000C0E6FF010E4C24006E000E4D20016E72
:100B080000C04CF001C04DF07C2BE1D7000E006E08
:100B18005050005C02E14F50000828E2010E5B24AF
:100B2800E16E000E5C20E26E080EE66E020E5B249B
:100B3800E16E000E5C20E26E280EE66E040EE66E94
:100B480063C0E9FF64C0EAFFEECF00F000BC07D045
:100B58005BC0E1FF5CC0E2FFC80EE66E06D05BC07A
:100B6800E1FF5CC0E2FF880EE66E2BD0010E5B242D
:100B7800E16E000E5C20E26E080EE66E020E5B244B
:100B8800E16E000E5C20E26E200EE66E040EE66E4C
:100B98005BC0E1FF5CC0E2FF840EE66E000E006EF3
:100BA800541808E10050531805E10050521802E1AA
:100BB8005150000A05E051C000F052C001F0F0DCCD
:040BC8004E9E12002B
:100BCC0020C401F0600E0116050E006E005004E00A
:100BDC000132019EFF0FFBD70150000A01E062D0E9
:100BEC003ED0588E080E456E5DD0E4DC5BD059DDEE
:100BFC0059D0440E556E000E566E5880010E596E2B
:100C0C00588E50D0BADE4ED017DE4CD05D0E006E32
:100C1C00000E016E24510026D8B0012A00C055F0F8
:100C2C0001C056F05880010E596E588E3BD0588E2C
:100C3C005D0EE16E000EE26E2451E126D8B0E22A80
:100C4C0022C4E6FF2FD0020E00017D6F000E7E6FD6
:100C5C007F6B806B816B826B37DC24D023D00401DB
:100C6C002151050ABEE02151060ABFE02151090AB3
:100C7C00BEE02151080ABDE02151000AC3E0215118
:100C8C00010AC2E02151030ABFE021510A0ABEE069
:100C9C0021510B0ACCE02151070AD5E021510C0A55
:060CAC00DDE0DCD71200C0
:100CB2006D9858BE49D04EAE28D0020E5E6E010E1F
:100CC2004824E16E000E4920E26EE66A48C0E1FF68
:100CD20049C0E2FFC80EE66E010E5B24E16E000E13
:100CE2005C20E26E080EE66E020E5B24E16E000EE0
:100CF2005C20E26E280EE66E040EE66E5BC0E1FF3B
:100D02005CC0E2FFC80EE66E1ED0010E5B24E16EEF
:100D1200000E5C20E26E080EE66E020E5B24E16EAF
:100D2200000E5C20E26E200EE66E040EE66E5BC0E4
:100D3200E1FF5CC0E2FF8C0EE66E48C0E1FF49C0F5
:100D4200E2FF840EE66E7ED04EBE7CD0040120AF60
:100D520052D05A50275D02E15950265D04E226C462
:100D620059F027C45AF0D0DC010E5E6E010E5B24EE
:100D7200E16E000E5C20E26E080EE66E020E5B244F
:100D8200E16E000E5C20E26E200EE66E040EE66E50
:100D92005BC0E1FF5CC0E2FF800EE66E5F6A010E9F
:100DA20000016325E16E000E6421E26E080EE66E1C
:100DB200020E6325E16E000E6421E26E200EE66EE5
:100DC200040EE66E63C0E1FF64C0E2FF840EE66ECD
:100DD200010E5F6E020E4824E16E000E4920E26EA3
:100DE200280EE66E040EE66E48C0E1FF49C0E2FF3F
:100DF200C80EE66E27D0020E5E6E010E4824E16E2A
:100E0200000E4920E26EE66A48C0E1FF49C0E2FFF7
:100E1200C80EE66E010E5B24E16E000E5C20E26EEF
:100E2200080EE66E020E5B24E16E000E5C20E26E9E
:100E3200280EE66E040EE66E5BC0E1FF5CC0E2FFC8
:060E4200C80EE66E12006E
:100E48005E50020A02E124DE1ED0FEDD5F50000A79
:100E580019E1010E5B24E16E000E5C20E26E080EC3
:100E6800E66E020E5B24E16E000E5C20E26E200E40
:100E7800E66E040EE66E5BC0E1FF5CC0E2FF8C0E1E
:080E8800E66E01D05F6A120062
:100E900000017451000A12E073C000F0000E016EF0
:100EA000003600900136480E0024E96E000E012045
:100EB000EA6EEECF04F0EECF05F011D073C000F073
:100EC000000E016E0036009001362E0E0024E96EF1
:100ED000000E0120EA6EEECF04F0EECF05F0020E18
:100EE0000424E16E000E0520E26E75C0E6FF76C0B8
:100EF000E6FF010E0424E16E000E0520E26E77C0CD
:100F0000E6FF04C0E9FF05C0EAFFEECF00F004C031
:100F1000E1FF05C0E2FF400E0014E66E04C0E9FFE9
:100F200005C0EAFFEECF00F004C0E1FF05C0E2FF1C
:100F3000880E0010E66E7451000A1BE073C000F0CA
:100F4000000E016E003600900136480E0024026E3D
:100F5000000E0120036E02C0E9FF03C0EAFF040E89
:100F6000EE18006E02C0E1FF03C0E2FF00C0E6FF22
:100F70001AD073C000F0000E016E003600900136EA
:100F80002E0E0024026E000E0120036E02C0E9FF47
:100F900003C0EAFF040EEE18006E02C0E1FF03C0BA
:100FA000E2FF00C0E6FF04C000F005C001F012003F
:100FB000000E0001741902E1000E731902E1016ACA
:100FC00009D073C0E9FF74C0EAFFEECF00F0016AF8
:0A0FD00000BE012A01C000F012006B
:0E0FDA00160E6F6E9F0E6B6E7B0E696E120010
:100FE800CA0E3E6E160E3F6E000E406E490E326EF1
:100FF800170E336E000E346E150E356E170E366EE4
:10100800000E376E9A0E386E160E396E000E3A6E56
:021018001200C4
:0A101A00D08EA28AA08AF28E120086
:1010240073C002F074C003F076C000F077C001F022
:10103400010E0001765F000E775B0050011009E09D
:1010440002C0E1FF03C0E2FF75C0E6FF024A032AC3
:04105400EBD71200C4
:1010580048C0E9FF49C0EAFFEECF00F000AE05D076
:1010680048C0E1FF49C0E2FFE66A246A5E6A596A3D
:101078005A6A586AA7DD030E00017D6F000E7E6F65
:101088007F6B806B816B826B6AEC02F00EDE120064
:1010980048C0E9FF49C0EAFFEECF00F0000E00BCEF
:1010A800010E00017A6F040E4818006E00C048F067
:1010B8004550080A0AE122C46EFF6E50000803E298
:1010C800100E456E02D0040E456E5E50010A2CE1EA
:1010D800020E4824E16E000E4920E26E280E006ED2
:1010E800040E016E00C0E6FF01C0E6FF85EC03F0C8
:1010F8002450020A07E148C0E1FF49C0E2FF840E1C
:10110800E66E11D000017A51000A07E148C0E1FFFC
:1011180049C0E2FFC80EE66E06D048C0E1FF49C0EC
:0C112800E2FF880EE66E01D08FDC1200A2
:101134004550000A0AE16D6A696A4DDF6CDF6DB6DD
:0C11440002D06D86FCD7010E456E120033
:10115000740E00017D6F000E7E6F7F6B806B816B64
:10116000826B6AEC02F06D92699468A403D0FB0E66
:061170006816FBD7120017
:10117600200E455C03E36DB201D002D0006A23D095
:1011860046C073F047C074F010DF00521BE1010E39
:101196004624E96E000E4720EA6EEECF00F000C04E
:1011A60072F071C073F0746B6EC075F06FC076F03C
:1011B60070C077F06ADE00C046F001C047F072C02A
:0811C60000F001D0006A1200E4
:1011CE000CDF466A476A256A266A6A6A686AFEDE24
:1011DE006D8C6E6A710E0001736F0F0E746F756BEE
:1011EE00010E766F000E776F16DF6D9C6E6B080E1C
:1011FE006E5D16E26EC000F0000E016E00360090BD
:10120E000136003600900136000E0024E16E040E09
:10121E000120E26EE66AE66AE66AE66A6E2BE7D7B8
:10122E00160E706E68A603D0F70E6816FBD7586AB6
:10123E004E6A4F6A506A6D98080E486E040E496EDB
:06124E00446A456A12002B
:10125400200E455C03E36DB201D002D0006A33D0A6
:1012640025C073F026C074F0A1DE00522BE171C0DA
:1012740073F0010E746F6EC075F06FC076F070C0BD
:1012840077F004DE00C025F001C026F0656B666BC4
:10129400676B686B25C073F026C074F087DE00525C
:1012A40008E0655166116711681102E0006A0BD00D
:1012B400F1D7010E2524E96E000E2620EA6EEECF4A
:0812C40000F001D0006A1200E5
:0412CC00A19A1200D1
:1012D0006984EF0E68166D82750E00017D6F000E39
:1012E0007E6F7F6B806B816B826B6AEC02F0120009
:1012F0007BDE466A476A256A266A6A6A686A6DDE24
:101300006D8C6E6A710E00017D6F0F0E7E6F7F6BAC
:10131000010E806F000E816F50EC02F06D9C796BB6
:10132000080E795D16E279C000F0000E016E0036FD
:1013300000900136003600900136000E0024E16E68
:10134000040E0120E26EE66AE66AE66AE66A792B36
:10135000E7D7160E706E68A603D0F70E6816FBD797
:10136000586A4E6A4F6A506A6D98080E486E040EAD
:08137000496E446A456A12004F
:10137800FD0E2814016E026AFF0E0216000E0218F6
:1013880002E1000E01186CE17E0E2814016E01C006
:1013980003F00332039E03C000F0000E016E003616
:1013A80000900136003600900136000E0024026ECF
:1013B800040E0120036E02C063F003C064F002C093
:1013C8005BF003C05CF0040E5B18006E00C05BF0BD
:1013D80002C0E9FF03C0EAFFEECF00F000C001F051
:1013E8003C0E01160132019E0132019E01500D0A88
:1013F80035E1020E00016325E96E000E6421EA6EF4
:10140800EECF01F0EECF02F00250040A02E1280EFE
:10141800011822E1020E6325E16E000E6421E26EDE
:10142800200EE66E040EE66E796B080E795D14E206
:10143800200EE16E040EE26E7951E126D8B0E22A60
:10144800280EE96E040EEA6E7951E926D8B0EA2A28
:10145800EECFE6FF792BE9D7FBDD01D0F1DC0DD02B
:10146800FD0E2814016E026AFF0E0216000E021805
:0C14780002E1040E011801E10BDE12007D
:1014840070A019D063C0E9FF64C0EAFFEECF01F099
:101494000150800A0FE148C0E9FF49C0EAFFEECFDE
:1014A40001F00150840A06E163C0E1FF64C0E2FF79
:0C14B4008C0EE66E7090DF0E68161200C1
:1014C0006AC06EF06BC06FF06CC070F0010E00016E
:0614D000716FC0DE120086
:1014D600010E236E6AC029F06BC02AF06CC061F061
:1014E6006DC062F071DE010E016E0150010A01E16C
:0414F6001EDE1200E4
:1014FA004550010A07E16DBA05D0686A69806988B2
:10150A00020E456E68A405D069A403D0FB0E6816C6
:10151A001ADE6DA202D0D5DE78D068A018D069A0F4
:10152A0016D0E1DE040E456E200E0401026F040E91
:10153A00036F080E016F000E0015006E00C000F464
:10154A008C0E0011006E00C000F4FE0E681668A82A
:10155A0005D069A803D0B7DEEF0E681668AC11D0C3
:10156A0069AC0FD0730E00017D6F000E7E6F7F6B2A
:10157A00806B010E816F000E826F6AEC02F0BF0E63
:10158A00681668AA03D069AA01D077DF68A210D0CA
:10159A0069A20ED0FF0E00017D6F3F0E7E6F7F6B3A
:1015AA00806B010E816F000E826F6AEC02F06A6A2C
:1015BA00040E455C02E285DE28D069A625D000012A
:1015CA00786B040E785D20E268A61AD06CCF28F0FA
:1015DA00F70E6816780E2814016E0150000A02E10F
:1015EA00C6DE0DD0720E00017D6F000E7E6F280ED2
:1015FA007F6F000E806F816B826B6AEC02F001D004
:0C160A0003D00001782BDDD75CDE12005D
:1016160029C06EF02AC06FF0400E0001706F010EF7
:06162600716FA6DD120049
:10162C000F0EC112070EB412000E00016A6F050EE8
:10163C006B6F400E6C6F050E6D6F47DFE6DF005071
:10164C00000AFCE0276A400EE16E050EE26E2750A0
:10165C00E126D8B0E22A000EE96E050EEA6E27509C
:10166C00E926D8B0EA2AEECFE6FF27503F0A02E07F
:10167C00272AE9D7400E00016A6F050E6B6F400EEA
:0E168C006C6F18DF0050000AF5E0D8D7FFD7CA
:10169A00200355005300420020004800490044003E
:1016AA0020004C006900620072006100720079003B
:1016BA000000000000000000000000000000000020
:1016CA000902290001010080320904000002030016
:1016DA0000000921010100012221000705810340C0
:0916EA00000107050103400001A5
:1016F3000600FF0901A10119012940150026FF0079
:101703007508954081021901294075089540910299
:02171300C00014
:1017150022034D0069006B0072006F0065006C00CC
:1017250065006B00740072006F006E0069006B004D
:02173500610051
:10173700120100020000000834120100010001023A
:0217470000019F
:041749000403090488
:020000040030CA
:0E000000210E2E1EFF8181FF0FC00FE00F406A
:00000001FF
