:1000000027EF07F00000000000EF00F00000000004
:0A0010000000000000000000F3D71C
:0C001C001A0E0D6E0D2EFED70000120013
:0C0028003A0E0D6E0D2EFED700001200E7
:0C003400020E0D6E0D2EFED70000120013
:0A004000EDDF8A88EBDF8A981200DA
:10004A00C30EC2167AC000F0003600900036009047
:10005A000050C212E4DFC282C2A202D00000FCD762
:10006A00C4CF01F0006A00C07BF001C07CF0C3502D
:10007A0000017B13000E7C137BC000F07CC001F0F2
:02008A00120062
:0E008C008A988A848A967AC083FFD4DF120095
:10009A008A948A96B80E00017A11836ECCDF120018
:1000AA007F0E00017A15016E01C07AF001AC03D00F
:0C00BA008A808A9202D08A908A8212000A
:1000C600800E006E000E016E830E002400017B6F11
:1000D6000F0E01207C6F7BC0E1FF7CC0E2FFFF0EAC
:1000E600E66EA5DFA4DF8A848A988A86120E006EE1
:1000F600000E016E830E00247B6F0F0E01207C6FB5
:100106007BC0E1FF7CC0E2FFFF0EE66E8A8883DFDC
:1001160083CF7AF08A988A96120E006E000E016ED0
:10012600830E00247B6F0F0E01207C6F7BC0E1FFE6
:0C0136007CC0E2FFE66A7AC000F0120014
:100142007F0E00017A15006E00C07AF08A948A96BA
:10015200BF0E001600C07AF0008C00C07AF000C01A
:0601620083FF6DDF1200B7
:100168000450085E0550D8A0053C095E0650D8A08A
:10017800063C0A5E0750D8A0073C0B5E0336070E04
:100188000C6E0334083609360A360B36045003A0C1
:100198000ED0085E0550D8A0053C095E0650D8A0D0
:1001A800063C0A5E0750D8A0073C0B5E0DD0082617
:1001B8000550D8B0053C09260650D8B0063C0A269A
:1001C8000750D8B0073C0B2603360C2EDAD702347A
:1001D800083609360A360B36045003A00ED0085EDE
:1001E8000550D8A0053C095E0650D8A0063C0A5E1A
:1001F8000750D8A0073C0B5E0DD008260550D8B094
:10020800053C09260650D8B0063C0A260750D8B047
:10021800073C0B260236070E0C6E023408360936E8
:100228000A360B36045002A00ED0085E0550D8A03E
:10023800053C095E0650D8A0063C0A5E0750D8A0C7
:10024800073C0B5E0DD008260550D8B0053C0926A2
:100258000650D8B0063C0A260750D8B0073C0B26F3
:1002680002360C2EDAD70134083609360A360B3630
:10027800045002A00ED0085E0550D8A0053C095EC7
:100288000650D8A0063C0A5E0750D8A0073C0B5E73
:100298000DD008260550D8B0053C09260650D8B020
:1002A800063C0A260750D8B0073C0B260136070E35
:1002B8000C6E0134083609360A360B36045001A094
:1002C8000ED0085E0550D8A0053C095E0650D8A09F
:1002D800063C0A5E0750D8A0073C0B5E0DD00826E6
:1002E8000550D8B0053C09260650D8B0063C0A2669
:1002F8000750D8B0073C0B2601360C2EDAD700344D
:10030800083609360A360B36045001A00ED0085EAE
:100318000550D8A0053C095E0650D8A0063C0A5EE8
:100328000750D8A0073C0B5E0DD008260550D8B062
:10033800053C09260650D8B0063C0A260750D8B016
:10034800073C0B260036070E0C6E003408360936BB
:100358000A360B36045000A00ED0085E0550D8A00F
:10036800053C095E0650D8A0063C0A5E0750D8A096
:10037800073C0B5E0DD008260550D8B0053C092671
:100388000650D8B0063C0A260750D8B0073C0B26C2
:1003980000360C2EDAD700B00ED0045008260550CF
:1003A800D8B0053C09260650D8B0063C0A260750A6
:0803B800D8B0073C0B2612002F
:1003C000F250026EF29E0500FF6A0150FE6E005070
:0803D000FD6E02BEF28E120068
:1003D800340E0C6EF10E0D6E0D2EFED70C2EFCD7C2
:0603E800000000001200FD
:1003EE000B6A0A6A096A00500402F4CF09F0F3CFCF
:1003FE0008F001500502F4CF0BF0F3CF0AF00050D5
:10040E000502F3500926F4500A22E86A0B22015025
:10041E000402F3500926F4500A22E86A0B2208C09F
:10042E0000F009C001F00AC002F00BC003F0120088
:10043E00000E0001745DFF0ED8B0000E016E7451F7
:10044E007F08FF0ED8B0000E006E00500112000E95
:10045E00755DFF0ED8B0000E006E00500112755182
:10046E003F08FF0ED8B0000E006E0150001201E0E2
:10047E004BD074C07AF012DE75C07AF07A337A9F60
:10048E007A337A9F7A337A9F01DE74C07AF052DE25
:10049E0013DE00C078F010DE00C078F075C07AF080
:1004AE007A337A9F7A337A9F7A337A9FEFDD74C0EC
:1004BE007AF040DE070E7515006E00C077F000C0B2
:1004CE0001F0010E006E015004E000360090FF0FA7
:1004DE00FBD700C077F0001C796F7651000A03E15C
:1004EE00795178170ED07651010A03E177517813BE
:1004FE0008D07651020A03E17751781B02D077516A
:0A050E00781378C07AF0BBDD12000C
:100518000B1E0A1E091E081E082AD8B4092AD8B4B8
:080528000A2AD8B40B2A1200C4
:10053000060E0C6E2B0E0D6E0D2EFED70C2EFCD75C
:020540001200A7
:100542008B908B82000E4B1802E1800E4A18FF0E30
:10055200D8A4000E016E000E4F1802E1400E4E1894
:10056200FF0ED8A4000E006E0150001602E0DFDF7D
:1005720001D031DF36C0E1FF37C0E2FF4DC0E6FFF8
:1005820034C000F035C001F01ADF00C069F001C0CC
:0C0592006AF069C000F06AC001F01200BD
:10059E004A0E346E000E356E7A0E366E000E376EC3
:0C05AE00C26A070EC012C08EC28012008C
:1005BA0000016B51070801E285D02050695D006E89
:1005CA0021C001F0000E015627C004F0000E056E8E
:1005DA0009DF00C071F001C072F06AC07AF0ACDDC8
:1005EA006BC07AF055DD6D6B2704736F6D51735DC7
:1005FA004BE36A517F0801E265D06AC07AF050DDA8
:10060A006BC07AF045DD6AC07AF096DD57DD00C02E
:10061A006EF054DD00C06EF06AC07AF041DD6BC046
:10062A007AF036DD6AC07AF087DD71513E24F66EC3
:10063A0072513F20F76E000E72BFFF0E4020F86E17
:10064A000900F5CF00F000C06FF0714B722B001C4F
:10065A00706F6C51000A03E170C06EF00CD06C51DF
:10066A00010A03E16FC06EF006D06C51020A03E181
:10067A006F516E1B00D06EC07AF003DD6A2B6D518C
:10068A00731902E06D2BB0D76AC07AF009DD6BC02E
:10069A007AF0FEDC6AC07AF04FDDFF0E6F6F706B86
:1006AA006C51000A06E16FC06EF06FC07AF0E9DCA7
:1006BA0009D06C51010A06E170C06EF070C07AF080
:0606CA00E0DC00D012008C
:0A06D00069C01EF06AC01FF012009E
:1006DA002C6A476A486A496A939A939893949396BC
:1006EA00939093928A9A120E006E000E016E830EF8
:1006FA000024E16E0F0E0120E26EE66A8A948A9661
:10070A008A908A828A8A3F0E836E95DCC00E836E37
:10071A0092DC8A808A923F0E836E8DDCC00E836ED5
:04072A008ADC120053
:10072E00000E00016B5DFF0ED8B0000E016E6B5116
:10073E007F08FF0ED8B0000E006E0150001201E0CF
:10074E0027D0000E695DD8A0696B69513F0802E29F
:10075E003F0E696F000E6A5DD8A06A6B6A513F0842
:10076E0002E23F0E6A6F69516A5D06E269C06DF082
:10077E006AC069F06DC06AF069516A5D09E36BC0C9
:10078E0074F069C075F06CC076F052DE692BF4D748
:02079E00120047
:1007A0008A908A8200016B6B6BC07AF076DC6A6B90
:1007B00069C07AF06BDC6A513F0A02E06A2BF8D715
:1007C0006B51070A02E06B2BEFD78A928A806B6B22
:1007D0006BC07AF062DC6A6B69C07AF057DC6A51F0
:1007E0003F0A02E06A2BF8D76B51070A02E06B2B35
:0407F000EFD712002D
:1007F4008B808B929BDE000E4B1802E1800E4A1810
:10080400FF0ED8A4000E016E000E4F1802E1400E38
:100814004E18FF0ED8A4000E006E0150001602E020
:1008240085DE01D0D7DD36C0E1FF37C0E2FF26C048
:10083400E6FF34C000F035C001F0C0DD00C069F04F
:0E08440001C06AF069C000F06AC001F0120045
:1008520094909492840E1E6E030E1F6E69C04AF02D
:100862006AC04BF06BC04EF06CC04FF06DC026F00A
:0E0872006EC04DF0226A236A246A256A1200C5
:100880000450000A12E10550000A0FE10650000A68
:100890000CE10750000A09E1FF0E006EFF0E016E29
:1008A000FF0E026E7F0E036E97D00C6A07BE0C2AF5
:1008B0000D6A0B6A0A6A096A086A0350021001107D
:1008C0000010D8B484D0035007180E6E0EBE0D1E53
:1008D00007AE0BD0041E051E061E071E042AD8B440
:1008E000052AD8B4062AD8B4072A03AE0BD0001EB6
:1008F000011E021E031E002AD8B4012AD8B4022AFF
:10090000D8B4032A035007100E6E0EBE1CD02CDC88
:100910000CBE36D00DAE5BD0001E011E021E031EA3
:10092000002AD8B4012AD8B4022AD8B4032A081E4F
:10093000091E0A1E0B1E082AD8B4092AD8B40A2A8E
:10094000D8B40B2A44D007AE15D003BE0DD0035047
:100950000B6E02500A6E0150096E0050086E036A59
:10096000026A016A006AD6D7036A026A016A006AEB
:10097000002A000C031E021E011E001E0C8EC7D78B
:10098000082AD8B4092AD8B40A2AD8B40B2A0450A1
:10099000085CD8A4BFD70550095CD8A4BBD70650C3
:1009A0000A5CD8A4B7D707500B5CD8A4B3D70B6A9E
:1009B0000A6A096A086A002AD8B4012AD8B4022A45
:1009C000D8B4032A03AEA6D70E6A0E88FF0C0E6AAF
:0A09D0000CA001D0A1DD000F120001
:1009DA00000E00016B5DFF0ED8B0000E016E6B5168
:1009EA003F08FF0ED8B0000E006E0150001201E061
:1009FA0027D0000E695DD8A0696B69517F0802E2B1
:100A0A007F0E696F000E6A5DD8A06A6B6A517F0813
:100A1A0002E27F0E6A6F69516A5D06E269C06DF093
:100A2A006AC069F06DC06AF069516A5D09E369C01C
:100A3A0074F06BC075F06CC076F0FCDC692BF4D7EF
:020A4A00120098
:100A4C00220E0C6E086A096A0A6A0B6A0C06D8B484
:100A5C001FD0D8900B320A320932083203320232DC
:100A6C0001320032D8A0F2D70C06D8B409D0045009
:100A7C0008260550092206500A2207500B22EAD7F5
:100A8C00045008260550092206500A2207500B2252
:020A9C00120046
:100A9E0061C065F000016551635D0EE360C069F0F1
:100AAE0062C06AF065C06BF064C06CF08FDF655198
:0A0ABE00631902E0652BEED7120069
:100AC800030E0F01386F396B3A6B3B6B030E926E56
:100AD80000DE0001696B60DE5EDD800E696F000E6E
:100AE8006A6F400E6B6F000E6C6F6D6B010E6E6F50
:0E0AF800ACDE840E696F030E6A6FE6DD12003D
:100B06008B908B9212DD36C0E1FF37C0E2FF4DC0FD
:100B1600E6FF34C000F035C001F04FDC01501F5C29
:100B260002E100501E5CFF0ED8B0000E0001606F9F
:100B3600FCDC36C0E1FF37C0E2FF4DC0E6FF34C043
:100B460000F035C001F039DC01501F5C02E10050B5
:100B56001E5CFF0ED8B0000E026E02500001601738
:060B660060C000F0120067
:100B6C0060C02AF061C02BF062C015F063C016F0B3
:100B7C0064C028F065C029F066C01CF067C01DF089
:020B8C00120055
:100B8E0032DE2A50005C0001656F2B500158666FF3
:100B9E00D1DC2850005C0001676F29500158686F46
:100BAE0065C000F066C001F0000E66BFFF0E026E5B
:100BBE00036E4AC004F04BC005F0000E066E076EC1
:100BCE003EDF15C004F016C005F0000E066E076E6F
:100BDE002A50045E2B50055A000E065A075A49DE5B
:100BEE0000C065F001C066F067C000F068C001F09B
:100BFE00000E000168BFFF0E026E036E4EC004F0C1
:100C0E004FC005F0000E066E076E19DF1CC004F013
:100C1E001DC005F0000E066E076E2850045E2950AA
:100C2E00055A000E065A075A24DE4EC004F04FC075
:100C3E0005F0000E066E076E0050045E0150055A58
:100C4E000250065A0350075A04C067F005C068F0F8
:100C5E00800E00016619016E800E015C02E1000E2D
:100C6E00655DFF0ED8B0000E016E800E6619006E27
:100C7E00800E4B18005C02E14A50655D000ED8B044
:100C8E00FF0E006E0150001203E0010E646F7ED065
:100C9E00800E6819016E800E015C02E1000E675D28
:100CAE00FF0ED8B0000E016E800E6819006E800E19
:100CBE004F18005C02E14E50675D000ED8B0FF0E7B
:100CCE00006E0150001203E0010E646F5FD02250DF
:100CDE00655D046E23506659056E2450675D026E85
:100CEE0025506859036E65C022F066C023F067C0B8
:100CFE0024F068C025F0800E016E800E0518015C90
:100D0E0002E104500508FF0ED8B0000E016E800EF1
:100D1E00006E800E0318005C02E102500508FF0E03
:100D2E00D8B0000E006E00500112800E0518006E35
:100D3E007F0E005C02E1FB0E045CFF0ED8B0000ECD
:100D4E00006E00500112800E0318006E7F0E005CC4
:100D5E0002E1FB0E025CFF0ED8B0000E006E0150D9
:100D6E00001203E0010E646F11D060C0E1FF61C09C
:100D7E00E2FF65C0E6FF66C0E6FF62C0E1FF63C04A
:100D8E00E2FF67C0E6FF68C0E6FF646B64C000F078
:020D9E00120041
:100DA00060C069F062C06AF061C06BF064C06CF052
:100DB00014DE60C069F062C06AF063C06BF064C0AA
:100DC0006CF00BDE61C069F063C06AF060C06BF06C
:100DD00064C06CF0ACDC61C069F063C06AF062C0F2
:0A0DE0006BF064C06CF0A3DC12009D
:100DEA002C50000A0EE1050E276E070E4C6E280ED7
:100DFA003E6E140E3F6E000E406E200E206E000EE8
:100E0A00216E0001656B65516025E96E000E612156
:100E1A00EA6EEE50000A15E065516025E96E000E93
:100E2A006121EA6EEECF69F062C06AF063C06BF0CE
:100E3A0064C06CF0DDEC02F027506227622B652B50
:040E4A00E2D71200D9
:100E4E00570E416E520E426E490E436E540E446E54
:100E5E00450E456E466A430E2D6E4C0E2E6E450E99
:100E6E002F6E410E306E520E316E326A450E386E56
:100E7E00520E396E410E3A6E530E3B6E450E3C6E5F
:100E8E003D6A1BDE3C0E606F000E616F900E626F4E
:100E9E00030E636F840E646F000E656F670E666FD0
:100EAE00030E676F5CDE570E506E520E516E490E7A
:100EBE00526E540E536E450E546E200E556E4F0EDE
:100ECE00566E4E0E576E200E586E530E596E430EC2
:100EDE005A6E520E5B6E450E5C6E450E5D6E4E0E7C
:100EEE005E6E5F6A500E606F000E616F140E626F61
:100EFE00050E636F010E646F71DF290E0B6E960E79
:100F0E000C6E7F0E0D6E0D2EFED70C2EFCD70B2EFB
:100F1E00FAD7696B3EDC696B3CDC696B070E6A6F56
:100F2E006B6B010E6C6F97EC03F02D0E606F000E65
:100F3E00616F010E626F636B646B50DF696B070E3E
:100F4E006A6F610E6B6F010E6C6F97EC03F0380ECB
:100F5E00606F000E616F620E626F636B646B3EDFDB
:100F6E00290E606F616B340E626F090E636F010E96
:100F7E00646F0FDF2D0E606F030E616F300E626FA8
:100F8E00060E636F010E646F83DD3F0E606F616B43
:100F9E00460E626F070E636F010E646FFADE420E2D
:100FAE00606F030E616F430E626F040E636F010E6E
:100FBE00646F6EDD500E606F616B560E626F060EC3
:100FCE00636F010E646FE5DE530E746F030E756F63
:100FDE00010E766F1FEC02F01780010E336E8CDD62
:100FEE000050000AD8B417D2180E606F000E616F51
:100FFE001A0E626F000E636FC3DD0050000AD8A494
:10100E000AD2000E195C02E11F0E185CFF0ED8B05A
:10101E00000E016E000E1B5C02E1080E1A5CFF0E44
:10102E00D8B0000E006E015000166EE0696BD0EC69
:10103E0003F0290E606F616B340E626F090E636FE1
:10104E00010E646FA6DE2D0E606F030E616F300E03
:10105E00626F060E636F010E646F1ADD3F0E606FD6
:10106E00616B460E626F070E636F010E646F91DE49
:10107E00420E606F030E616F430E626F040E636F5C
:10108E00010E646F05DD500E606F616B560E626F60
:10109E00060E636F010E646F7CDE530E746F030ECB
:1010AE00756F010E766F1FEC02F0696B070E6A6F9B
:1010BE006B6B010E6C6F97EC03F02D0E606F000ED4
:1010CE00616F010E626F636B646B88DE696B070E76
:1010DE006A6F610E6B6F010E6C6F97EC03F017A0C9
:1010EE000AD0380E606F000E616F620E626F636B16
:1010FE00646B74DE09D0410E606F000E616F620E7C
:10110E00626F636B646B6ADE000E016E1950015CD8
:10111E0002E118506008FF0ED8B0000E016E000EEE
:10112E001B5C02E1080E1A5CFF0ED8B0000E006EBA
:10113E000150001631E017A018D01790410E606FC5
:10114E00000E616F620E626F636B646B47DE150E8D
:10115E000B6E4B0E0C6EBE0E0D6E0D2EFED70C2EA4
:10116E00FCD70B2EFAD7000017D01780380E606F01
:10117E00000E616F620E626F636B646B2FDE150E75
:10118E000B6E4B0E0C6EBE0E0D6E0D2EFED70C2E74
:10119E00FCD70B2EFAD70000000E195C02E1290EC7
:1011AE00185C000ED8B0FF0E016E000E006E1950C6
:1011BE00005C02E118503408000ED8B0FF0E006E2D
:1011CE0000500116000E006E1B50005C02E11A501A
:1011DE000908000ED8B0FF0E006E0150001602E096
:1011EE00030E336E000E195C02E13F0E185C000E0A
:1011FE00D8B0FF0E016E000E006E1950005C02E1B9
:10120E0018504608000ED8B0FF0E006E00500116A2
:10121E00000E006E1B50005C02E11A500708000E13
:10122E00D8B0FF0E006E0150001602E0020E336EB3
:10123E00000E195C02E1500E185C000ED8B0FF0EC5
:10124E00016E000E006E1950005C02E11850560837
:10125E00000ED8B0FF0E006E00500116000E006E8C
:10126E001B50005C02E11A500608000ED8B0FF0EAB
:10127E00006E0150001602E0010E336E000E1B5C74
:10128E0002E10B0E1A5C01E2AAD63350010A3BE1D1
:10129E00000E195C02E1000E185C000ED8B0FF0EB5
:1012AE00016E000E1B5C02E1000E1A5C000ED8B03F
:1012BE00FF0E006E00500116000E006E1950005CFD
:1012CE0002E118507F08000ED8B0FF0E006E0050DD
:1012DE000116000E006E1B50005C02E11A503F0812
:1012EE00000ED8B0FF0E006E015000160BE000018C
:1012FE0018C074F01AC075F0000E17B0010E766F9C
:10130E001FEC02F088D03350020A41E1000E195C46
:10131E0002E1000E185C000ED8B0FF0E016E000E3A
:10132E001B5C02E1000E1A5C000ED8B0FF0E006EC0
:10133E0000500116000E006E1950005C02E11850AC
:10134E007E08000ED8B0FF0E006E00500116000E83
:10135E00006E1B50005C02E11A503E08000ED8B021
:10136E00FF0E006E0150001611E0000118C060F073
:10137E001AC061F01850010F626F1A50010F636F9F
:10138E00000E17B0010E646F4FEC05F044D03350D1
:10139E00030A41E1000E195C02E1010E185C000E19
:1013AE00D8B0FF0E016E000E1B5C02E1010E1A5C3E
:1013BE00000ED8B0FF0E006E00500116000E006E2B
:1013CE001950005C02E118507D08000ED8B0FF0ED7
:1013DE00006E00500116000E006E1B50005C02E104
:1013EE001A503D08000ED8B0FF0E006E01500016C8
:1013FE0011E000011804606F1A04616F020E1824C8
:10140E00626F020E1A24636F000E17B0010E646F26
:0A141E004FEC05F000D0E3D5FFD736
:10142800000000000000005F000000070007001433
:101438007F147F14242A7F2A1223130864623649F2
:101448005522500005030000001C224100004122E3
:101458001C00082A1C2A0808083E0808005030000A
:1014680000080808080800303000002010080402AE
:101478003E5149453E00427F400042615149462164
:1014880041454B311814127F1027454545393C4AD0
:101498004949300171090503364949493606494920
:1014A800291E0036360000005636000000081422B7
:1014B800411414141414412214080002015109069D
:1014C800324979413E7E1111117E7F494949363EA4
:1014D800414141227F4141221C7F494949417F09BD
:1014E8000901013E414151327F0808087F00417FD0
:1014F80041002040413F017F081422417F40404085
:10150800407F0204027F7F0408107F3E4141413E34
:101518007F090909063E4151215E7F09192946467E
:101528004949493101017F01013F4040403F1F20A7
:1015380040201F7F2018207F631408146303047859
:101548000403615149454300007F414102040810EA
:101558002041417F00000402010204404040404015
:10156800000102040020545454787F484444383819
:1015780044444420384444487F3854545418087E1E
:10158800090102081454543C7F0804047800447D7F
:1015980040002040443D00007F10284400417F4027
:1015A800007C041804787C080404783844444438DF
:1015B8007C14141408081414187C7C0804040848C3
:1015C80054545420043F4440203C4040207C1C207C
:1015D80040201C3C4030403C44281028440C5050CB
:1015E800503C4464544C44000836410000007F00DD
:1015F80000004136080008082A1C08081C2A0808A8
:020000040030CA
:0D000100331F3CFFBD81FF0FC00FE00F401B
:00000001FF
