:1000000087EF00F00000000000EF00F000000000AB
:0A0010000000000000000000F3D71C
:10001C00026AC7B408D01F0EC514016E0150000A45
:0C002C0002E1FF0E026E02C000F01200A4
:10003800050E0B6E0F0E0C6EF10E0D6E0D2EFED70B
:0A0048000C2EFCD70B2EFAD7120085
:0C005200C582C5A202D00000FCD712003D
:10005E009E96C5869EB602D00000FCD7C9CF01F091
:10006E00C59A1550000AD8B4C58A9E96C5889EA614
:08007E00FED701C000F01200E2
:10008600949894968B988B9694889486C79EC79CD2
:06009600380EC66E1200D8
:10009C00166A176ABDDF0050000A01E009D017503C
:1000AC00120A02E18E0E161803E0164A172AF2D72E
:1000BC00120E175C02E18F0E165C03E37B0E156EBD
:1000CC0006D0C580C5A002D00000FCD7156A15C0AB
:0400DC0000F012001E
:0400E000C5841200C1
:1000E4009E9615C0C9FFC7A402D00000FCD79EB6D7
:1000F40002D00000FCD7C5BC02D0016A03D0C5847D
:0A010400020E016E01C000F01200AF
:10010E000F01396B3A6B936A8A6A500EC86EB4DF70
:10011E00BEDFA20E156EDFDF020E156EDCDFAA0E3D
:10012E00156ED9DFD6DF81DFB2DFA20E156ED3DFFB
:10013E00020E156ED0DF86DFA30E156ECCDF156AAC
:0A014E0087DF00C08AFFC5DFFFD77E
:020000040030CA
:0D000100331F3CFFBD81FF0FC00FE00F401B
:00000001FF
