:04000000BAEF00F063
:1000080000C016F001C015F0896A190EE96E000EDD
:10001800EA6E1D50E926D8B0EA2AEECF8CFF20C040
:1000280089FF20C001F00136019001C020F0015085
:10003800080802E2010E206E1D2A1D500308D8A0F0
:100048001D6AD66AF29416C000F015C001F01100BE
:10005800000E221802E1000E211805E13F0E026E83
:10006800000E036E63D0000E221802E1010E211863
:1000780005E1060E026E000E036E58D0000E22181F
:1000880002E1020E211805E15B0E026E000E036EFE
:100098004DD0000E221802E1030E211805E14F0E83
:1000A800026E000E036E42D0000E221802E1040E0A
:1000B800211805E1660E026E000E036E37D0000EA1
:1000C800221802E1050E211805E16D0E026E000EE0
:1000D800036E2CD0000E221802E1060E211805E14D
:1000E8007D0E026E000E036E21D0000E221802E172
:1000F800070E211805E1070E026E000E036E16D0DA
:10010800000E221802E1080E211805E17F0E026E8A
:10011800000E036E0BD0000E221802E1090E211802
:1001280005E16F0E026E000E036E00D002C000F0F3
:0601380003C001F01200FB
:10013E00086A096A100E0C6E01340836093604502E
:10014E00085E0550D8A0053C095ED8B007D0045013
:10015E0008260550D8B0053C0926D8900036013641
:06016E000C2EEAD712007E
:100174000F01386B3B6B926A896A956A8C6AC40E6C
:10018400D56ED66A176A186A1D6A010E206ED20EE1
:100194001E6E040E1F6EF28EF28AE80E046E030EBB
:1001A400056E1EC000F01FC001F0C7DF00C017F0CD
:1001B40001C018F000C021F001C022F04BDF00C0E4
:1001C4001CF0640E046E000E056E1EC000F01FC00D
:1001D40001F0B3DF0A0E046E000E056EAEDF08C038
:1001E40000F009C001F000C017F001C018F000C011
:1001F40021F001C022F02EDF00C01BF00A0E046EB5
:10020400000E056E1EC000F01FC001F096DF0A0E3E
:10021400046E000E056E91DF08C000F009C001F005
:1002240000C017F001C018F000C021F001C022F096
:1002340011DF00C01AF00A0E046E000E056E1EC017
:1002440000F01FC001F079DF08C000F009C001F020
:1002540000C017F001C018F000C021F001C022F066
:10026400F9DE00C019F0290E0B6E960E0C6E7F0E8F
:100274000D6E0D2EFED70C2EFCD70B2EFAD71E4A70
:100284001F2A1F50270802E11E500F0802E21E6AAF
:060294001F6A83D7FFD7AB
:020000040030CA
:0D000100331F3CFFBD81FF0FC00FE00F401B
:00000001FF
