:10000000FAEF00F00000000000EF00F00000000038
:0A0010000000000000000000F3D71C
:0A001C00850E0D6E0D2EFED71200AA
:100026003A0E0C6E230E0D6E0D2EFED70C2EFCD73F
:020036001200B6
:0C003800020E0D6E0D2EFED7000012000F
:1000440049BE02D08A9601D08A8649BC02D08A94DD
:1000540001D08A8449BA02D08A9201D08A8249B8EE
:1000640002D08A9001D08A8042B002D08A8801D01E
:100074008A988A8ADFDF8A9A49B602D08A9601D0A2
:100084008A8649B402D08A9401D08A8449B202D0C3
:100094008A9201D08A8249B002D08A9001D08A80A3
:1000A40042B002D08A8801D08A988A8AC3DF8A9AA9
:0C00B40042A002D0B6DF01D0AFDF120086
:0C00C000429048C049F0BEDF42801200B0
:1000CC00939A939893909392939493968A9A8A98EE
:1000DC008A968A948A928A90A0DF9FDF9EDF8A821A
:1000EC008A808A8AA3DF8A9A98DF8A8A9FDF8A9A13
:1000FC0094DF8A8A9BDF8A9A90DF8A908A8A96DFBD
:10010C008A9A8BDF8A8A92DF8A9A8A928A868A8A6C
:10011C008DDF8A9A82DF8A968A808A8A87DF8A9A1A
:10012C008A908A8A83DF8A9A78DF8A8A7FDF8A9A22
:10013C008A808A8A7BDF8A9A70DF8A908A8A76DF45
:10014C008A9A8A868A848A828A808A8A6FDF8A9AC5
:06015C0064DF4280120086
:100162004350010A03E1800E436E14D04350020A49
:1001720003E1C00E436E0ED04350030A03E1940E16
:10018200436E08D04350040A03E1D40E436E02D0FA
:10019200800E436E4404006E4350002600C043F0BC
:1001A20000C049F04EDF4290476A47504524E96E4D
:1001B200000E4620EA6EEE50000A0BE0475045243E
:1001C200E96E000E4620EA6EEECF48F078DF472A4D
:0601D200ECD74280120090
:1001D800150E0B6E4B0E0C6EBE0E0D6E0D2EFED751
:0C01E8000C2EFCD70B2EFAD700001200E2
:1001F4000F01396B6D0E276E690E286E6B0E296E1A
:10020400720E2A6E6F0E2B6E450E2C6E6C0E2D6EBA
:10021400650E2E6E6B0E2F6E740E306E720E316E76
:100224006F0E326E6E0E336E690E346E6B0E356E5B
:10023400610E366E376A450E386E610E396E730E76
:100244003A6E790E3B6E500E3C6E490E3D6E430E77
:100254003E6E370E3F6E406A4C0E1E6E630E1F6E6E
:10026400640E206E340E216E620E226E690E236EB1
:10027400740E246E256A650E156E780E166E610E68
:10028400176E6D0E186E700E196E6C0E1A6E650E6A
:100294001B6E1C6A19DF010E496ED2DE0C0E496E0C
:1002A400CFDE010E436E060E446E1E0E456E000E2A
:1002B400466E55DF020E436E060E446E150E456EF5
:1002C400000E466E4CDF520E0B6E2B0E0C6E000EA3
:1002D4000D6E0D2EFED70C2EFCD70B2EFAD7000078
:1002E400010E496EADDE010E436E010E446E270E03
:1002F400456E000E466E33DF020E436E050E446EED
:10030400380E456E000E466E2ADF150E0B6E4B0E30
:100314000C6EBE0E0D6E0D2EFED70C2EFCD70B2EC2
:10032400FAD700001D6A1C0E496E8ADE53DF1D5089
:10033400030A02E01D2AF7D71D6A180E496E80DEF3
:1003440049DF1D50070A02E01D2AF7D71D6A1C0E5B
:10035400496E76DE3FDF1D50070A02E01D2AF7D7FB
:04036400EBD7FFD7FD
:020000040030CA
:0D000100331F3CFFBD81FF0FC00FE00F401B
:00000001FF
