:10000000F0EF0AF00000000000EF00F00000000038
:0A0010000000000000000000F3D71C
:0E001C00800E00017811006E00C051F012003D
:10002A0078C04EF079C04FF07AC050F07BC052F0E1
:10003A007CC053F0800E00017D11006E00C051F0AB
:02004A001200A2
:10004C0078C04EF079C04FF07AC052F07BC053F0BC
:10005C00800E00017C11006E008000C051F0120077
:10006C00000E056E040E066E78C003F0000E046ED2
:10007C0003360436039003360436039079C000F03F
:10008C00000E016E00360136009000500326015020
:10009C00042203C001F004C002F0013601900236C4
:1000AC0001360190023601C003F002C004F00432A4
:1000BC000332049E04BC048E04320332049E04BC3E
:1000CC00048E03C000F004C001F00036009001362D
:1000DC00003600900136055000260650012200C063
:1000EC0005F001C006F000C0E1FF01C0E2FFE69E92
:1000FC0000017951000A12E178C000F0000E016E87
:10010C00003600900136490E0024E16E000E0120ED
:10011C00E26E05C0E6FF06C0E6FF11D078C000F025
:10012C00000E016E003600900136410E0024E16E87
:10013C00000E0120E26E05C0E6FF06C0E6FF05C01A
:10014C00E1FF06C0E2FFE69C040E0524E16E000E02
:08015C000620E26EE68C1200A1
:10016400700EE16E0F0EE26E00017351E126D8B0FD
:10017400E22A74C0E6FF74A504D073C078F0796BEA
:1001840073DF74A305D073C078F0010E796F6CDF50
:02019400120057
:1001960000017451000A12E073C000F0000E016EF7
:1001A600003600900136410E0024E96E000E012053
:1001B600EA6EEECF04F0EECF05F011D073C000F07A
:1001C600000E016E003600900136490E0024E96EDD
:1001D600000E0120EA6EEECF04F0EECF05F0020E1F
:1001E6000424E16E000E0520E26E75C0E6FF76C0BF
:1001F600E6FF010E0424E16E000E0520E26E77C0D4
:10020600E6FF04C0E9FF05C0EAFFEECF00F004C038
:10021600E1FF05C0E2FF400E0014E66E04C0E9FFF0
:1002260005C0EAFFEECF00F004C0E1FF05C0E2FF23
:10023600880E0010E66E7451000A1BE073C000F0D1
:10024600000E016E003600900136410E0024026E4B
:10025600000E0120036E02C0E9FF03C0EAFF040E90
:10026600EE18006E02C0E1FF03C0E2FF00C0E6FF29
:100276001AD073C000F0000E016E003600900136F1
:10028600490E0024026E000E0120036E02C0E9FF33
:1002960003C0EAFF040EEE18006E02C0E1FF03C0C1
:1002A600E2FF00C0E6FF04C000F005C001F0120046
:1002B60020C401F01F0E01160150010A01E08BD087
:1002C60004012451000A01E086D02151060A38E1D2
:1002D6002DD01F50010A13E17C0E0001786F160E17
:1002E600796F000E7A6F120E7827000E79237A2323
:1002F600090E7B6F000E7C6F400E7D6F93DE20D063
:100306001F50010A0EE10001A50E786F160E796FD7
:10031600000E7A6F210E7B6F000E7C6F400E7D6F94
:1003260081DE0ED00001786B76DE0AD004012351FF
:10033600210ACFE02351220AE3E02351230AF2E007
:1003460020C401F0600E0116050E006E005004E098
:100356000132019EFF0FFBD70150010A01E03BD09D
:1003660027D039D038D01E0E0001786F000E796F75
:10037600010E7A6F000E7B6F400E7C6F64DE2BD011
:100386000001786B48DE23C41EF025D00001210E43
:10039600786F000E796F010E7A6F000E7B6F7C6BA3
:1003A60052DE19D00001786B36DE22C421F013D05C
:1003B60004012151010AD5E02151090AD3E0215156
:1003C600020AD1E021510A0ADBE02151030ADEE0EC
:0803D60021510B0AE7E01200BF
:1003DE00465215E0010E0001736F1E0E746FBBDEE8
:1003EE00010E736F746B15C075F016C076F0400E6B
:1003FE00776FCADE00C039F001C03AF014D00001A8
:10040E00010E736F1E0E746FA6DE010E736F746B8A
:10041E0015C075F016C076F0400E776FB5DE00C0D1
:08042E0039F001C03AF01200A0
:08043600465201E03DDF120017
:10043E000CD0CEDF3CD03BD0F7DF39D038D037D020
:10044E0036D035D0000033D032D0000E00016E19F8
:10045E0002E1010E6D19EDE0000E6E1902E1020EC1
:10046E006D19E9E0000E6E1902E1030E6D19E4E05C
:10047E006E51000A02E1730E6D19E0E06E51000A32
:10048E0002E1750E6D19DBE06E51000A02E1740E89
:10049E006D19D6E06E513F0A02E1FF0E6D19D1E0E3
:1004AE006E51000A02E1720E6D19CCE0CDD7010E2D
:0404BE00006E1200BA
:1004C2006DC002F06EC003F070C000F071C001F0A8
:1004D200010E0001705F000E715B0050011009E017
:1004E20002C0E1FF03C0E2FF6FC0E6FF024A032A37
:0404F200EBD7120032
:1004F6000B6A0A6A096A00500402F4CF09F0F3CFC6
:1005060008F001500502F4CF0BF0F3CF0AF00050CB
:100516000502F3500926F4500A22E86A0B2201501C
:100526000402F3500926F4500A22E86A0B2208C096
:1005360000F009C001F00AC002F00BC003F012007F
:100546000401286B296B42D0518E28813D50010A47
:10055600D8B4288350D0518E4ED0518E24BF16D099
:1005660024C403F00F0E031603C000F0000E016E44
:10057600003600900136490E0024E96E000E012077
:10058600EA6EEECF04F0EECF05F015D024C403F0EA
:100596000F0E031603C000F0000E016E0036009029
:1005A6000136410E0024E96E000E0120EA6EEECF00
:1005B60004F0EECF05F004C0E9FF05C0EAFFEECF78
:1005C60001F001A402D0010E286F15D020C401F05D
:1005D6001F0E01160150000AB7E020C401F01F0EDD
:1005E60001160150010AB7E020C401F01F0E0116E2
:1005F6000150020AB2E051AE07D0280E4E6E040E2C
:0A0606004F6E5180020E526E12007A
:1006100004012051800AD8A471D0C00E516E64D05C
:10062000E90E006E160E016E000E026E00C04EF056
:1006300001C04FF002C050F0120E526E000E536E09
:100640005DD0030E006E000E016E22C404F0000E99
:10065000056E51DF310E0024E96E000E0120EA6EB6
:10066000EECF4EF0EECF4FF0EECF50F0020E4E2414
:10067000F66E000E4F20F76E000E5020F86E090047
:10068000F5CF00F00900F5CF01F000C052F001C035
:1006900053F034D0030E225D23E2030E006E000EF1
:1006A000016E22C404F0000E056E25DF250E002425
:1006B000E96E000E0120EA6EEECF4EF0EECF4FF065
:1006C000EECF50F04EC0F6FF4FC0F7FF50C0F8FF1E
:1006D0000900F5CF00F000C052F0000E536E01D0BB
:1006E000516A0CD0516A0AD02351010A99E0235172
:0E06F000020AA7E02351030ACDE0F4D712005E
:1006FE00518E710E00016D6F0F0E6E6F6F6B010ECE
:10070E00706F000E716FD6DE450E6D6F000E6E6F40
:10071E006F6B010E706F000E716FCCDE22C41FF076
:10072E001F50000A03E1100E246E0FD0200E246E0F
:10073E00010E6D6F000E6E6F1F0E6F6F000E706FDD
:0C074E00010E716F000E726F73DE12005E
:10075A00000E535C02E1080E525C10E252C003F034
:10076A0053C004F02050000A03E1010E206E05D0A8
:10077A002050010A02E1020E206E04D0080E036E18
:10078A00000E046E41C0E1FF42C0E2FFE69241C0A2
:10079A00E1FF42C0E2FFE69041C0E9FF42C0EAFF42
:1007AA00EECF00F041C0E1FF42C0E2FF045000106A
:1007BA00E66E010E4124E16E000E4220E26E03C095
:1007CA00E6FF0350525C006E04505358016E00C09D
:1007DA0052F001C053F0280E226E040E236E51B05F
:1007EA002FD0035004102BE04EC0F6FF4FC0F7FF86
:1007FA0050C0F8FF0900F5CF00F022C0E1FF23C086
:10080A00E2FF00C0E6FF224A232A010E4E24006EB0
:10081A00000E4F20016E000E5020026E00C04EF0F6
:10082A0001C04FF002C050F0010E035C006E000ED2
:10083A000458016E00C003F001C004F0D2D724D0DE
:10084A000350041021E04EC0E9FF4FC0EAFF22C066
:10085A00E1FF23C0E2FFEECFE6FF224A232A010E80
:10086A004E24006E000E4F20016E00C04EF001C0F3
:10087A004FF0010E035C006E000E0458016E00C0BA
:0A088A0003F001C004F0DCD71200F7
:10089400F250026EF29E0500FF6A0150FE6E005097
:0808A400FD6E02BEF28E12008F
:1008AC0004012251010A0FE120C401F01F0E0116B0
:1008BC000150000A08E1518E2151030A03E1010E97
:1008CC003D6E01D03D6A2251000AD8A489D020C4C3
:1008DC0001F01F0E01160150020AD8A481D024C4C5
:1008EC0001F00F0E01160150000AD8B479D0518EC8
:1008FC0024BF16D024C403F00F0E031603C000F05F
:10090C00000E016E003600900136490E0024E96E8F
:10091C00000E0120EA6EEECF04F0EECF05F015D0FC
:10092C0024C403F00F0E031603C000F0000E016E7A
:10093C00003600900136410E0024E96E000E0120B5
:10094C00EA6EEECF04F0EECF05F02151030A07E179
:10095C0004C0E1FF05C0E2FF840EE66E41D024C462
:10096C0000F00F0E0016700E026E0F0E036E00508C
:10097C000226D8B0032A02C0E9FF03C0EAFFEECF7B
:10098C0000F0EECF01F0009002C0E1FF03C0E2FFE7
:10099C0000C0E6FF01C0E6FF24AF11D004C0E1FFA8
:1009AC0005C0E2FFE66A040E0418006E00C004F0F5
:1009BC0004C0E1FF05C0E2FF400EE66E11D004C09A
:1009CC00E1FF05C0E2FF880EE66E040E0418006E0F
:1009DC0000C004F004C0E1FF05C0E2FFC80EE66EE3
:0209EC001200F7
:1009EE006D9851BE49D056AE28D0020E196E010E2A
:1009FE004124E16E000E4220E26EE66A41C0E1FF44
:100A0E0042C0E2FFC80EE66E010E3E24E16E000EFD
:100A1E003F20E26E080EE66E020E3E24E16E000EE0
:100A2E003F20E26E280EE66E040EE66E3EC0E1FF3B
:100A3E003FC0E2FFC80EE66E1ED0010E3E24E16EF0
:100A4E00000E3F20E26E080EE66E020E3E24E16EB0
:100A5E00000E3F20E26E200EE66E040EE66E3EC0E5
:100A6E00E1FF3FC0E2FF8C0EE66E41C0E1FF42C0E7
:100A7E00E2FF840EE66E7DD056BE7BD0040120AF21
:100A8E0051D05350275D02E15250265D04E226C438
:100A9E0052F027C453F05ADE010E196E010E3E2499
:100AAE00E16E000E3F20E26E080EE66E020E3E2450
:100ABE00E16E000E3F20E26E200EE66E040EE66E34
:100ACE003EC0E1FF3FC0E2FF800EE66E4D6A010EB2
:100ADE001724E16E000E1820E26E080EE66E020E6E
:100AEE001724E16E000E1820E26E200EE66E040E44
:100AFE00E66E17C0E1FF18C0E2FF840EE66E010E2F
:100B0E004D6E020E4124E16E000E4220E26E280E62
:100B1E00E66E040EE66E41C0E1FF42C0E2FFC80E73
:100B2E00E66E27D0020E196E010E4124E16E000E04
:100B3E004220E26EE66A41C0E1FF42C0E2FFC80E0B
:100B4E00E66E010E3E24E16E000E3F20E26E080EB0
:100B5E00E66E020E3E24E16E000E3F20E26E280E7F
:100B6E00E66E040EE66E3EC0E1FF3FC0E2FFC80E29
:040B7E00E66E12000D
:100B820020C401F0600E0116050E006E005004E054
:100B92000132019EFF0FFBD70150000A01E062D033
:100BA2003ED0518E080E246E5DD031DD5BD0A6DDC5
:100BB20059D01F0E4E6E000E4F6E5180010E526EB6
:100BC200518E50D0BFDC4ED070DE4CD0450E006E40
:100BD200000E016E24510026D8B0012A00C04EF04A
:100BE20001C04FF05180010E526E518E3BD0518E9A
:100BF200450EE16E000EE26E2451E126D8B0E22AE3
:100C020022C4E6FF2FD0020E00016D6F000E6E6F40
:100C12006F6B706B716B726B11DC24D023D004018B
:100C22002151050ABEE02151060ABFE02151090AFD
:100C3200BEE02151080ABDE02151000AC3E0215162
:100C4200010AC2E02151030ABFE021510A0ABEE0B3
:100C520021510B0ACCE02151070AD5E021510C0A9F
:060C6200DDE0DCD712000A
:100C6800010E1724E96E000E1820EA6EEECF00F090
:100C780000C06BF0000E585C03E100016B51575C3B
:100C880003E257C06BF00BD000016B51575C006E4C
:100C9800000E5858016E00C057F001C058F000010E
:100CA8006C6B6B516C5D1CE2280EE96E040EEA6EEB
:100CB8006C51E926D8B0EA2AEECF00F054C0E1FF23
:100CC80055C0E2FF00C0E6FF010E5424006E000E7E
:100CD8005520016E00C054F001C055F06C2BE1D7CF
:100CE800000E006E5850005C02E15750000828E2E0
:100CF800010E3E24E16E000E3F20E26E080EE66E05
:100D0800020E3E24E16E000E3F20E26E280EE66ED3
:100D1800040EE66E17C0E9FF18C0EAFFEECF00F038
:100D280000BC07D03EC0E1FF3FC0E2FFC80EE66E40
:100D380006D03EC0E1FF3FC0E2FF880EE66E2BD032
:100D4800010E3E24E16E000E3F20E26E080EE66EB4
:100D5800020E3E24E16E000E3F20E26E200EE66E8B
:100D6800040EE66E3EC0E1FF3FC0E2FF840EE66E71
:100D7800000E006E5C1808E100505B1805E1005099
:100D88005A1802E15950000A05E059C000F05AC04B
:080D980001F07CDD569E120003
:100DA000196A41C0E1FF42C0E2FFE66A040E411841
:100DB000E16E42C0E2FF000EE21AE66A56AE13D0C0
:100DC000000E006E5C1808E100505B1805E1005051
:100DD0005A1802E15950000A05E059C000F05AC003
:080DE00001F058DD569E1200DF
:100DE800000E0001671902E1000E661902E1016AAE
:100DF80009D066C0E9FF67C0EAFFEECF00F0016ADC
:0A0E080000BE012A01C000F0120034
:100E120041C0E9FF42C0EAFFEECF00F0000E00BC85
:100E2200010E0001666F040E4118006E00C041F011
:100E32002450080A0AE122C46EFF6E50000803E241
:100E4200100E246E02D0040E246E1950010A2BE1FA
:100E5200020E4124E16E000E4220E26E280E006E68
:100E6200040E016E00C0E6FF01C0E6FF75DC2050F3
:100E7200020A07E141C0E1FF42C0E2FF840EE66ED2
:100E820011D000016651000A07E141C0E1FF42C0F2
:100E9200E2FFC80EE66E06D041C0E1FF42C0E2FFAB
:0A0EA200880EE66E01D07BDF12001F
:0E0EAC00160E6F6E9F0E6B6E7B0E696E12003F
:100EBA007C0E316E160E326E000E336EFB0E256EF0
:100ECA00160E266E000E276EC70E286E160E296E97
:100EDA00000E2A6E4C0E2B6E160E2C6E000E2D6E08
:020EEA001200F4
:100EEC0066C002F067C003F069C000F06AC001F090
:100EFC00010E0001695F000E6A5B0050011009E0F1
:100F0C0002C0E1FF03C0E2FF68C0E6FF024A032A09
:040F1C00EBD71200FD
:100F20001950020A02E1A0DE1ED03ADF4D50000A3D
:100F300019E1010E3E24E16E000E3F20E26E080E24
:100F4000E66E020E3E24E16E000E3F20E26E200EA1
:100F5000E66E040EE66E3EC0E1FF3FC0E2FF8C0E7F
:080F6000E66E01D04D6A12009B
:0A0F6800D08EA28AA08AF28E120039
:100F720041C0E9FF42C0EAFFEECF00F000AE05D06B
:100F820041C0E1FF42C0E2FFE66A206A196A526A82
:100F9200536A516AF5DD030E00016D6F000E6E6F2C
:100FA2006F6B706B716B726B1FEC02F01FDD1200C6
:100FB20000016751000A12E066C000F0000E016EE7
:100FC200003600900136410E0024E96E000E012029
:100FD200EA6EEECF04F0EECF05F011D066C000F05D
:100FE200000E016E003600900136490E0024E96EB3
:100FF200000E0120EA6EEECF04F0EECF05F0020EF5
:101002000424E16E000E0520E26E68C0E6FF69C0AE
:10101200E6FF010E0424E16E000E0520E26E6AC0B6
:10102200E6FF04C0E9FF05C0EAFFEECF00F004C00E
:10103200E1FF05C0E2FF400E0014E66E04C0E9FFC6
:1010420005C0EAFFEECF00F004C0E1FF05C0E2FFF9
:10105200880E0010E66E6751000A1BE066C000F0C1
:10106200000E016E003600900136410E0024026E21
:10107200000E0120036E02C0E9FF03C0EAFF040E66
:10108200EE18006E02C0E1FF03C0E2FF00C0E6FFFF
:101092001AD066C000F0000E016E003600900136D4
:1010A200490E0024026E000E0120036E02C0E9FF09
:1010B20003C0EAFF040EEE18006E02C0E1FF03C097
:1010C200E2FF00C0E6FF04C000F005C001F012001C
:0410D200A19A1200CD
:1010D600740E00016D6F000E6E6F6F6B706B716B2F
:1010E600726B1FEC02F06D92699468A403D0FB0E3C
:0610F6006816FBD7120092
:1010FC00DEDE396A3A6A3B6A3C6A6A6A686AD0DE42
:10110C006D8C6E6A710E0001666F0F0E676F686BE7
:10111C00010E696F000E6A6FE3DE6D9C616B080E49
:10112C00615D16E261C000F0000E016E00360090A9
:10113C000136003600900136000E0024E16E040EDC
:10114C000120E26EE66AE66AE66AE66A612BE7D798
:10115C00160E706E68A603D0F70E6816FBD7516A90
:10116C00566A576A586A6D98080E416E040E426EA4
:06117C001F6A246A120044
:10118200200E245C03E36DB201D002D0006A23D0AA
:1011920039C066F03AC067F026DE00521BE1010E4C
:1011A2003924E96E000E3A20EA6EEECF00F000C05C
:1011B20065F064C066F0676B61C068F062C069F098
:1011C20063C06AF0F5DE00C039F001C03AF065C0D4
:0811D20000F001D0006A1200D8
:1011DA002450000A0AE16D6A696A63DEC0DE6DB6F0
:0C11EA0002D06D86FCD7010E246E1200AE
:1011F60070A019D017C0E9FF18C0EAFFEECF01F0C2
:101206000150800A0FE141C0E9FF42C0EAFFEECF7C
:1012160001F00150840A06E117C0E1FF18C0E2FFA1
:0C1226008C0EE66E7090DF0E6816120051
:10123200FD0E4014016E026AFF0E0216000E021825
:1012420002E1000E01186CE17E0E4014016E01C035
:1012520003F00332039E03C000F0000E016E00365D
:1012620000900136003600900136000E0024026E16
:10127200040E0120036E02C017F003C018F002C072
:101282003EF003C03FF0040E3E18006E00C03EF078
:1012920002C0E9FF03C0EAFFEECF00F000C001F098
:1012A2003C0E01160132019E0132019E01500D0ACF
:1012B20035E1020E1724E96E000E1820EA6EEECF19
:1012C20001F0EECF02F00250040A02E1280E0118EA
:1012D20023E1020E1724E16E000E1820E26E200EAA
:1012E200E66E040EE66E0001616B080E615D14E2AB
:1012F200200EE16E040EE26E6151E126D8B0E22AC0
:10130200280EE96E040EEA6E6151E926D8B0EA2A87
:10131200EECFE6FF612BE9D72BDE01D000DE0DD048
:10132200FD0E4014016E026AFF0E0216000E021834
:0C13320002E1040E011801E16BDD120065
:10133E00200E245C03E36DB201D002D0006A33D0DC
:10134E003BC066F03CC067F048DD00522BE164C044
:10135E0066F0010E676F61C068F062C069F063C02D
:10136E006AF020DE00C03BF001C03CF01A6A1B6A36
:10137E001C6A1D6A3BC066F03CC067F02EDD005251
:10138E0008E01A501B101C101D1002E0006A0BD052
:10139E00F1D7010E3B24E96E000E3C20EA6EEECF33
:0813AE0000F001D0006A1200FA
:1013B6006984EF0E68166D82750E00016D6F000E62
:1013C6006E6F6F6B706B716B726B1FEC02F01200BD
:1013D60071DD396A3A6A3B6A3C6A6A6A686A63DD41
:1013E6006D8C6E6A710E00016D6F0F0E6E6F6F6BF6
:1013F600010E706F000E716F61EC02F06D9C616BF7
:10140600080E615D16E261C000F0000E016E003646
:1014160000900136003600900136000E0024E16E81
:10142600040E0120E26EE66AE66AE66AE66A612B67
:10143600E7D7160E706E68A603D0F70E6816FBD7B0
:10144600516A566A576A586A6D98080E416E040EBC
:08145600426E1F6A246A1200B5
:10145E0015C061F016C062F0400E0001636F010E00
:06146E00646F88DE12002D
:10147400010E466E5DC015F05EC016F05FC047F009
:1014840060C048F039DE000E016E0150010A01E12E
:04149400A2DE1200C2
:101498002450000A09E16D6A696A04DD6DB602D05C
:1014A8006D86FCD7010E246E2450010A08E16DBA3E
:1014B80006D0686A696A69806988020E246E68A421
:1014C80005D069A403D0FB0E681601DE6DA202D018
:1014D800FCDD76D068A018D069A016D078DF040E9D
:1014E800246E200E0401026F040E036F080E016FB4
:1014F800000E0015006E00C000F48C0E0011006E86
:1015080000C000F4FE0E681668A805D069A803D0CC
:101518004EDFEF0E681668AC11D069AC0FD0730EB1
:1015280000016D6F000E6E6F6F6B706B010E716F47
:10153800000E726F1FEC02F0BF0E681668AA03D087
:1015480069AA01D054DE68A210D069A20ED0FF0E9D
:1015580000016D6F3F0E6E6F6F6B706B010E716FD8
:10156800000E726F1FEC02F06A6A040E245C02E23D
:10157800ACDD26D069A623D05D6A040E5D5C1FE24F
:1015880068A61AD06CCF40F0F70E6816780E401493
:10159800016E0150000A02E148DE0DD0720E000112
:1015A8006D6F000E6E6F400E6F6F000E706F716B77
:1015B800726B1FEC02F001D002D05D2ADED785DD08
:0215C80012000F
:1015CA005DC061F05EC062F05FC063F0010E0001B1
:0615DA00646FB0DE120098
:1015E0000F0EC112070EB412000E5D6E050E5E6E78
:1015F000400E5F6E050E0001606F3CDF4DDF2FDF98
:1016000000C038F00050000A1FE0376A400EE16E5B
:10161000050EE26E3750E126D8B0E22A000EE96EE0
:10162000050EEA6E3750E926D8B0EA2AEECFE6FF7B
:1016300037503F0A02E0372AE9D7400E5D6E050EAB
:0C1640005E6E400E5F6EC1DFD9D7FFD791
:10164C00200355005300420020004800490044008C
:10165C0020004C0069006200720061007200790089
:10166C00000000000000000000000000000000006E
:10167C000902290001010080320904000002030064
:10168C00000009210101000122210007058103400E
:09169C00000107050103400001F3
:1016A5000600FF0901A10119012940150026FF00C7
:1016B50075089540810219012940750895409102E8
:0216C500C00063
:1016C70022034D0069006B0072006F0065006C001B
:1016D70065006B00740072006F006E0069006B009C
:0216E7006100A0
:1016E9001201000200000008341201000100010289
:0216F9000001EE
:0416FB0004030904D7
:020000040030CA
:0E000000210E2E1EFF8181FF0FC00FE00F406A
:00000001FF
