:100000006AEF00F00000000000EF00F000000000C8
:0A0010000000000000000000F3D71C
:0E001C00ACB202D00000FCD730C0ADFF120025
:0E002A00000E9EBA010E016E01C000F0120021
:10003800AECF02F0ABA202D0AB98AB8802C001F001
:0600480001C000F01200EF
:10004E001C0E226E000E236E300E246E000E256ED8
:10005E00380E196E000E1A6E000E1B6E000E1C6E00
:10006E002A0E1E6E000E1F6E000E206E000E216EEA
:10007E00FF0E156EFF0E166E000E176E000E186E2A
:10008E00AC8A900EAB6E948E949C9EAA03D0AECF8B
:06009E0000F0FBD7120088
:1000A4002E6A2CC0E9FF2DC0EAFFEECF2FF02F50AF
:1000B400000A0DE02FC030F0AFDF2E2A2E502C2482
:1000C400E96E000E2D20EA6EEECF2FF0F0D712006D
:1000D4000F013A6BCF0EAF6EAC84B7DF050E0B6E1B
:1000E4000F0E0C6EF10E0D6E0D2EFED70C2EFCD7DE
:1000F4000B2EFAD7520E266E650E276E610E286EF1
:10010400640E296E790E2A6E2B6A260E2C6E000E52
:100114002D6EC6DF0D0E306E7FDF0A0E306E7CDF73
:1001240082DF0050000A06E085DF00C01DF000C039
:0801340030F072DFF5D7FFD7B0
:020000040030CA
:0D000100331F3CFFBD81FF0FC00FE00F401B
:00000001FF
