:10000000E1EF0BF00000000000EF00F00000000046
:0A0010000000000000000000F3D71C
:0C001C001A0E0D6E0D2EFED70000120013
:0A002800F9DF8A88F7DF8A981200DA
:0C003200020E0D6E0D2EFED70000120015
:10003E00800E006E000E016E830E00240001786F9C
:10004E000F0E0120796F78C0E1FF79C0E2FFFF0E3D
:10005E00E66EE8DFE7DF8A848A988A86120E006EE3
:10006E00000E016E830E0024786F0F0E0120796F43
:10007E0078C0E1FF79C0E2FFFF0EE66E8A88C7DF27
:10008E0083CF77F08A988A96120E006E000E016E5C
:10009E00830E0024786F0F0E0120796F78C0E1FF78
:0C00AE0079C0E2FFE66A77C000F01200A3
:0E00BA008A988A848A9677C083FFB1DF12008D
:1000C8007F0E00017715016E01C077F001AC03D0F7
:0C00D8008A808A9202D08A908A821200EC
:1000E4008A948A96B80E00017711836E9BDF120002
:1000F4007F0E00017715006E00C077F08A948A960F
:10010400BF0E001600C077F0008C00C077F000C06E
:0601140083FF88DF1200EA
:10011A00000E0001715DFF0ED8B0000E016E715124
:10012A007F08FF0ED8B0000E006E00500112000EBC
:10013A00725DFF0ED8B0000E006E005001127251AF
:10014A003F08FF0ED8B0000E006E0150001201E009
:10015A004BD071C077F0B3DF72C077F07733779FF7
:10016A007733779F7733779FB8DF71C077F0BDDF3A
:10017A0061DF00C075F05EDF00C075F072C077F015
:10018A007733779F7733779F7733779FA6DF71C06F
:10019A0077F0ABDF070E7215006E00C074F000C076
:1001AA0001F0010E006E015004E000360090FF0FCE
:1001BA00FBD700C074F0001C766F7351000A03E18C
:1001CA00765175170ED07351010A03E174517513F4
:1001DA0008D07351020A03E17451751B02D074519D
:0A01EA00751375C077F064DF120092
:1001F4000B6A0A6A096A00500402F4CF09F0F3CFCB
:1002040008F001500502F4CF0BF0F3CF0AF00050D0
:100214000502F3500926F4500A22E86A0B22015021
:100224000402F3500926F4500A22E86A0B2208C09B
:1002340000F009C001F00AC002F00BC003F0120084
:10024400000E00016E5DFF0ED8B0000E016E6E51FF
:100254003F08FF0ED8B0000E006E0150001201E0FE
:1002640027D0000E6C5DD8A06C6B6C517F0802E245
:100274007F0E6C6F000E6D5DD8A06D6B6D517F08A5
:1002840002E27F0E6D6F6C516D5D06E26CC070F022
:100294006DC06CF070C06DF06C516D5D09E36CC0A5
:1002A40071F06EC072F06FC073F035DF6C2BF4D751
:0202B400120036
:1002B600000E5B5CFF0ED8B0000E016E5B507F082F
:1002C600FF0ED8B0000E006E0150001201E027D0DC
:1002D600000E595CD8A0596A59503F0802E23F0EF9
:1002E600596E000E5A5CD8A05A6A5A503F0802E26C
:1002F6003F0E5A6E59505A5C06E259C05DF05AC01C
:1003060059F05DC05AF059505A5C09E35BC071F070
:1003160059C072F05CC073F0FDDE592AF4D71200A2
:10032600800E5A18006E800E005C02E1000E595CC9
:1003360002E2596A5A6A800E006E800E5A18005CF4
:1003460002E159507F0804E27F0E596E000E5A6E84
:10035600800E5E18006E800E005C02E1000E5D5C91
:1003660002E25D6A5E6A800E006E800E5E18005CB8
:1003760002E15D507F0804E27F0E5D6E000E5E6E48
:10038600800E5C18006E800E005C02E1000E5B5C65
:1003960002E25B6A5C6A800E006E800E5C18005C8E
:1003A60002E15B503F0804E23F0E5B6E000E5C6E9E
:1003B600800E00016019006E800E005C02E1000EE6
:1003C6005F5C02E25F6A606B800E006E800E6019F1
:1003D600005C02E15F503F0804E23F0E5F6E000ED4
:1003E600606F5B505F5C016E5C506059026E01C0CD
:1003F60062F002C063F059505D5C646F5A505E58FB
:10040600656F800E0218006E800E005C02E1000E21
:10041600015C0BE262510008626F6351000E635784
:10042600FF0E686FFF0E696F04D0010E686F000E35
:10043600696F800E6519006E800E005C02E1000E89
:10044600645D0BE264510008646F6551000E6557E8
:10045600FF0E666FFF0E676F04D0010E666F000E0B
:10046600676F62376291633764376491653759C045
:1004760071F05BC072F061C073F04CDE800E6319E0
:10048600006E800E6519005C02E16451625D3DE21A
:1004960064C000F065C001F001320032019E01BC6B
:1004A600018E0050625D6A6F015063596B6F5A503E
:1004B6005E1802E15D50591827E0800E6B19006E38
:1004C600800E005C02E1000E6A5D08E368515B265F
:1004D60069515C2264516A5F65516B5B66515924B0
:1004E600006E67515A20016E00C059F001C05AF0E3
:1004F60062516A2763516B2300C071F05BC072F0D2
:1005060061C073F007DED3D73CD062C000F063C091
:1005160001F001320032019E01BC018E0050645D83
:100526006A6F015065596B6F5C50601902E15F504C
:100536005B1827E0800E6B19006E800E005C02E1EE
:10054600000E6A5D08E36651592667515A226251C8
:100556006A5F63516B5B68515B24006E69515C2076
:10056600016E00C05BF001C05CF064516A27655102
:100576006B2359C071F000C072F061C073F0CADD20
:04058600D3D71200B5
:10058A005B50070801E286D01B50595C006E1CC004
:10059A0001F0000E015619C004F0000E056E25DEAA
:1005AA0000C061F001C062F05AC077F09EDD5BC006
:1005BA0077F093DD5D6A1904636F5D50635D4CE308
:1005CA005A507F0801E266D05AC077F078DD5BC0E6
:1005DA0077F083DD5AC077F088DD2CDD00C05EF04D
:1005EA0029DD00C05EF05AC077F069DD5BC077F0A4
:1005FA0074DD5AC077F079DD61513124F66E6251AB
:10060A003220F76E000E62BFFF0E3320F86E09002B
:10061A00F5CF00F000C05FF0614B622B001C606FE9
:10062A005C50000A03E160C05EF00CD05C50010A25
:10063A0003E15FC05EF006D05C50020A03E15F503E
:10064A005E1A00D000015EC077F032DD5A2A5D5092
:10065A00631902E05D2AAFD75AC077F030DD5BC07C
:10066A0077F03BDD5AC077F040DDFF0E5F6E606BBE
:10067A005C50000A06E15FC05EF05FC077F018DDEB
:10068A0009D05C50010A06E160C05EF060C077F0F4
:06069A000FDD00D012008C
:1006A0005AC05EF05E505C5C0EE359C06CF05BC0FB
:1006B0006DF05EC06EF05DC06FF0C4DD5E505C1822
:0806C00002E05E2AEFD71200F0
:1006C800520E0B6E2B0E0C6E000E0D6E0D2EFED7FD
:0C06D8000C2EFCD70B2EFAD700001200ED
:1006E4004B6A4C6A4D6A4E6A496A4A6A4F6A506A52
:1006F40038503424006E39503520016E010E005CF0
:10070400026E000E0158036E000E006E0350005C72
:1007140002E102507F0807E234508008386E35C089
:1007240039F0000E39563A503624006E3B503720CB
:10073400016E010E005C026E000E0158036E000E85
:10074400006E0350005C02E102503F0807E236509D
:1007540040083A6E37C03BF0000E3B5636C000F0FE
:1007640037C001F001320032019E01320032019E95
:1007740001320032019E00C043F03A503624056E27
:100784003B503720066E010E055C036E000E0658C2
:10079400046E03C000F004C001F001320032019E77
:1007A40001320032019E01320032019E00C044F049
:1007B400070E3614006E37C001F0000E011600C09B
:1007C40046F0070E0514006E06C001F0000E011677
:1007D40000C047F03F503B5C02E13E503A5C03E20C
:1007E40044C048F01BD03E503624006E3F503720A2
:1007F400016E010E005C036E000E0158046E03C00E
:1008040000F004C001F001320032019E01320032D6
:10081400019E01320032019E00C048F0070E3E14D2
:10082400016E3FC002F0000E0216000E021802E133
:10083400000E011817E13EC000F03FC001F0013284
:100844000032019E01320032019E01320032019ECB
:100854003CC004F03DC005F0CBDC00C053F001C047
:1008640054F018D03EC000F03FC001F00132003215
:10087400019E01320032019E01320032019E004A83
:10088400012A3CC004F03DC005F0B2DC00C053F0C6
:1008940001C054F043C04BF0000E4C6E000E006ECD
:1008A4004C50005C02E14B50445CD8A031D1516AF9
:1008B400526A4D6A4E6A010E385C576E000E395802
:1008C400586E4E50585C02E14D50575CD8A009D187
:1008D4004D5034240001776F64EC00F04BC077F086
:1008E40072EC00F03D504E5C02E13C504D5CFF0E5A
:1008F400D8B0000E016E000E006E4C50005C02E198
:100904004B50485C000ED8B0FF0E006E015000162C
:100914003BE0000E4C1802E143504B1802E1556ACB
:1009240015D051504024006E52504120016E000EEB
:100934004220026E4F500024F66E50500120F76E94
:10094400000E0220F86E0900F5CF55F054504A5CB1
:1009540002E15350495C02E3566A15D051504024D9
:10096400006E52504120016E000E4220026E49502A
:100974000024F66E4A500120F76E000E0220F86E35
:100984000900F5CF56F002D0566A556A56C045F0B4
:100994004650000817E246500808006E55C045F05E
:1009A400005004E04532459EFF0FFBD746C001F0DE
:1009B40056C000F0015004E000360090FF0FFBD752
:1009C40000504512000E4C1802E143504B18FF0E24
:1009D400D8A4000E016E46500008FF0ED8B0000ED9
:1009E400006E0150001628E000014D503424776F4A
:1009F4007AEC00F01FEC00F01FEC00F04650080801
:100A0400016E01C002F0FF0E016E025004E00132DB
:100A1400019EFF0FFBD701500014026E46C001F087
:100A2400FF0E006E015004E000360090FF0FFBD76C
:100A34000050451602504512000E4C1802E1445075
:100A44004B18FF0ED8A4000E016E47500008FF0E8D
:100A5400D8B0000E006E0150001628E000014D5081
:100A64003424776F7AEC00F01FEC00F01FEC00F0F8
:100A740047C002F0FF0E016E025004E001360190FF
:100A8400FF0FFBD701500014026E47500808006E98
:100A940000C001F0FF0E006E015004E00032009E21
:100AA400FF0FFBD700504516025045123D504E5CD7
:100AB40002E13C504D5C02E2514A522A00014D5081
:100AC4003424776F7AEC00F045C077F05DEC00F0E9
:100AD4004E50581802E157504D1803E04D4A4E2A23
:100AE400EAD6000E4C5C02E148504B5C08E249C077
:100AF4004FF04AC050F03C5049263D504A22000E67
:100B04004C1802E144504B1803E04B4A4C2AC6D619
:020B14001200CD
:100B160034C06CF036C06DF035C06EF038C06FF082
:100B260022EC01F034C06CF036C06DF037C06EF0C8
:100B360038C06FF022EC01F035C059F037C05AF0DA
:100B460034C05BF038C05CF05BEC01F035C059F0A6
:100B560037C05AF036C05BF038C05CF05BEC01F091
:020B660012007B
:100B6800186A156A166A176A939A939893949396D3
:100B7800939093928A9A120E006E000E016E830E65
:100B88000024E16E0F0E0120E26EE66A8A948A96CE
:100B98008A908A828A8A3F0E836E14EC00F0C00E17
:100BA800836E14EC00F08A808A923F0E836E14ECF8
:0C0BB80000F0C00E836E14EC00F0120080
:100BC4008A908A82366A36C077F072EC00F0356A11
:100BD40034C077F05DEC00F035503F0A02E0352A6E
:100BE400F7D73650070A02E0362AEDD78A928A8070
:100BF400366A36C077F072EC00F0356A34C077F0AC
:100C04005DEC00F035503F0A02E0352AF7D7365044
:0A0C1400070A02E0362AEDD71200AD
:100C1E00386A3850070847E30001776B64EC00F040
:100C2E0038C077F072EC00F0776B7AEC00F0376A30
:100C3E0034C0F6FF35C0F7FF36C0F8FF0900F5CF18
:100C4E0077F05DEC00F0010E3426000E35223622D0
:100C5E0037503F0A02E0372AEBD70001400E776F7C
:100C6E0064EC00F038C077F072EC00F0400E776F55
:100C7E007AEC00F0400E376E34C0F6FF35C0F7FF49
:100C8E0036C0F8FF0900F5CF77F05DEC00F0010EED
:100C9E003426000E3522362237507F0A02E0372ADC
:080CAE00EBD7382AB6D712007B
:100CB6003F6A406A3450365C416E35503758426E52
:100CC60038C03DF039C03EF038C000F039C001F000
:100CD60000360090013600C03BF001C03CF00050E9
:100CE60003083B6E01C03CF0000E3C56010E3D244D
:100CF600016E000E3E20026E800E4018006E800EC1
:100D06000218005C02E101503F5CD8B094D03F501D
:100D160034240001716F3D503624726F3AC073F06F
:100D26008DEC00F03F503424716F3D50365C726F8D
:100D36003AC073F08DEC00F03F50345C716F3D505B
:100D46003624726F3AC073F08DEC00F03F50345C7D
:100D5600716F3D50365C726F3AC073F08DEC00F0E7
:100D66003D503624716F4150715F3F503624726F8B
:100D76003AC073F08DEC00F03D503624716F41504F
:100D8600715F3F50365C726F3AC073F08DEC00F0C5
:100D96003D50365C716F4150715F3F503624726F23
:100DA6003AC073F08DEC00F03D50365C716F4150E7
:100DB600715F3F50365C726F3AC073F08DEC00F095
:100DC600800E3C18006E800E005C02E1000E3B5C5B
:100DD60013E23FC000F040C001F00036009001363B
:100DE60000360090013600503B2601503C22060E8C
:100DF6003B26000E3C221CD03D503F5C036E3E500D
:100E06004058046E03C000F004C001F000360090A4
:100E1600013600360090013600503B2601503C2238
:100E26000A0E3B26000E3C22010E3D5E000E3E5A87
:080E36003F4A402A5BD712007D
:100E3E003F6A406A3450365C416E35503758426EC8
:100E4E0038C03DF039C03EF038C000F039C001F076
:100E5E0000360090013600C03BF001C03CF000505F
:100E6E0003083B6E01C03CF0000E3C56010E3D24C3
:100E7E00016E000E3E20026E800E4018006E800E37
:100E8E000218005C02E101503F5CD8B0CED03F505A
:100E9E003424006E40503520016E00C059F001C060
:100EAE005AF03D5036245B6E3E5037205C6E00C0CB
:100EBE005DF001C05EF03D50365C5F6E3E503758BF
:100ECE000001606F3AC061F093EC01F0800E006E8D
:100EDE00800E4018005C02E13F5000081EE23F50B9
:100EEE00345C006E40503558016E00C059F001C0A0
:100EFE005AF03D5036245B6E3E5037205C6E00C07B
:100F0E005DF001C05EF03D50365C5F6E3E5037586E
:100F1E00606F3AC061F093EC01F03D503624006EE4
:100F2E003E503720016E4150005E4250015A00C0C3
:100F3E0059F001C05AF03F5036245B6E40503720B6
:100F4E005C6E00C05DF001C05EF03F50365C5F6EBF
:100F5E0040503758606F3AC061F093EC01F0800E4C
:100F6E00006E800E3E18005C02E13D50000822E249
:100F7E003D50365C006E3E503758016E4150005E5B
:100F8E004250015A00C059F001C05AF03F50362469
:100F9E005B6E405037205C6E00C05DF001C05EF0AD
:100FAE003F50365C5F6E40503758606F3AC061F00C
:100FBE0093EC01F0800E3C18006E800E005C02E196
:100FCE00000E3B5C13E23FC000F040C001F0003663
:100FDE000090013600360090013600503B2601503D
:100FEE003C22060E3B26000E3C221CD03D503F5CA0
:100FFE00036E3E504058046E03C000F004C001F072
:10100E0000360090013600360090013600503B2627
:10101E0001503C220A0E3B26000E3C22010E3D5E84
:0C102E00000E3E5A3F4A402A21D7120013
:10103A0034C031F035C032F036C033F039C01BF05D
:10104A00000E1C6E37C019F038C01AF0010E186E67
:02105A00120082
:10105C001850000A0EE1050E196E070E1A6E380EA6
:10106C00316E290E326E000E336E200E1B6E000E8A
:10107C001C6E396A39503424E96E000E3520EA6E44
:10108C00EE50000A15E039503424E96E000E35207C
:10109C00EA6EEECF59F036C05AF037C05BF038C06C
:1010AC005CF0C5EC02F019503626362A392AE2D704
:0210BC00120020
:1010BE003650345C016E000E026E000E025601C0F8
:1010CE0048F002C049F0800E0218006E800E005CDF
:1010DE0002E1000E015C16E248500008026E49C0A3
:1010EE0003F0000E035638C001F001360190800E59
:1010FE000318006E800E005C02E10150025C01E2FA
:10110E0087D10ED038C001F001360190800E4918FB
:10111E00006E800E005C02E10150485C01E278D165
:10112E003750355C016E000E026E000E025601C085
:10113E0048F002C049F0800E0218006E800E005C6E
:10114E0002E1000E015C16E248500008026E49C032
:10115E0003F0000E035638C001F001360190800EE8
:10116E000318006E800E005C02E10150025C01E289
:10117E004FD10ED038C001F001360190800E4918C3
:10118E00006E800E005C02E10150485C01E240D12D
:10119E003850342400016C6F3850365C6D6F35C09A
:1011AE006EF039C06FF022EC01F0385034246C6FC1
:1011BE003850365C6D6F37C06EF039C06FF022EC70
:1011CE0001F038503524596E3850375C5A6E34C0A1
:1011DE005BF039C05CF05BEC01F038503524596E91
:1011EE003850375C5A6E36C05BF039C05CF05BEC41
:1011FE0001F03E6A3F6A38C000F0000E016E3550B5
:10120E000026D8B0012A3850365C046E000E056EEA
:10121E00000E05560450005C406E05500158416E9C
:10122E0038C002F0000E036E34500226D8B0032AE6
:10123E000250005C426E03500158436E3850375CCA
:10124E00006E000E016E000E01560250005C446EE0
:10125E0003500158456E0450005C466E055001580F
:10126E00476E38C03CF0000E3D6E3CC000F03DC0F5
:10127E0001F000360090013600C03AF001C03BF09C
:10128E00005003083A6E01C03BF0000E3B56010EB3
:10129E003C24016E000E3D20026E800E3F18006E43
:1012AE00800E0218005C02E101503E5CD8B0B0D056
:1012BE00385034240001716F3E50715F3850375CE6
:1012CE00726F3C50722739C073F08DEC00F03850BD
:1012DE00365C716F3E5071273850375C726F3C50E0
:1012EE00722739C073F08DEC00F038503424716FD2
:1012FE003E50715F38503524726F3C50725F39C06A
:10130E0073F08DEC00F03850365C716F3E507127E3
:10131E0038503524726F3C50725F39C073F08DECCB
:10132E0000F03850375C006E3C500024716F465010
:10133E00715F3E500024726F39C073F08DEC00F077
:10134E003850375C006E3C50005C716F4450715FDA
:10135E003E500024726F39C073F08DEC00F038509F
:10136E003524006E3C50005C716F4250715F3E50F0
:10137E00005C726F39C073F08DEC00F0385035247C
:10138E00006E3C500024716F4050715F3E50005C07
:10139E00726F39C073F08DEC00F0800E3B18006E4A
:1013AE00800E005C02E1000E3A5C13E23EC000F0DB
:1013BE003FC001F000360090013600360090013635
:1013CE0000503A2601503B22060E3A26000E3B22D2
:1013DE001CD03C503E5C036E3D503F58046E03C023
:1013EE0000F004C001F00036009001360036009087
:1013FE00013600503A2601503B220A0E3A26000EC4
:10140E003B22010E3C5E000E3D5A3E4A3F2A3FD71C
:02141E001200BA
:101420003650345C016E000E026E000E025601C092
:1014300048F002C049F0800E0218006E800E005C79
:1014400002E1000E015C16E248500008026E49C03D
:1014500003F0000E035638C001F001360190800EF3
:101460000318006E800E005C02E10150025C01E294
:10147000A7D10ED038C001F001360190800E491876
:10148000006E800E005C02E10150485C01E298D1E0
:101490003750355C016E000E026E000E025601C020
:1014A00048F002C049F0800E0218006E800E005C09
:1014B00002E1000E015C16E248500008026E49C0CD
:1014C00003F0000E035638C001F001360190800E83
:1014D0000318006E800E005C02E10150025C01E224
:1014E0006FD10ED038C001F001360190800E49183E
:1014F000006E800E005C02E10150485C01E260D1A8
:1015000034C059F0385035245A6E36C05BF038502C
:10151000375C5C6E39C05DF050EC03F03E6A3F6AA8
:1015200038C000F0000E016E35500026D8B0012AF8
:101530003850365C046E000E056E000E05560450E1
:10154000005C406E05500158416E38C002F0000E3C
:10155000036E34500226D8B0032A0250005C426E5B
:1015600003500158436E3850375C006E000E016E18
:10157000000E01560250005C446E03500158456E47
:101580000450005C466E05500158476E38C03CF070
:10159000000E3D6E3CC000F03DC001F000360090F2
:1015A000013600C03AF001C03BF0005003083A6E2B
:1015B00001C03BF0000E3B56010E3C24016E000EB4
:1015C0003D20026E800E3F18006E800E0218005CF7
:1015D00002E101503E5CD8B0F3D038C059F0000EA3
:1015E0005A6E34505926D8B05A2A3E50595E3F5050
:1015F0005A5A3850375C006E000E016E000E0156CC
:101600003C5000263D50012200C05BF001C05CF060
:101610003850365C5D6E000E5E6E000E5E563E50BB
:101620005D263F505E2200C05FF001C060F039C00F
:1016300061F093EC01F038C059F0000E5A6E34504E
:101640005926D8B05A2A3E50595E3F505A5A38C08F
:1016500000F0000E016E35500026D8B0012A3C5033
:10166000005E3D50015A00C05BF001C05CF0385094
:10167000365C5D6E000E5E6E000E5E563E505D2660
:101680003F505E2200C05FF001C060F039C061F0E1
:1016900093EC01F03850375C026E000E036E000EC2
:1016A00003563C500224596E3D5003205A6E46505A
:1016B000595E47505A5A3E500224006E3F50032054
:1016C000016E00C05BF001C05CF03C50025C5D6EDE
:1016D0003D5003585E6E44505D5E45505E5A00C0FA
:1016E0005FF001C060F039C061F093EC01F038C0E8
:1016F00002F0000E036E35500226D8B0032A3C508B
:10170000025C596E3D5003585A6E4250595E435028
:101710005A5A3E50025C006E3F500358016E00C0A2
:101720005BF001C05CF03C5002245D6E3D50032034
:101730005E6E40505D5E41505E5A00C05FF001C079
:1017400060F039C061F093EC01F0800E3B18006E40
:10175000800E005C02E1000E3A5C13E23EC000F035
:101760003FC001F00036009001360036009001368F
:1017700000503A2601503B22060E3A26000E3B222C
:101780001CD03C503E5C036E3D503F58046E03C07D
:1017900000F004C001F000360090013600360090E1
:1017A000013600503A2601503B220A0E3A26000E1E
:1017B0003B22010E3C5E000E3D5A3E4A3F2AFCD6BB
:0217C000120015
:1017C2000F01396B3B6BB4EC05F0346AE2EC05F0C7
:1017D2004E0E346E230E356E000E366E0FEC06F092
:1017E20064EC03F064EC03F0346AE2EC05F0346A72
:1017F200356A366A376A440E386E000E396E1E0E2E
:101802003A6E000E3B6E800E3C6E000E3D6E400E38
:101812003E6E000E3F6E4E0E406E230E416E000E67
:10182200426E72EC03F0150E0B6E4B0E0C6EBE0E7A
:101832000D6E0D2EFED70C2EFCD70B2EFAD7000004
:10184200180E346E000E356E100E366E000E376EA8
:10185200440E386E000E396E1E0E3A6E000E3B6E4E
:10186200800E3C6E000E3D6E400E3E6E000E3F6ED0
:101872004E0E406E230E416E000E426E72EC03F06D
:10188200150E0B6E4B0E0C6EBE0E0D6E0D2EFED790
:101892000C2EFCD70B2EFAD70000380E346E000E39
:1018A200356E220E366E000E376E440E386E000E06
:1018B200396E1E0E3A6E000E3B6E800E3C6E000EAE
:1018C2003D6E400E3E6E000E3F6E4E0E406E230E7B
:1018D200416E000E426E72EC03F064EC03F064ECB5
:1018E20003F0346AE2EC05F03E0E596E280E5A6E91
:1018F2007C0E5B6E380E5C6E010E5D6E50EC03F07A
:10190200050E346E050E356E540E366E230E376E8E
:10191200010E386E8BEC05F0290E0B6E960E0C6ED6
:101922007F0E0D6E0D2EFED70C2EFCD70B2EFAD786
:10193200020E346E020E356E570E366E260E376E5E
:10194200070E386E010E396E5FEC08F0290E0B6E31
:10195200960E0C6E7F0E0D6E0D2EFED70C2EFCD742
:101962000B2EFAD7080E346E080E356E510E366EF7
:10197200200E376E0C0E386E010E396E50DD290EB8
:101982000B6E960E0C6E7F0E0D6E0D2EFED70C2E6C
:10199200FCD70B2EFAD7596A5A6A5B6A5C6A7F0EC9
:1019A2005D6E000E5E6E3F0E5F6E000E0001606F98
:1019B200010E616F93EC01F064EC03F0050E306EE2
:1019C20030503B0826E30B0E0B6E260E0C6E5D0E9E
:1019D2000D6E0D2EFED70C2EFCD70B2EFAD7000063
:1019E2000000020E596E360E5A6E30C05BF0010EC8
:1019F2005C6E5BEC01F0020E00016C6F780E6D6F95
:101A020030C06EF0010E6F6F22EC01F0050E302631
:101A1200D7D764EC03F0346AE2EC05F0010E306EC5
:101A22003F0E346E000E356E200E366E000E376E8F
:101A3200030E006E000E016E30C004F0000E056E43
:101A4200FAEC00F000C038F001C039F0010E3A6E35
:101A52005BEC06F030500A0A02E0302AE1D764EC6F
:101A620003F03F0E346E000E356E200E366E000E01
:101A7200376E1E0E386E000E396E010E3A6E1FEC76
:101A820007F064EC03F00A0E596E140E5A6E460EFD
:101A92005B6E3F0E5C6E020E5D6E50EC03F064EC0A
:101AA20003F0FF0E346EE2EC05F04E0E346E1C0EA7
:101AB200356E000E366E080E376E070E386E200E2B
:101AC200396E1DEC08F0380E1D6E780E1E6E370E44
:101AD2001F6E200E206E460E216E6F0E226E6E0E4F
:101AE200236E740E246E256A1D0E346E000E356E42
:101AF200050E366E376A020E386E2EEC08F064EC74
:101B020003F0180E346E2B0E356E000E366E030E79
:101B1200376E050E386E200E396E1DEC08F0330E4E
:101B22001D6E580E1E6E350E1F6E200E206E430E59
:101B3200216E410E226E500E236E490E246E540EFB
:101B4200256E410E266E4C0E276E530E286E200E09
:101B5200296E4F0E2A6E4E0E2B6E4C0E2C6E590EA7
:101B62002D6E2E6A1D0E346E000E356E3C0E366ED4
:101B7200020E376E020E386E2EEC08F064EC03F0A3
:101B8200380E346E290E356E000E366E050E376E27
:101B9200070E386E200E396E1DEC08F0350E1D6EE4
:101BA200780E1E6E370E1F6E200E206E460E216EB0
:101BB2006F0E226E6E0E236E740E246E256A1D0E3B
:101BC200346E000E356E050E366E040E376E020E42
:101BD200386E2EEC08F064EC03F04E0E346E270ED5
:101BE200356E000E366E050E376E070E386E200EFD
:101BF200396E1DEC08F0350E1D6E780E1E6E370E16
:101C02001F6E200E206E460E216E6F0E226E6E0E1D
:101C1200236E740E246E200E256E280E266E760E0E
:101C2200276E320E286E290E296E2A6A1D0E346E18
:101C3200000E356E320E366E060E376E020E386E9E
:0C1C42002EEC08F064EC03F0C3D5FFD7D3
:101C4E00000000000000000000065F5F06000000BC
:101C5E000007070007070000147F7F147F7F140022
:101C6E00242E6B6B3A120000466630180C6662002A
:101C7E00307A4F5D377A48000407030000000000F9
:101C8E00001C3E63410000000041633E1C0000004A
:101C9E00082A3E1C1C3E2A0808083E3E0808000082
:101CAE000080E06000000000080808080808000036
:101CBE0000006060000000006030180C0603010098
:101CCE003E7F71594D7F3E0040427F7F4040000075
:101CDE00627359496F660000226349497F360000DE
:101CEE00181C16537F7F5000276745457D3900002D
:101CFE003C7E4B4979300000030371790F070000D9
:101D0E00367F49497F360000064F49693F1E000065
:101D1E0000006666000000000080E666000000001D
:101D2E00081C3663410000002424242424240000CF
:101D3E00004163361C080000020351590F060000D3
:101D4E003E7F415D5D1F1E007C7E13137E7C000076
:101D5E00417F7F49497F36001C3E6341416322002B
:101D6E00417F7F41633E1C00417F7F495D4163009F
:101D7E00417F7F491D0103001C3E63415173720078
:101D8E007F7F08087F7F000000417F7F41000000B9
:101D9E00307040417F3F0100417F7F081C77630018
:101DAE00417F7F41406070007F7F0E1C0E7F7F0061
:101DBE007F7F060C187F7F001C3E6341633E1C0034
:101DCE00417F7F49090F06001E3F21717F5E000093
:101DDE00417F7F09197F6600266F4D5973320000CF
:101DEE0003417F7F410300007F7F40407F7F0000E3
:101DFE001F3F60603F1F00007F7F3018307F7F00E5
:101E0E0043673C183C674300074F78784F07000044
:101E1E00476371594D677300007F7F414100000099
:101E2E000103060C183060000041417F7F00000066
:101E3E00080C0603060C080080808080808080805D
:101E4E000000030704000000207454543C78400046
:101E5E00417F3F4848783000387C44446C2800006D
:101E6E00307848493F7F4000387C54545C1800005D
:101E7E00487E7F490302000098BCA4A4F87C0400AD
:101E8E00417F7F08047C780000447D7D4000000087
:101E9E0060E08080FD7D0000417F7F10386C440043
:101EAE0000417F7F400000007C7C18381C7C78004D
:101EBE007C7C04047C780000387C44447C38000030
:101ECE0084FCF8A4243C1800183C24A4F8FC8400DC
:101EDE00447C784C041C1800485C54547424000054
:101EEE0000043E7F442400003C7C40403C7C40008B
:101EFE001C3C60603C1C00003C7C7038707C3C00DC
:101F0E00446C3810386C44009CBCA0A0FC7C0000D3
:101F1E004C64745C4C64000008083E77414100003C
:101F2E0000000077770000004141773E080800006E
:101F3E00020301030203010070784C464C787000D6
:101F4E000E9F91B1FB4A00003A7A40407A7A4000E7
:101F5E00387C54555D19000002237555557D7B4222
:101F6E00217554547D794000217555547C7840007C
:101F7E00207457577C784000183CA4A4E44000001D
:101F8E00023B7D55555D1B02397D54545D19000091
:101F9E00397D55545C18000001457C7C41010000E0
:101FAE000203457D7D43020001457D7C400000001B
:101FBE00797D1612167D790070782B2B78700000C3
:101FCE00447C7C5555450000207454547C7C5454FC
:101FDE007C7E0B097F7F4900327B49497B320000B2
:101FEE00327A48487A320000327A4A487830000015
:101FFE003A7B41417B7A40003A7A42407878400001
:10200E009ABAA0A0FA7A000001193C66663C190142
:10201E003D7D40407D3D0000183C24E7E724240030
:10202E00687E7F49436620002B2FFCFC2F2B00007F
:10203E00FFFF09092FF6F8A040C088FE7F090302B2
:10204E00207454557D79400000447D7D4100000090
:10205E003078484A7A320000387840427A7A400026
:10206E007A7A0A0A7A7000007D7D19317D7D000032
:10207E0000262F292F2F280000262F292F2600007B
:10208E0030784D45602000003838080808080000F8
:10209E0008080808383800004F6F3018CCEEBB9196
:1020AE004F6F30186C76FBF90000007B7B00000050
:1020BE00081C3622081C362222361C0822361C0822
:1020CE00AA005500AA005500AA55AA55AA55AA5508
:1020DE00DDFFAA77DDAAFF77000000FFFF000000FA
:1020EE00101010FFFF000000141414FFFF0000007A
:1020FE001010FFFF00FFFF001010F0F010F0F000C6
:10210E00141414FCFC0000001414F7F700FFFF0079
:10211E000000FFFF00FFFF001414F4F404FCFC00A9
:10212E0014141717101F1F0010101F1F101F1F0051
:10213E001414141F1F000000101010F0F000000007
:10214E000000001F1F1010101010101F1F10101075
:10215E00101010F0F0101010000000FFFF10101003
:10216E001010101010101010101010FFFF10101083
:10217E00000000FFFF1414140000FFFF00FFFF100B
:10218E0000001F1F101717140000FCFC04F4F414B9
:10219E0014141717101717141414F4F404F4F41479
:1021AE000000FFFF00F7F714141414141414141481
:1021BE001414F7F700F7F714141414171714141453
:1021CE0010101F1F101F1F10141414F4F4141414E5
:1021DE001010F0F010F0F01000001F1F101F1F1055
:1021EE000000001F1F141414000000FCFC14141433
:1021FE000000F0F010F0F0101010FFFF10FFFF10B5
:10220E00141414FFFF1414141010101F1F000000DC
:10221E00000000F0F0101010FFFFFFFFFFFFFFFFA8
:10222E00F0F0F0F0F0F0F0F0FFFFFFFF0000000024
:10223E0000000000FFFFFFFF0F0F0F0F0F0F0F0F1C
:10224E00387C446C386C4400FCFE2A2A3E14000094
:10225E007E7E020206060000027E7E027E7E020066
:10226E0063775D4963630000387C447C3C04040062
:10227E0080FE7E20203E1E000406027E7C060200AA
:10228E0099BDE7E7BD9900001C3E6B496B3E1C00F3
:10229E004C7E7301737E4C0030784A4F7D390000BE
:1022AE00183C243C3C243C1898FC643C3E273D18CA
:1022BE001C3E6B49490000007E7F01017F7E0000BD
:1022CE002A2A2A2A2A2A000044445F5F4444000036
:1022DE0040515B4E4440000040444E5B5140000074
:1022EE00000000FEFF01070660E080FF7F00000097
:1022FE0008086B6B080800002436123624361200CC
:10230E0000060F090F06000000000018180000005C
:10231E000000001010000000103070C0FFFF01011F
:10232E00001F1F011F1E000000191D1712000000C4
:10233E0000003C3C3C3C000000000E1F11111F0E23
:10234E000000000000F80808080808080C0C0C0C27
:10235E000C0A0A0A0A0A0A090909090909090909D6
:10236E0009090909090909090909898989898989CF
:10237E00898989898989890909090909090909093F
:10238E0009090DFD0DC306FC000000000000000051
:10239E00000000000000000000000000000000002F
:1023AE00000000000000000000000000000000001F
:1023BE00000000000000000000000000000000000F
:1023CE000000000000FF0000000000000000000000
:1023DE00F0F0F0F0F0E0E0F0F0F0F0F0E0C0C0E08F
:1023EE00F0F0F0F0F0E0C0000000FFFFFFFFFFC3D1
:1023FE00C3C3C3C3C3C3030000000000000000003A
:10240E00000000FFF04FE0FF6060602020202020E1
:10241E00202020202020202040404040800000002E
:10242E00000000000000000000000000000000009E
:10243E00000000000000000000000000000000008E
:10244E000000000000FF000000000000000000007F
:10245E00FFFFFFFFFF00000000FFFFFFFFFF000078
:10246E000000FFFFFFFFFF000000FFFFFFFFFF81E7
:10247E0081818181818180000000000000000000C8
:10248E00000000FF01F808080808080808080808F6
:10249E000808080810E01824C446828285D96670A0
:1024AE00A0C060602020A0A0E0E0C040408080C0BE
:1024BE00408000000000000000000000000000004E
:1024CE0000000000003F606060E06060606060607F
:1024DE0063636363636060606063636363636060D0
:1024EE0060606363636363606060636363636363BD
:1024FE0063636363636363606060606060604040F9
:10250E0040E0E0FFF6010E0606020202020202029F
:10251E00020202028243723E2310100007030302DE
:10252E00040404040404041C1010101111090929D8
:10253E0070204305F07EAE803800000000000000E1
:10254E000000000000000000000101010101010176
:10255E0001017F7F7F7FFFFFF7FB7BBF5F5D7DBD4F
:10256E00BD3F5D59B173F3E5CF1B3F77FFCFBFFF83
:10257E00FFFFFFFFFFFFFF7F7F7F7F7F7F7F7FFF5D
:10258E00FFFF7F7F7D7878787878F878787878781C
:10259E0078F8F8E88F000000000000000080F0F8E6
:1025AE0078BCDC5CFC1C1C3C5C5C3C78F8F860C0C5
:1025BE008FA8D88831444832A06000000000000087
:1025CE0000000080C0F8F8F8F8FCFEFEFEFEFEFEED
:1025DE00FEFEFEFEFEFFFFFFFFFFF6EFD0F6AEADF6
:1025EE00A980D1D0E0F7F9FFFFFCDCF07FFFDFFF21
:1025FE00FFFFFFFFFFFEFEFFFFFFFFFFFFFFFEFFE0
:10260E00FFFFFFFFFFFFFEFEFEFEFEFEFEFEFEFED6
:10261E00FEFEFEFEFFFFFFFFFFFFFEFFBEFFFFFD04
:10262E00F0EFDDDFFEA888AAC4D0E4E6F87F7E9C3A
:10263E00DFE2F2F2F2F2F2B1200000000000000040
:10264E000000000101010103030307070707070F3D
:10265E000F0F070F0F0F07070F0E0F0D0F2F2B2B3F
:10266E002B2B2B2F6FEFFFFDFDFFFEFFFFFFFFFF5D
:10267E00BFBFEFEFEFBFFFBFFFFFFFFFFFFFFFFF8C
:10268E00FFFFFFFFFFFFFFFFFFFFFFFFFFFFFFFF4C
:10269E00FFFFFFFF7F7F7F7FFFFFBFBFBFBFFFFE3D
:1026AE00FFFDFFFFFFFBFFFFFF7F7D3F1F1F1F1F74
:1026BE001F1F3F0F0F07070303030000000000005A
:1026CE0000000000000000000000000000000000FC
:1026DE0000000000000000000000000000000000EC
:1026EE0000000000000000000000000000010100DA
:1026FE0001010000000000000000000001010101C6
:10270E00010101010303030B0B0B0B07030E06065E
:10271E0006021213130317151511011313030606E0
:10272E000E0F0F070F0F0F0B02000000000000002E
:10273E00000000000000000000000000000000008B
:10274E00000000000000004F00000007000700140A
:10275E007F147F14242A7F2A1223130864623649B9
:10276E005522200005030000001C224100004122DA
:10277E001C0014083E081408083E080850300000DB
:10278E000008080808080060600000201008040215
:10279E003E5149453E00427F40004261514946212B
:1027AE0041454B311814127F1027454545393C4A97
:1027BE0049493001710905033649494936064949E7
:1027CE00291E00363600000056360000081422413D
:1027DE0000141414141400412214080201510906A5
:1027EE003E415D551E7E1111117E7F494949363E8F
:1027FE00414141227F4141221C7F494949417F0984
:10280E000909013E4149497A7F0808087F00417F46
:10281E0041002040413F017F081422417F4040404B
:10282E00407F020C027F7F0408107F3E4141413EF3
:10283E007F090909063E4151215E7F091929462665
:10284E004949493201017F01013F4040403F1F206D
:10285E0040201F3F4038403F631408146307087040
:10286E0008076151494543007F41410002040810A9
:10287E00200041417F0004020102044040404040DC
:10288E00000003050020545454787F4444443838E3
:10289E0044444444384444447F3854545418040443
:1028AE007E0505085454543C7F0804047800447D8A
:1028BE0040002040443D007F1028440000417F40EE
:1028CE00007C047C04787C08040478384444443842
:1028DE007C14141408081414147C7C080404004896
:1028EE005454542404043F44443C4040207C1C2057
:1028FE0040201C3C4030403C44281028440C505092
:10290E00503C4464544C440836414100000077006A
:10291E0000004141360808082A1C08081C2A08082D
:0A292E00FFFFFFFFFF060909060086
:10293800000000000000005F00000007000700140E
:102948007F147F14242A7F2A1223130864623649CD
:102958005522500005030000001C224100004122BE
:102968001C00082A1C2A0808083E080800503000E5
:102978000008080808080030300000201008040289
:102988003E5149453E00427F40004261514946213F
:1029980041454B311814127F1027454545393C4AAB
:1029A80049493001710905033649494936064949FB
:1029B800291E003636000000563600000008142292
:1029C8004114141414144122140800020151090678
:1029D800324979413E7E1111117E7F494949363E7F
:1029E800414141227F4141221C7F494949417F0998
:1029F8000901013E414151327F0808087F00417FAB
:102A080041002040413F017F081422417F4040405F
:102A1800407F0204027F7F0408107F3E4141413E0F
:102A28007F090909063E4151215E7F091929464659
:102A38004949493101017F01013F4040403F1F2082
:102A480040201F7F2018207F631408146303047834
:102A58000403615149454300007F414102040810C5
:102A68002041417F000004020102044040404040F0
:102A7800000102040020545454787F4844443838F4
:102A880044444420384444487F3854545418087EF9
:102A9800090102081454543C7F0804047800447D5A
:102AA80040002040443D00007F10284400417F4002
:102AB800007C041804787C080404783844444438BA
:102AC8007C14141408081414187C7C08040408489E
:102AD80054545420043F4440203C4040207C1C2057
:102AE80040201C3C4030403C44281028440C5050A6
:102AF800503C4464544C44000836410000007F00B8
:102B080000004136080008082A1C08081C2A080882
:102B1800000000005C000C000C7C287C7C447C24B9
:102B28001048285408000C0038440044380020108D
:102B380008103810804000101010004000201008C5
:102B4800384438007C006454484454281C107C4C99
:102B5800542438542004740C28542808543800503D
:102B680000805000102844282828442810045408BD
:102B7800384C5C7814787C54283844447C44387C3D
:102B880054447C14043844347C107C007C0020407D
:102B98003C7C106C7C40407C087C7C047C7C447CC5
:102BA8007C14083844787C1468485424047C047CD9
:102BB800407C3C403C7C207C6C106C1C601C645449
:102BC8004C7C4400081020447C0008040880808065
:032BD800040800EE
:020000040030CA
:0D000100331F3CFFBD81FF0FC00FE00F401B
:00000001FF
