:10000000D0EF02F00000000000EF00F00000000060
:0A0010000000000000000000F3D71C
:10001C003A0E0C6E230E0D6E0D2EFED70C2EFCD749
:02002C001200C0
:0C002E00020E0D6E0D2EFED70000120019
:0A003A00850E0D6E0D2EFED712008C
:1000440040BE02D08A9601D08A8640BC02D08A94EF
:1000540001D08A8440BA02D08A9201D08A8240B800
:1000640002D08A9001D08A8015B002D08A8801D04B
:100074008A988A8ADADF8A9A40B602D08A9601D0B0
:100084008A8640B402D08A9401D08A8440B202D0D5
:100094008A9201D08A8240B002D08A9001D08A80AC
:1000A40015B002D08A8801D08A988A8ABEDF8A9ADB
:0C00B40015A002D0B1DF01D0BEDF1200A9
:0C00C00015903FC040F0BEDF158012001C
:1000CC00086A096A100E0C6E0134083609360450A1
:1000DC00085E0550D8A0053C095ED8B007D0045086
:1000EC0008260550D8B0053C0926D89000360136B4
:0600FC000C2EEAD71200F1
:10010200086A080E0C6E003408360450085ED8B037
:0E01120002D00826D89000360C2EF5D7120029
:100120000B6A0A6A096A00500402F4CF09F0F3CF9F
:1001300008F001500502F4CF0BF0F3CF0AF00050A5
:100140000502F3500926F4500A22E86A0B220150F6
:100150000402F3500926F4500A22E86A0B2208C070
:1001600000F009C001F00AC002F00BC003F0120059
:100170003A50010A03E1800E3A6E14D03A50020A56
:1001800003E1C00E3A6E0ED03A50030A03E1940E1A
:100190003A6E08D03A50040A03E1D40E3A6E02D007
:1001A000800E3A6E3B04006E3A50002600C03AF0D2
:1001B00000C040F047DF15903E6A3E503C24E96E97
:1001C000000E3D20EA6EEE50000A0BE03E503C244B
:1001D000E96E000E3D20EA6EEECF3FF071DF3E2A61
:0601E000ECD715801200AF
:1001E600060E0C6E2B0E0D6E0D2EFED70C2EFCD7AA
:0201F6001200F5
:0E01F800CF0E0D6E0D2EFED70000000012007F
:1002060035C001F0010E006E015004E0003600908A
:10021600FF0FFBD700C037F0001E33C0E9FF34C024
:10022600EAFF0050EF16120EE9260050EF16D8DF4F
:100236003750EF12120EE95EDCDF3750EF14016E15
:100246000150000A03E0010E366E01D0366AC8DF9F
:0602560036C000F01200AA
:10025C00939A939893909392939493968A9A8A985C
:10026C008A968A948A928A90D3DED2DED1DE8A82F2
:10027C008A808A8AD6DE8A9ACBDE8A8AD2DE8A9AEB
:10028C00C7DE8A8ACEDE8A9AC3DE8A908A8AC9DE63
:10029C008A9ABEDE8A8AC5DE8A9A8A928A868A8A77
:1002AC00C0DE8A9AB5DE8A968A808A8ABADE8A9AF3
:1002BC008A908A8AB6DE8A9AABDE8A8AB2DE8A9AFB
:1002CC008A808A8AAEDE8A9AA3DE8A908A8AA9DE1E
:1002DC008A9A8A868A848A828A808A8AA2DE8A9A02
:0602EC0097DE15801200F0
:1002F2003350010A03E1800E336E14D03350020AE8
:1003020003E1C00E336E0ED03350030A03E1940EA4
:10031200336E08D03350040A03E1D40E336E02D098
:10032200800E336E3404006E3350002600C033F06A
:10033200158000C040F085DE159035C040F081DEAA
:040342001580120010
:10034600300E166E300E176E300E186E2E0E196E9B
:10035600300E1A6E300E1B6E300E1C6E300E1D6E79
:100366001E6A34AE06D02D0E166E331E341E334A68
:10037600342A33C000F034C001F001320032019E4D
:1003860000C035F0640E046EB9DE005209E0640E5A
:10039600046E35C000F0B2DE300E0024166E02D0B8
:1003A600300E166E0A0E046E35C000F0A7DE0A0E79
:1003B600046EA4DE08C000F0300E0024176E0A0E8C
:1003C600046E35C000F09ADE08C000F0300E00243E
:1003D600186E33C000F034C001F0003600900136CC
:1003E60000360090013600360090013600C036F027
:1003F60001C037F00F0E0016000E011600C036F0D1
:1004060001C037F0710E046E020E056E86DE00C066
:1004160036F001C037F0E80E046E030E056E53DEAB
:10042600300E00241A6E640E046E000E056E36C081
:1004360000F037C001F047DE0A0E046E000E056EAE
:1004460042DE08C000F009C001F0300E0026000EA2
:10045600012200C01BF00A0E046E000E056E36C0A7
:1004660000F037C001F02FDE0A0E046E000E056E96
:100476002ADE08C000F009C001F0300E0026000E8A
:10048600012200C01CF00A0E046E000E056E36C076
:1004960000F037C001F017DE08C000F009C001F017
:1004A600300E00241D6E020E3A6E050E3B6E160EC1
:0A04B6003C6E000E3D6E59DE120090
:1004C00035C001F0010E006E015004E000360090CE
:1004D000FF0FFBD700C039F0001C386E366A33C0FE
:1004E000E9FF376A3850EF16120EE9263850EF163A
:1004F0009EDD3950EF129BDD120EE95E3950EF148C
:10050000006E0CE037C001F0010E006E015004E0F7
:1005100000360090FF0FFBD7005036128EDD8DDDC8
:100520003750070A02E0372ADDD736C000F0120044
:1005300035C001F0010E006E015004E0003600905D
:10054000FF0FFBD700C039F0001E00C038F033C0E9
:10055000E9FF0050EF16120E3324E96E376A37C0F8
:1005600001F036C000F0015004E00032009EFF0FA1
:10057000FBD7010E0014016E3850EF160150000A2F
:1005800002E03950EF1238DE3950EF123750070AC7
:1005900002E0372AE4D7120EE95E4FDD4EDD12008D
:1005A0000F013C6B9684300E166E300E176E300EB7
:1005B000186E2E0E196E300E1A6E300E1B6E300E27
:1005C0001C6E300E1D6E1E6A49DE010E406E3ADD55
:1005D0000C0E406E37DD010E3A6E010E3B6E200EA2
:1005E000226E540E236E650E246E6D0E256E700EF7
:1005F000266E650E276E720E286E610E296E740EC1
:100600002A6E750E2B6E720E2C6E650E2D6E3A0EC6
:100610002E6E200E2F6E200E306E200E316E326A3E
:10062000220E3C6E000E3D6EA3DD020E336E0D0EEB
:10063000346EDF0E356E5DDE020E336E0E0E346EDE
:10064000430E356E56DE840E336E0F0E346E020E80
:10065000356ED9DD840E336E0F0E346E020E356E9C
:10066000CC0E366E65DF840E336E0F0E346E020EC6
:10067000356E440E366E5CDF020E0C6E3D0E0D6E56
:100680000D2EFED70C2EFCD700000000840E336E1A
:100690000F0E346E020E356EB6DD840E336E0F0E05
:1006A000346E020E356ECC0E366E42DF840E336E23
:1006B0000F0E346E020E356EBE0E366E39DF840EAE
:1006C000336E0F0E346E020E356EFADE00C020F06F
:1006D000000E216E840E336E0F0E346E020E356ED8
:1006E000EFDE00C003F0026A20500224006E2150A9
:1006F0000320016E00C020F001C021F000C033F0E3
:1007000001C034F020DE160E0B6E1B0E0C6E880E30
:100710000D6E0D2EFED70C2EFCD70B2EFAD7000037
:0407200092D7FFD796
:020000040030CA
:0D000100331F3CFFBD81FF0FC00FE00F401B
:00000001FF
