:1000000084EF0BF00000000000EF00F000000000A3
:0A0010000000000000000000F3D71C
:10001C000B820BAE18EF00F00368026801680068F1
:08002C000A360232FF0E120039
:080034000AAE029E000E12004C
:10003C000B840BAE29EF00F0010E036E026A016A0D
:0A004C00006A0A360232FF0E1200AD
:0E005600026A016A006A086A036A000E12005C
:0C006400020E0D6E0D2EFED700001200E3
:100070000450085E0550D8A0053C095E0650D8A083
:10008000063C0A5E0750D8A0073C0B5E0336070EFD
:100090000C6E0334083609360A360B36045003A0BA
:1000A0000ED0085E0550D8A0053C095E0650D8A0C9
:1000B000063C0A5E0750D8A0073C0B5E0DD0082610
:1000C0000550D8B0053C09260650D8B0063C0A2693
:1000D0000750D8B0073C0B2603360C2EDAD7023473
:1000E000083609360A360B36045003A00ED0085ED7
:1000F0000550D8A0053C095E0650D8A0063C0A5E13
:100100000750D8A0073C0B5E0DD008260550D8B08C
:10011000053C09260650D8B0063C0A260750D8B040
:10012000073C0B260236070E0C6E023408360936E1
:100130000A360B36045002A00ED0085E0550D8A037
:10014000053C095E0650D8A0063C0A5E0750D8A0C0
:10015000073C0B5E0DD008260550D8B0053C09269B
:100160000650D8B0063C0A260750D8B0073C0B26EC
:1001700002360C2EDAD70134083609360A360B3629
:10018000045002A00ED0085E0550D8A0053C095EC0
:100190000650D8A0063C0A5E0750D8A0073C0B5E6C
:1001A0000DD008260550D8B0053C09260650D8B019
:1001B000063C0A260750D8B0073C0B260136070E2E
:1001C0000C6E0134083609360A360B36045001A08D
:1001D0000ED0085E0550D8A0053C095E0650D8A098
:1001E000063C0A5E0750D8A0073C0B5E0DD00826DF
:1001F0000550D8B0053C09260650D8B0063C0A2662
:100200000750D8B0073C0B2601360C2EDAD7003445
:10021000083609360A360B36045001A00ED0085EA7
:100220000550D8A0053C095E0650D8A0063C0A5EE1
:100230000750D8A0073C0B5E0DD008260550D8B05B
:10024000053C09260650D8B0063C0A260750D8B00F
:10025000073C0B260036070E0C6E003408360936B4
:100260000A360B36045000A00ED0085E0550D8A008
:10027000053C095E0650D8A0063C0A5E0750D8A08F
:10028000073C0B5E0DD008260550D8B0053C09266A
:100290000650D8B0063C0A260750D8B0073C0B26BB
:1002A00000360C2EDAD700B00ED0045008260550C8
:1002B000D8B0053C09260650D8B0063C0A2607509F
:0802C000D8B0073C0B26120028
:1002C8000B1E0A1E091E081E082AD8B4092AD8B40B
:0802D8000A2AD8B40B2A120017
:1002E0003A0E0C6E230E0D6E0D2EFED70C2EFCD783
:0202F0001200FA
:1002F2000CB0BBEF01F00CA261EF02F00E6A000E2F
:100302000264D2EF01F0F00E0214D8A49DEF01F0C6
:10031200023A01380F0B02260138F00B016E003849
:100322000F0B01260038F00B006E08380F0B002669
:100332000838F00B086E0E84D89002BEB6EF01F0BA
:1003420008360036013602360E2A02BEB6EF01F03A
:1003520008360036013602360E2A02BEB6EF01F02A
:1003620008360036013602360E2A0E50036457EF65
:1003720002F0035E0BBC08AE5CEF02F0D880800E88
:1003820008640030000E002201220222D8A05CEF95
:1003920002F0023201320032034A61EF02F05CEFF6
:1003A20002F001C002F000C001F008C000F0086ACB
:1003B200000E0E86026409EF02F0F00E0214D8A4B9
:1003C200F1EF01F0023A01380F0B02260138F00B6F
:1003D200016E00380F0B01260038F00B006E0E8400
:1003E200D89002BEB6EF01F00036013602360E2A70
:1003F20002BEB6EF01F00036013602360E2A02BE08
:10040200B6EF01F00036013602360E2AB6EF01F0E1
:1004120001C002F000C001F0006A000E0E960E88C4
:10042200026436EF02F0F00E0214D8A421EF02F0BB
:10043200023A01380F0B02260138F00B016E0E84CE
:10044200D89002BEB6EF01F0013602360E2A02BE85
:10045200B6EF01F0013602360E2A02BEB6EF01F007
:10046200013602360E2AB6EF01F001C002F0016A2F
:10047200000E0E86026466EF02F0F00E0214D8A49B
:1004820045EF02F0023A0E84D89002BEB6EF01F0B8
:1004920002360E2A02BEB6EF01F002360E2A02BE64
:1004A200B6EF01F002360E2AB6EF01F0010E0C6E25
:1004B200C4DD69EF02F0020E0C6EBBDD69EF02F0E3
:1004C200040E0C6EAADD69EF02F0080E0C6EC2DD9E
:0204D200120016
:0A04D400850E0D6E0D2EFED71200EE
:1004DE000B800BAE7BEF02F0026A0AAEFF0E026ECD
:0C04EE00016E006E0A360232FF0E120092
:1004FA00000170BF02D08A9601D08A8670BD02D0F0
:10050A008A9401D08A8470BB02D08A9201D08A82EE
:10051A0070B902D08A9001D08A8015B002D08A8838
:10052A0001D08A988A8A99DD8A9A70B702D08A9607
:10053A0001D08A8670B502D08A9401D08A8470B3B9
:10054A0002D08A9201D08A8270B102D08A9001D0F8
:10055A008A8015B002D08A8801D08A988A8A7DDD7D
:0E056A008A9A15A002D0B7DE01D0AFDF1200D2
:100578000450000A12E10550000A0FE10650000A73
:100588000CE10750000A09E1FF0E006EFF0E016E34
:10059800FF0E026E7F0E036E97D00C6A07BE0C2A00
:1005A8000D6A0B6A0A6A096A086A03500210011088
:1005B8000010D8B484D0035007180E6E0EBE0D1E5E
:1005C80007AE0BD0041E051E061E071E042AD8B44B
:1005D800052AD8B4062AD8B4072A03AE0BD0001EC1
:1005E800011E021E031E002AD8B4012AD8B4022A0A
:1005F800D8B4032A035007100E6E0EBE1CD034DD8B
:100608000CBE36D00DAE5BD0001E011E021E031EAE
:10061800002AD8B4012AD8B4022AD8B4032A081E5A
:10062800091E0A1E0B1E082AD8B4092AD8B40A2A99
:10063800D8B40B2A44D007AE15D003BE0DD0035052
:100648000B6E02500A6E0150096E0050086E036A64
:10065800026A016A006AD6D7036A026A016A006AF6
:10066800002A000C031E021E011E001E0C8EC7D796
:10067800082AD8B4092AD8B40A2AD8B40B2A0450AC
:10068800085CD8A4BFD70550095CD8A4BBD70650CE
:100698000A5CD8A4B7D707500B5CD8A4B3D70B6AA9
:1006A8000A6A096A086A002AD8B4012AD8B4022A50
:1006B800D8B4032A03AEA6D70E6A0E88FF0C0E6ABA
:0A06C8000CA001D0FDDD000F1200B0
:1006D200025006180E6E086A096A0B6A0350076414
:1006E2005CEF04F006500A6E068E028E03500B6E0B
:1006F2000750036E000E0B64ACEF03F00B50075E65
:10070200D8B44DEF04F0070E07641BEF04F0075E48
:1007120000C008F001C000F002C001F0026A074EFA
:100722004DEF04F00764F0EF03F0075E00C008F03D
:1007320001C000F0016A074E4DEF04F00764CEEFEE
:1007420003F0075E00C008F0006A074E4DEF04F0A8
:100752000764B5EF03F00AC002F005C001F004C05F
:1007620000F0086A77EF05F0030E0764C0EF03F0AC
:10077200075E08380F0B086E074E4DEF04F0D89055
:100782000832074E4DEF04F0D8900832074E4DEF75
:1007920004F0D89008324DEF04F0030E0764DFEF47
:1007A20003F0075E08380F0B086E0038F00B0826BE
:1007B20000380F0B006E074E4DEF04F0D890003258
:1007C2000832074E4DEF04F0D89000320832074E3F
:1007D2004DEF04F0D890003208324DEF04F0030ED2
:1007E200076407EF04F0075E08380F0B086E003845
:1007F200F00B082600380F0B006E0138F00B0026B4
:1008020001380F0B016E074E4DEF04F0D890013204
:1008120000320832074E4DEF04F0D8900132003218
:100822000832074E4DEF04F0D89001320032083200
:100832004DEF04F0030E076438EF04F0075E08384A
:100842000F0B086E0038F00B082600380F0B006EF5
:100852000138F00B002601380F0B016E0238F00B45
:10086200012602380F0B026E074E4DEF04F0D890AE
:100872000232013200320832074E4DEF04F0D890B6
:100882000232013200320832074E4DEF04F0D890A6
:100892000232013200320832096A000E0EAE41EF16
:1008A20005F0081E001E011E021E082A0022012257
:1008B200022241EF05F00750D8A462EF04F077EF6F
:1008C20005F0096A02C00AF0028E068E0750035C28
:1008D200076ED8B434EF05F0070E076402EF05F097
:1008E200075E0450096E0550046E0650056E066AD6
:1008F200074E34EF05F0070E0764D7EF04F0075EEA
:100902000450096E0550046E056A074E34EF05F077
:10091200070E0764B5EF04F0075E0450096E046A1F
:10092200074E34EF05F0070E07649CEF04F00AC08F
:1009320002F077EF05F0030E0764A7EF04F0075EFD
:1009420009380F0B096E074E34EF05F0D8900932C3
:10095200074E34EF05F0D8900932074E34EF05F018
:10096200D890093234EF05F0030E0764C6EF04F0A5
:10097200075E09380F0B096E0438F00B092604389C
:100982000F0B046E074E34EF05F0D8900432093293
:10099200074E34EF05F0D89004320932074E34EF97
:1009A20005F0D8900432093234EF05F0030E0764E3
:1009B200EEEF04F0075E09380F0B096E0438F00BF6
:1009C200092604380F0B046E0538F00B042605388F
:1009D2000F0B056E074E34EF05F0D8900532043246
:1009E2000932074E34EF05F0D8900532043209324D
:1009F200074E34EF05F0D89005320432093234EF55
:100A020005F0030E07641FEF05F0075E09380F0BB0
:100A1200096E0438F00B092604380F0B046E0538F2
:100A2200F00B042605380F0B056E0638F00B052671
:100A320006380F0B066E074E34EF05F0D8900632DB
:100A4200053204320932074E34EF05F0D8900632EF
:100A5200053204320932074E34EF05F0D8900632DF
:100A6200053204320932086A000E0EAE41EF05F07B
:100A7200091E041E051E061E092A0422052206223C
:100A82000950082604500022055001220650022275
:100A92000EBE58EF05F0D8A067EF05F00232013222
:100AA20000320832033E67EF05F071EF05F0D8B06F
:100AB2006CEF05F0000E081E001E011E021E082A21
:100AC2000022012202220A7E6CEF05F0010E0C6E5A
:100AD2000FDC79EF05F0020E0C6E0ADC79EF05F0FF
:100AE200040E0C6E0EEC00F079EF05F0000E0C6EA9
:020AF2001200F0
:100AF400086A096A000E07620364FFEF05F00250FA
:100B040006180A6E075003267E0ED8A090EF05F053
:100B1400035ED8B004EF06F094EF05F0035ED8A0AE
:100B240009EF06F0028E068E02C00EF001C00BF033
:100B340000C00DF000500402F4CF0CF00150050287
:100B4400F4CF00F0F3CF08F00402F3500C26F45075
:100B54000822000E00220D500502F3500C26F4501A
:100B64000822000E002202500402F3500826F4501A
:100B7400002202500502016A000E0122F3500026F1
:100B8400F45001220D500602F3500826F4500022BE
:100B9400026A000E012202220B500602F3500026C4
:100BA400F4500122000E02220E500602F3500126D8
:100BB400F450022202BEE7EF05F008360036013693
:100BC40002360306D8B409EF06F0FAEF05F0D88030
:100BD400800E08640030000E002201220222D8A0F8
:100BE400FAEF05F0023201320032034A04EF06F054
:100BF4000AAE029E000E0CEF06F0010E2BEC00F084
:100C04000CEF06F0020E0EEC00F00CEF06F0040EF2
:060C14001EEC00F01200CE
:060C1A00067E5ADD120007
:100C20000A6A0350D8A40A800750D8A40A820A503E
:100C3000D8B473EF06F0030AD8B42CEF06F00AB06C
:100C400027EF06F006AE71EF06F06FEF06F002AE8A
:100C50006FEF06F071EF06F00250800B0A6E029EF5
:100C60000650800B069E0A18D8B43DEF06F00A50D5
:100C7000D8B46FEF06F071EF06F00750035CD8B4FC
:100C800047EF06F0D8A063EF06F069EF06F00650D4
:100C9000025CD8B451EF06F0D8A063EF06F069EF1C
:100CA00006F00550015CD8B45BEF06F0D8A063EF06
:100CB00006F069EF06F00450005CD8B473EF06F05C
:100CC000D8B069EF06F00A52D8B471EF06F06FEFB2
:100CD00006F00A52D8B46FEF06F071EF06F0D88034
:0E0CE0001200D8901200D880D88412001200A2
:080CEE000B6A0B86FF0E1200D9
:100CF6000050086E0150006E0250016E0350026EE5
:100D0600036A0B6A0C6A9E0E036E0A6A02AE98EFBD
:100D160006F0081E001E011E021E082AD8B4002A6C
:100D2600D8B4012AD8B4022A0A8E020E0C6E79ECC7
:040D360001F01200B6
:0E0D3A00159067C070F07DEC02F0158012007D
:100D48000B6A0C6A086A0350D8B428EF07F002C08F
:100D58000AF0028E9E0E035E03AE18EF07F0036CD6
:100D6800080E035CD8A0E5EF06F0036E083600C055
:100D780008F001C000F002C001F0026A080E035C2E
:100D8800D8A0E5EF06F0036E083600C008F001C0F1
:100D980000F0016A080E035CD8A0E5EF06F0036EC8
:100DA800083600C008F0006A080E035CD8A0E5EF1A
:100DB80006F0036E0836086A0350D8A4D890F1EFFD
:100DC80006F00350D8B4F1EF06F0D89002320132A1
:100DD80000320832032EE9EF06F00BBC08A002EF40
:100DE80007F0D8A002EF07F0082AD8B4002AD8B430
:100DF800012AD8B4022A02BE2CEF07F00AAE28EF67
:100E080007F0021E011E001E081E082AD8B4002A78
:100E1800D8B4012AD8B4022A28EF07F0026A016A76
:100E2800006A086A28EF07F00B800BAE33EF07F073
:100E3800026A0AAE33EF07F0026E016E006E086EAA
:100E48000A36023233EF07F00C6A000E34EF07F06F
:100E5800010E0C6E000E6FEC02F034EF07F0FF0E7F
:100E68000250036E0150026E0050016E0850006E71
:020E7800120066
:100E7A0000016A51800A08E16951000A05E16851D6
:100E8A00000A02E16751000A1CE16BC0E1FF6CC075
:100E9A00E2FF2D0EE66E320EE66E310EE66E340E6F
:100EAA00E66E370EE66E340EE66E380EE66E330EDA
:100EBA00E66E360EE66E340EE66E380EE66EE66ABC
:100ECA009AD06F6B800E6A19006E800E005C08E182
:100EDA00000E695D05E1000E685D02E1000E675DC6
:100EEA0016E2FF0E6F6F006A016A026A036A6751AF
:100EFA00005E6851015A6951025A6A51035A00C088
:100F0A0067F001C068F002C069F003C06AF06BC004
:100F1A00E1FF6CC0E2FF200EE66E200EE66E200EA8
:100F2A00E66E200EE66E200EE66E200EE66E200EAF
:100F3A00E66E200EE66E200EE66E200EE66E300E8F
:100F4A00E66EE66A0A0E6B256D6F000E6C216E6FF7
:100F5A00000E006E6A1908E10050691905E1005097
:100F6A00681902E16751000A3EE00A0E046E000E9B
:100F7A00056E066E076E67C000F068C001F069C0B2
:100F8A0002F06AC003F0BCEC02F008C000F009C02D
:100F9A0001F00AC002F00BC003F0300E00266DC04B
:100FAA00E1FF6EC0E2FF00C0E6FF0A0E046E000E0B
:100FBA00056E066E076E67C000F068C001F069C072
:100FCA0002F06AC003F0BCEC02F000C067F001C096
:100FDA0068F002C069F003C06AF0010E00016D5F9B
:100FEA00000E6E5BB5D76F5306E06DC0E1FF6EC0B1
:080FFA00E2FF2D0EE66E12006D
:0C1002003A0E0D6E0D2EFED700001200FD
:10100E003E50010A03E1800E3E6E14D03E50020A9D
:10101E0003E1C00E3E6E0ED03E50030A03E1940E65
:10102E003E6E08D03E50040A03E1D40E3E6E02D04E
:10103E00800E3E6E3F04006E3E50002600C03EF015
:10104E0000C070F07DEC02F01590426A42504024D0
:10105E00E96E000E4120EA6EEE50000A0BE042509F
:10106E004024E96E000E4120EA6EEECF67F05EDEA0
:08107E00422AECD71580120094
:10108600760E166E160E176E3E0E186E000E196E42
:0C109600C26A070EC012C08EC280120099
:1010A2000450000A12E10550000A0FE10650000A3E
:1010B2000CE10750000A09E1FF0E006EFF0E016EFF
:1010C2007F0E026EFF0E036EA7D0086A096A0750F0
:1010D200D8B4FCEF08F00350D8B400EF09F0025086
:1010E20006180A6E028E068E0E6A02C008F001C051
:1010F2000CF000C00DF004500D5E0550D8A0053C68
:101102000C5E0650D8A0063C085E086A0C6A0D6A9E
:10111200D8A093EF08F0D8900232013200320832A0
:10112200010E0E6E0750035ED8A0A0EF08F07E0EEF
:101132000E240326D8B005EF09F0A6EF08F07E0EC4
:101142000E240326D8A00AEF09F0180E0B6E0D36F6
:101152000C3608360036013602360E360450005E72
:101162000550D8A0053C015E0650D8A0063C025EA0
:1011720006340E120EA0C1EF08F00D80CCEF08F07D
:10118200045000260550D8B0053C01260650D8B0C0
:10119200062802260D900B2EA8EF08F0F2EF08F0B9
:1011A200D8900036013602360E360450005E0550E5
:1011B200D8A0053C015E0650D8A0063C025E06346B
:1011C2000E10010B0D26D8B00C2AD8B4082AD8A4C8
:1011D200F2EF08F008320C320D32032AD8B405EFD0
:1011E20009F00AAE089E0850026E0C50016E0D50B6
:1011F200006E0DEF09F0010E79DD0DEF09F0020E20
:101202002BEC00F00DEF09F0040E0EEC00F00DEFE8
:0A12120009F0080E1EEC00F01200B7
:10121C000001656B3EC000F03FC001F040C002F021
:10122C0041C003F08BDD00C044F001C045F002C0AA
:10123C0046F003C047F0046A056A066A076A3EC0B6
:10124C0000F03FC001F040C002F041C003F0E2DC0E
:10125C00FF0ED8B0000E006E005202E0FF0E656F5C
:10126C0044C067F045C068F046C069F047C06AF0FA
:10127C004D0E6B6F000E6C6FFADD200E4D6E44C080
:10128C0000F045C001F046C002F047C003F02DDD70
:10129C0000C004F001C005F002C006F003C007F066
:1012AC003EC000F03FC001F040C002F041C003F06E
:1012BC00AEDC000E046E500E056E430E066E8F0EE5
:1012CC00076E12DC3BDD00C044F001C045F002C0EB
:1012DC0046F003C047F0800E0318046E800E045CC9
:1012EC0008E1000E025C05E1000E015C02E1000E5B
:1012FC00005C14E2006A016A026A036A4450005EF0
:10130C004550015A4650025A4750035A00C044F007
:10131C0001C045F002C046F003C047F044C067F07E
:10132C0045C068F046C069F047C06AF0590E6B6F53
:10133C00000E6C6F9CDD486A496A4A6A4B6A42C06F
:10134C00E1FF43C0E2FF200EE66E200EE66E200E9B
:10135C00E66E200EE66E200EE66E200EE66E200E79
:10136C00E66E200EE66E200EE66E200EE66E300E59
:10137C00E66EE66A3EC000F03FC001F040C002F0ED
:10138C0041C003F0DBDC00C044F001C045F002C0FA
:10139C0046F003C047F0000E666F031808E1665173
:1013AC00021805E16651011802E10050000AFF0E17
:1013BC00D8A4000E666F046A056A066A076A3EC006
:1013CC0000F03FC001F040C002F041C003F022DC4D
:1013DC00FF0ED8B0000E006E665100160AE042C037
:1013EC00E1FF43C0E2FF2D0EE66E010E486E000ECB
:1013FC00496E4DC04CF04C50200A0FE14A4A4B2A22
:10140C004D0E006E000E016E4A500024E96E4B50DA
:10141C000120EA6EEECF4CF0EED74C50000A19E0EA
:10142C0048504224E16E49504320E26E4CC0E6FF26
:10143C004A4A4B2A484A492A4D0E006E000E016E4C
:10144C004A500024E96E4B500120EA6EEECF4CF06E
:10145C00E4D76551000AFF0ED8A4000E016E000EF1
:10146C00491802E1000E4818FF0ED8A4000E006EB9
:10147C00015000160AE048504224E16E49504320C6
:10148C00E26E300EE66E484A492A000E491802E117
:10149C00010E4818FF0ED8A4000E006E6551001600
:1014AC000AE048504224E16E49504320E26E300E6F
:1014BC00E66E484A492A48504224E16E495043207E
:1014CC00E26E2E0EE66E484A492A060E4A6E000E51
:1014DC004B6E5FC04CF04C50000A1EE04C50200A82
:1014EC0002E1300E4C6E48504224E16E49504320CC
:1014FC00E26E4CC0E6FF4A4A4B2A484A492A590E2A
:10150C00006E000E016E4A500024E96E4B50012013
:10151C00EA6EEECF4CF0DFD748504224E16E4950D2
:08152C004320E26EE66A1200A2
:10153400939A939893909392939493968A9A8A9871
:101544008A968A948A928A9070EC01F070EC01F089
:1015540070EC01F08A828A808A8A32EC00F08A9ADE
:1015640070EC01F08A8A32EC00F08A9A70EC01F097
:101574008A8A32EC00F08A9A70EC01F08A908A8AA6
:1015840032EC00F08A9A70EC01F08A8A32EC00F0B6
:101594008A9A8A928A868A8A32EC00F08A9A70EC55
:1015A40001F08A968A808A8A32EC00F08A9A8A90BC
:1015B4008A8A32EC00F08A9A70EC01F08A8A32EC62
:1015C40000F08A9A8A808A8A32EC00F08A9A70EC57
:1015D40001F08A908A8A32EC00F08A9A8A868A8498
:1015E4008A828A808A8A32EC00F08A9A70EC01F04E
:0415F400158012004C
:1015F8003E50010A03E1800E3E6E14D03E50020AAE
:1016080003E1C00E3E6E0ED03E50030A03E1940E75
:101618003E6E08D03E50040A03E1D40E3E6E02D05E
:10162800800E3E6E3F04006E3E50002600C03EF025
:10163800158000C070F07DEC02F0159040C070F08D
:081648007DEC02F01580120098
:101650000050086E0150006E0250016E0350026E81
:10166000036A0B6A0C6A9E0E036E0A6A020E0C6E07
:0616700079EC01F012000C
:10167600C30EC2163EC000F0003600900036009041
:101686000050C212BBDCC282C2A202D00000FCD74C
:10169600C4CF01F0006A00C03FF001C040F0C35063
:1016A6003F12000E40123FC000F040C001F0120091
:1016B600220E0C6E086A096A0A6A0B6A0C06D8B40E
:1016C6001FD0D8900B320A32093208320332023266
:1016D60001320032D8A0F2D70C06D8B409D0045093
:1016E60008260550092206500A2207500B22EAD77F
:1016F600045008260550092206500A2207500B22DC
:021706001200CF
:101708000F01396B020E3C6F9682B9DC0FDF010EB8
:101718000001706F7DEC02F00C0E706F7DEC02F032
:10172800010E3E6E010E3F6E540E306E650E316E28
:101738006D0E326E700E336E650E346E720E356E2F
:10174800610E366E740E376E750E386E720E396E07
:10175800650E3A6E200E3B6E3A0E3C6E3D6A300EB8
:10176800406E000E416E4FDC020E3E6E080E3F6E5C
:10177800DF0E406E3DDF020E3E6E090E3F6E430ED9
:10178800406E36DF1A6A1B6A060E3E6E70DF00C0B6
:101798001AF001C01BF0000E026E036E030E046EF9
:1017A800000E056E066E076E82DF4EDF0A0E046EAF
:1017B800D70E056E230E066E820E076E6EDC00C015
:1017C8002CF001C02DF002C02EF003C02FF000C095
:1017D8003EF001C03FF002C040F003C041F01C0ED3
:1017E800426E000E436E16DD206A020E3E6E030E38
:1017F8003F6E1C0E406E000E416E05DC0D0E0B6E2A
:101808002D0E0C6ED70E0D6E0D2EFED70C2EFCD79E
:0C1818000B2EFAD700000000B7D7FFD756
:020000040030CA
:0D000100331F3CFFBD81FF0FC00FE00F401B
:00000001FF
