:1000000092EF03F00000000000EF00F0000000009D
:0A0010000000000000000000F3D71C
:10001C00086A096A100E0C6E013408360936045051
:10002C00085E0550D8A0053C095ED8B007D0045036
:10003C0008260550D8B0053C0926D8900036013664
:06004C000C2EEAD71200A1
:100052002C062C062C50000806E22C06000000009C
:1000620000000000F7D700000000000000000000C0
:08007200000000000000120074
:10007A000B6A0A6A096A086A0E6A03340836045067
:10008A00085E0550D8A0053C095E0650D8A0063C7B
:10009A000A5E0750D8A0073C0B5EE86AD8A0010E9A
:1000AA000E5E0336070E0C6E0334083609360A361E
:1000BA000B360E36045003A012D0085E0550D8A0A5
:1000CA00053C095E0650D8A0063C0A5E0750D8A037
:1000DA00073C0B5EE86AD8A0010E0E5E11D0082616
:1000EA000550D8B0053C09260650D8B0063C0A2669
:1000FA000750D8B0073C0B26E86AD8B0010E0E2686
:10010A0003360C2ED1D70234083609360A360B3696
:10011A000E36045003A012D0085E0550D8A0053C44
:10012A00095E0650D8A0063C0A5E0750D8A0073CD4
:10013A000B5EE86AD8A0010E0E5E11D008260550A3
:10014A00D8B0053C09260650D8B0063C0A26075006
:10015A00D8B0073C0B26E86AD8B0010E0E26023644
:10016A00070E0C6E0234083609360A360B360E367E
:10017A00045002A012D0085E0550D8A0053C095EC2
:10018A000650D8A0063C0A5E0750D8A0073C0B5E72
:10019A00E86AD8A0010E0E5E11D008260550D8B024
:1001AA00053C09260650D8B0063C0A260750D8B0A6
:1001BA00073C0B26E86AD8B0010E0E2602360C2E32
:1001CA00D1D70134083609360A360B360E360450B2
:1001DA0002A012D0085E0550D8A0053C095E065060
:1001EA00D8A0063C0A5E0750D8A0073C0B5EE86A16
:1001FA00D8A0010E0E5E11D008260550D8B0053CD5
:10020A0009260650D8B0063C0A260750D8B0073C43
:10021A000B26E86AD8B0010E0E260136070E0C6EC0
:10022A000134083609360A360B360E36045001A058
:10023A0012D0085E0550D8A0053C095E0650D8A029
:10024A00063C0A5E0750D8A0073C0B5EE86AD8A0B5
:10025A00010E0E5E11D008260550D8B0053C0926BD
:10026A000650D8B0063C0A260750D8B0073C0B26E1
:10027A00E86AD8B0010E0E2601360C2ED1D700340A
:10028A00083609360A360B360E36045001A012D04B
:10029A00085E0550D8A0053C095E0650D8A0063C69
:1002AA000A5E0750D8A0073C0B5EE86AD8A0010E88
:1002BA000E5E11D008260550D8B0053C0926065016
:1002CA00D8B0063C0A260750D8B0073C0B26E86A85
:1002DA00D8B0010E0E260036070E0C6E0034083612
:1002EA0009360A360B360E36045000A012D0085EC4
:1002FA000550D8A0053C095E0650D8A0063C0A5E07
:10030A000750D8A0073C0B5EE86AD8A0010E0E5E23
:10031A0011D008260550D8B0053C09260650D8B099
:10032A00063C0A260750D8B0073C0B26E86AD8B024
:10033A00010E0E2600360C2ED1D700B00ED0045076
:10034A0008260550D8B0053C09260650D8B0063C08
:0C035A000A260750D8B0073C0B26120002
:10036600000E046E7D0E056E000E066E076E04C04E
:1003760000F005C001F006C002F007C003F012004D
:10038600220E0C6E086A096A0A6A0B6A0C06D8B451
:100396001FD0D8900B320A320932083203320232A9
:1003A60001320032D8A0F2D70C06D8B409D00450D6
:1003B60008260550092206500A2207500B22EAD7C2
:1003C600045008260550092206500A2207500B221F
:0203D600120013
:1003D800C6DFE80E046E030E056E000E066E076E8D
:1003E800CEDF00C027F001C028F002C029F003C00A
:1003F8002AF01FC004F020C005F0000E066E076E3C
:1004080038DE00C027F001C028F002C029F003C080
:100418002AF000C005F001C006F002C007F003C0D2
:1004280008F00832073206320532089E08320732D1
:1004380006320532089E05C000F006C001F007C06C
:1004480002F008C003F00332023201320032039E88
:1004580000C023F001C024F082DF21C004F022C0D4
:1004680005F0000E066E076E8ADF23C009F024C06F
:100478000AF0000E0B6E0C6E030E086E09C004F035
:100488000AC005F00BC006F00CC007F0085007E0E2
:1004980004360490053606360736FF0FF8D7E9DD2F
:1004A80000C027F001C028F002C029F003C02AF0DC
:1004B8000A0E046E000E056E23C000F024C001F081
:1004C800A9DD00C023F001C024F0000E015C02E1A8
:1004D800030E005C01E257D016C0E9FF17C0EAFF1F
:1004E8002A50000808E12950000805E128500008B2
:1004F80002E12750000845E21550EF122450000A87
:1005080017E0256A266A24042B6E000E006E26501A
:10051800005C02E125502B5C0BE32C6A96DD000E93
:10052800261802E12B50251803E0254A262AEBD786
:1005380023C02CF08ADD1850EF162450000A17E06B
:10054800256A266A24042B6E000E006E2650005C75
:1005580002E125502B5C0BE32C6A77DD000E261890
:1005680002E12B50251803E0254A262AEBD723C0A1
:100578002CF06BDD010E275E000E285A295A2A5AE4
:08058800AFD71850EF16120066
:10059000BA0E1F6E020E206EFA0E216E000E226E33
:0405A0001BDF12004B
:1005A400160E1F6E040E206E320E216E000E226E89
:0405B40011DF120041
:1005B800930E1F6E020E206EFA0E216E000E226E32
:0405C80007DF120037
:1005CC00100E1F6E030E206EFA0E216E000E226EA0
:0405DC00FDDE12002E
:1005E000060E0C6E2B0E0D6E0D2EFED70C2EFCD7AC
:0205F0001200F7
:1005F200700E1F6E030E206E320E216E000E226EE2
:04060200EADE12001A
:10060600260E1F6E050E206E320E216E000E226E15
:04061600E0DE120010
:10061A001E6A1BC001F0010E006E015004E0003694
:10062A000090FF0FFBD719C0E9FF1AC0EAFF00507C
:10063A00EE14026E016A0250000A02E0010E016E17
:10064A0001501D1823E11C50000804E2C4DFC3DF77
:10065A001C06F9D71BC001F0010E006E015004E020
:10066A0000360090FF0FFBD719C0E9FF1AC0EAFF56
:10067A000050EE14026E016A0250000A02E0010EF6
:10068A00016E01501D1802E1FF0E1E6E1EC000F021
:02069A0012004C
:10069C0019C016F01AC017F01BC001F0010E006E45
:1006AC00015004E000360090FF0FFBD700C015F09E
:1006BC00001E00C018F0120E1924E96E000E1A204C
:1006CC00EA6E0050EF16120EE95E0050EF161200A3
:1006DC006DDF58DF75DF74DF69DF54DF71DF70DFCA
:1006EC0065DF50DF6DDF62DF4DDF6ADF69DF5EDF04
:1006FC0049DF66DF65DF64DF45DF44DF57DF12006B
:10070C00090E196E70DF48DF78DF1950010A03E01B
:08071C00FF0E1926F7D71200A9
:100724000F01396B3C6BF80E936E840E196E0F0E2D
:100734001A6E010E1B6EB0DF700E1F6E030E206E5C
:10074400E80E216E030E226E45DE810E196E0F0E29
:100754001A6E070E1B6E010E1C6E010E1D6E5BDF02
:10076400005205E027DF81AE02D00000FCD7810EE5
:10077400196E0F0E1A6E060E1B6E010E1C6E010E04
:100784001D6E49DF005205E001DF81AC02D000009C
:10079400FCD7810E196E0F0E1A6E050E1B6E010E1C
:1007A4001C6E010E1D6E37DF005205E00DDF81AABD
:1007B40002D00000FCD7810E196E0F0E1A6E040EC3
:1007C4001B6E010E1C6E010E1D6E25DF005205E02E
:1007D4009BDF81A802D00000FCD7810E196E0F0E9A
:1007E4001A6E030E1B6E010E1C6E010E1D6E13DFBE
:1007F400005205E071DF81A602D00000FCD7A5D726
:02080400FFD71C
:020000040030CA
:0D000100331F3CFFBD81FF0FC00FE00F401B
:00000001FF
