:10000000E1EF01F00000000000EF00F00000000050
:0A0010000000000000000000F3D71C
:10001C003A0E0C6E230E0D6E0D2EFED70C2EFCD749
:02002C001200C0
:0C002E00020E0D6E0D2EFED70000120019
:0A003A00850E0D6E0D2EFED712008C
:100044002EBE02D08A9601D08A862EBC02D08A9413
:1000540001D08A842EBA02D08A9201D08A822EB824
:1000640002D08A9001D08A8022B002D08A8801D03E
:100074008A988A8ADADF8A9A2EB602D08A9601D0C2
:100084008A862EB402D08A9401D08A842EB202D0F9
:100094008A9201D08A822EB002D08A9001D08A80BE
:1000A40022B002D08A8801D08A988A8ABEDF8A9ACE
:0C00B40022A002D0B1DF01D0BEDF12009C
:1000C000026AC7B408D01F0EC514016E0150000AA1
:0C00D00002E1FF0E026E02C000F0120000
:1000DC009E962AC0C9FFC7A402D00000FCD79EB6CA
:1000EC0002D00000FCD7C5BC02D0016A03D0C58485
:0A00FC00020E016E01C000F01200B8
:100106009E96C5869EB602D00000FCD7C9CF01F0E8
:10011600C59A2A50000AD8B4C58A9E96C5889EA656
:08012600FED701C000F0120039
:0C012E0022902AC02EF087DF22801200F1
:10013A00949894968B988B9694889486C79EC79C1D
:06014A00380EC66E120023
:04015000C584120050
:100154002B6A2C6AB3DF0050000A01E009D02C504E
:10016400120A02E18E0E2B1803E02B4A2C2AF2D736
:10017400120E2C5C02E18F0E2B5C03E37B0E2A6EC5
:1001840006D0C580C5A002D00000FCD72A6A2AC0C8
:0401940000F0120065
:08019800500EC86ECEDF12000C
:1001A0002350010A03E1800E236E14D02350020A6B
:1001B00003E1C00E236E0ED02350030A03E1940E18
:1001C000236E08D02350040A03E1D40E236E02D01C
:1001D000800E236E2404006E2350002600C023F0FE
:1001E00000C02EF02FDF2290276A27502524E96EC9
:1001F000000E2620EA6EEE50000A0BE02750252460
:10020000E96E000E2620EA6EEECF2AF090DF272A54
:06021000ECD72280120071
:100216009EDFA20E2A6E5FDF23C02AF05CDF24C0B9
:080226002AF059DF92DF1200FB
:10022E00939A939893909392939493968A9A8A988A
:10023E008A968A948A928A90EADEE9DEE8DE8A82DB
:10024E008A808A8AEDDE8A9AE2DE8A8AE9DE8A9AD4
:10025E00DEDE8A8AE5DE8A9ADADE8A908A8AE0DE35
:10026E008A9AD5DE8A8ADCDE8A9A8A928A868A8A77
:10027E00D7DE8A9ACCDE8A968A808A8AD1DE8A9ADC
:10028E008A908A8ACDDE8A9AC2DE8A8AC9DE8A9AE4
:10029E008A808A8AC5DE8A9ABADE8A908A8AC0DE07
:1002AE008A9A8A868A848A828A808A8AB9DE8A9A19
:0602BE00AEDE22801200FA
:1002C40047DFA20E2A6E08DF23C02AF005DF40DFD5
:1002D400A30E2A6E01DF276A2650275C1BE22750F3
:1002E4002424286E000E2520296E010E2A6E09DFB3
:1002F40028C0E1FF29C0E2FF00C0E6FFD00E0C6E6B
:10030400C90E0D6E0D2EFED70C2EFCD7000000007A
:10031400272AE2D727502424286E000E2520296E90
:100324002A6AEFDE28C0E1FF29C0E2FF00C0E6FF31
:040334000DDF1200C7
:100338000DDFA20E2A6ECEDE23C02AF0CBDE06DF4A
:10034800A30E2A6EC7DE2A6ADADE00C025F0B4DE04
:100358000050000A02E10000FAD7F6DE25C024F0BA
:0603680024C000F01200A9
:10036E002350010A03E1800E236E14D02350020A9B
:10037E0003E1C00E236E0ED02350030A03E1940E48
:10038E00236E08D02350040A03E1D40E236E02D04C
:10039E00800E236E2404006E2350002600C023F02E
:1003AE00228000C02EF047DE229025C02EF043DEC4
:0403BE002280120087
:1003C200EADE0F01396B3A6B31DF010E2E6E39DE38
:1003D2000C0E2E6E36DE490E176E320E186E430E5E
:1003E200196E200E1A6E6D0E1B6E690E1C6E6B0E50
:1003F2001D6E720E1E6E6F0E1F6E450E206E216AEE
:10040200166A010E156E006A170EE96E000EEA6E8C
:100412000050E926D8B0EA2AEECF15F01550000AAE
:1004220022E0162A16C023F015C024F0F3DED00E07
:100432000C6EC90E0D6E0D2EFED70C2EFCD70000D1
:100442000000010E236E16C024F015C025F08EDFC9
:10045200170EE96E000EEA6E1650E926D8B0EA2AA7
:10046200EECF15F0DBD71650010F236E246AD2DED1
:10047200D00E0C6EC90E0D6E0D2EFED70C2EFCD7B3
:1004820000000000010E166E010E236E54DF00C044
:1004920015F01550000A18E0020E236E16C024F063
:1004A20015C025F063DFD00E0C6EC90E0D6E0D2E39
:1004B200FED70C2EFCD700000000162A16C023F02F
:1004C2003ADF00C015F0E5D7290E0B6E960E0C6EC2
:1004D2007F0E0D6E0D2EFED70C2EFCD70B2EFAD7EB
:1004E200010E2E6EAEDD010E236E170E246E000E6F
:1004F200256E0A0E266EE5DE020E236E010E246EB6
:0C050200170E256E000E266E4ADEFFD795
:020000040030CA
:0D000100331F3CFFBD81FF0FC00FE00F401B
:00000001FF
