:1000000066EF01F00000000000EF00F000000000CB
:0A0010000000000000000000F3D71C
:0A001C00850E0D6E0D2EFED71200AA
:100026003A0E0C6E230E0D6E0D2EFED70C2EFCD73F
:020036001200B6
:0C003800020E0D6E0D2EFED7000012000F
:10004400026AC7B408D01F0EC514016E0150000A1D
:0C00540002E1FF0E026E02C000F012007C
:1000600027BE02D08A9601D08A8627BC02D08A9405
:1000700001D08A8427BA02D08A9201D08A8227B816
:1000800002D08A9001D08A8023B002D08A8801D021
:100090008A988A8AD1DF8A9A27B602D08A9601D0B6
:1000A0008A8627B402D08A9401D08A8427B202D0EB
:1000B0008A9201D08A8227B002D08A9001D08A80A9
:1000C00023B002D08A8801D08A988A8AB5DF8A9ABA
:0C00D00023A002D0A8DF01D0A1DF1200A5
:1000DC009E9627C0C9FFC7A402D00000FCD79EB6CD
:1000EC0002D00000FCD7C5BC02D0016A03D0C58485
:0A00FC00020E016E01C000F01200B8
:10010600949894968B988B9694889486C79EC79C51
:06011600380EC66E120057
:10011C009E96C5869EB602D00000FCD7C9CF01F0D2
:10012C00C59A2750000AD8B4C58A9E96C5889EA643
:08013C00FED701C000F0120023
:10014400286A296A7DDF0050000A01E009D029509D
:10015400120A02E18E0E281803E0284A292AF2D74F
:10016400120E295C02E18F0E285C03E37B0E276EDE
:1001740006D0C580C5A002D00000FCD7276A27C0DE
:0401840000F0120075
:04018800C584120018
:10018C00939A939893909392939493968A9A8A982D
:10019C008A968A948A928A9040DF3FDF3EDF8A8279
:1001AC008A808A8A43DF8A9A38DF8A8A3FDF8A9A72
:1001BC0034DF8A8A3BDF8A9A30DF8A908A8A36DF7C
:1001CC008A9A2BDF8A8A32DF8A9A8A928A868A8A6C
:1001DC002DDF8A9A22DF8A968A808A8A27DF8A9A7A
:1001EC008A908A8A23DF8A9A18DF8A8A1FDF8A9A82
:1001FC008A808A8A1BDF8A9A10DF8A908A8A16DFA5
:10020C008A9A8A868A848A828A808A8A0FDF8A9A64
:06021C0004DF2380120044
:08022200500EC86E6FDF1200E0
:10022A008CDFA20E276E55DF24C027F052DF25C0CF
:08023A0027F04FDFA4DF1200E2
:100242002450010A03E1800E246E14D02450020AC5
:1002520003E1C00E246E0ED02450030A03E1940E73
:10026200246E08D02450040A03E1D40E246E02D076
:10027200800E246E2504006E2450002600C024F057
:10028200238000C027F0EBDE239026C027F0E7DEB4
:0402920023801200B3
:1002960056DFA20E276E1FDF24C027F01CDF4FDFBC
:1002A600A30E276E18DF276A36DF00C026F0C7DEEA
:1002B6000050000A02E10000FAD763DF26C025F0ED
:0602C60025C000F012004B
:1002CC00AADF0F01396B3A6B5BDF010E276EC2DEC2
:1002DC000C0E276EBFDE490E176E320E186E430ED3
:1002EC00196E200E1A6E6D0E1B6E690E1C6E6B0E47
:1002FC001D6E720E1E6E6F0E1F6E450E206E216AE5
:10030C00166A010E156E006A170EE96E000EEA6E83
:10031C000050E926D8B0EA2AEECF15F01550000AA5
:10032C0022E0162A16C024F015C025F078DFD00E76
:10033C000C6EC90E0D6E0D2EFED70C2EFCD70000C8
:10034C000000010E246E16C025F015C026F073DFD8
:10035C00170EE96E000EEA6E1650E926D8B0EA2A9E
:10036C00EECF15F0DBD71650010F246E256A57DF40
:10037C00D00E0C6EC90E0D6E0D2EFED70C2EFCD7AA
:10038C0000000000010E166E010E246E7EDF00C010
:10039C0015F01550000A18E0020E246E16C025F058
:1003AC0015C026F048DFD00E0C6EC90E0D6E0D2E4A
:1003BC00FED70C2EFCD700000000162A16C024F025
:0A03CC0064DF00C015F0E5D7FFD78D
:020000040030CA
:0D000100331F3CFFBD81FF0FC00FE00F401B
:00000001FF
