:1000000058EF00F00000000000EF00F000000000DA
:0A0010000000000000000000F3D71C
:10001C00060E0C6E2B0E0D6E0D2EFED70C2EFCD775
:02002C001200C0
:10002E001B6A18C001F0010E006E015004E000368C
:10003E000090FF0FFBD716C0E9FF17C0EAFF005074
:10004E00EE14026E016A0250000A02E0010E016E09
:10005E0001501A1823E11950000804E2D8DFD7DF47
:10006E001906F9D718C001F0010E006E015004E018
:10007E0000360090FF0FFBD716C0E9FF17C0EAFF4E
:10008E000050EE14026E016A0250000A02E0010EE8
:10009E00016E01501A1802E1FF0E1B6E1BC000F01C
:0200AE0012003E
:1000B0000F01396B3A6B9380946AAA0E8B6E156AA6
:1000C000810E166E0F0E176E186A010E196E010E54
:1000D0001A6EADDF005202E0010E156E810E166E33
:1000E0000F0E176E186A010E196E1A6AA0DF1550EE
:0C00F000001602E08B1E156AE3D7FFD754
:020000040030CA
:0D000100331F3CFFBD81FF0FC00FE00F401B
:00000001FF
